{
	"page": 1,
	"totalPages": 1,
	"itemsOnPage": 1000,
	"address": "zpub6ricE56nzsDeTAVo4w68vQQ3tRvR6C18JjKVsgbiRFjEawGV9SuS2gfkpm5qFxjbTNPPuvAA3cqRsxNHxFwVnpYD2Lawjtb3wowbFdwmjow",
	"balance": "2599896040",
	"totalReceived": "6895667780",
	"totalSent": "4295771740",
	"unconfirmedBalance": "0",
	"unconfirmedTxs": 0,
	"txs": 7,
	"transactions": [
		{
			"txid": "e13c81f4450e43ef8ef10dea8f4f9d53f357266563462df32a7fd61eb71bd190",
			"version": 1,
			"vin": [
				{
					"txid": "34fac508c701939ac0fcb62bc436281cc28588d7986c5aa51de99e9835b9217b",
					"vout": 1,
					"n": 0,
					"addresses": [
						"dgb1qxxdszsfkv4uvw8kzzl2wfatts5r9zex69x6076"
					],
					"isAddress": true,
					"value": "598908696"
				}
			],
			"vout": [
				{
					"value": "10000000",
					"n": 0,
					"hex": "0014428a3010eb79c4d32478404200dbd41042e61fce",
					"addresses": [
						"dgb1qg29rqy8t08zdxfrcgppqpk75zppwv87wknuder"
					],
					"isAddress": true
				},
				{
					"value": "588896040",
					"n": 1,
					"hex": "00146542b8b7859994b18df4b71c72c4a72ed113662e",
					"addresses": [
						"dgb1qv4pt3du9nx2trr05kuw893989mg3xe3w322vy7"
					],
					"isAddress": true
				}
			],
			"blockHash": "000000000000000733a44ab2efd51c9485b05d905d2ba9092f716dcc0083116c",
			"blockHeight": 9763292,
			"confirmations": 1062143,
			"blockTime": 1573501957,
			"value": "598896040",
			"valueIn": "598908696",
			"fees": "12656",
			"hex": "010000000001017b21b935989ee91da55a6c98d78885c21c2836c42bb6fcc09a9301c708c5fa34010000000000000000028096980000000000160014428a3010eb79c4d32478404200dbd41042e61fce28d71923000000001600146542b8b7859994b18df4b71c72c4a72ed113662e02473044022023b050ed97c4c7e334fec8efa3f27754e65c1e66a60ce142b2f8e2c16a1c847b02204a2e7d8a470a8978735a0b6d0f3649da6489612256f7cacd52e95034cc05365e012102cc9d7c2383e8f7c18e5af1852ddc35c5c4355a262a68b9d499ba173f6200ff9500000000"
		},
		{
			"txid": "303aa433530cb32762f8068ae14022e9a759b6c40bb69cee7e77abca333db317",
			"version": 1,
			"vin": [
				{
					"txid": "d8d05cee8623257853b90cb1b0ff6c8e4bf5509818e812510f6715015fac1599",
					"sequence": 4294967295,
					"n": 0,
					"addresses": [
						"DTVYvQYvoXQjsiZQdvT9AaBjyQJr8TjAWu"
					],
					"isAddress": true,
					"value": "48587940518800",
					"hex": "483045022100de758903643db73bc56bcd6b3e1e4bdafb3bd9b7a844286f66317de7c90b868702207eba0eeb32c817df9e79df2aad5f192808941ccb5d18430f9ee7ea18b8b1abad0121038f47ad4221aa24dbefe2b439f644b3af71428a7eb9e837517a162710fe631cf7"
				}
			],
			"vout": [
				{
					"value": "48585940500900",
					"n": 0,
					"spent": true,
					"hex": "76a914c30c2dd0e7b7f6506259f11e956d0f1085ca437588ac",
					"addresses": [
						"DNvQtshdnrehs8MNRx6Mh9XDPz4UZucfEv"
					],
					"isAddress": true
				},
				{
					"value": "2000000000",
					"n": 1,
					"hex": "00147ad8c91046724785f78b48d4ae606a3556ddf9b4",
					"addresses": [
						"dgb1q0tvvjyzxwfrctautfr22ucr2x4tdm7d5va4lr6"
					],
					"isAddress": true
				}
			],
			"blockHash": "311aa13d66a4cf6be602209601d7b54bc715320d9255d1abc822ad20a7e01a20",
			"blockHeight": 9756845,
			"confirmations": 1068590,
			"blockTime": 1573405513,
			"value": "48587940500900",
			"valueIn": "48587940518800",
			"fees": "17900",
			"hex": "01000000019915ac5f0115670f5112e8189850f54b8e6cffb0b10cb95378252386ee5cd0d8000000006b483045022100de758903643db73bc56bcd6b3e1e4bdafb3bd9b7a844286f66317de7c90b868702207eba0eeb32c817df9e79df2aad5f192808941ccb5d18430f9ee7ea18b8b1abad0121038f47ad4221aa24dbefe2b439f644b3af71428a7eb9e837517a162710fe631cf7ffffffff02a481b94b302c00001976a914c30c2dd0e7b7f6506259f11e956d0f1085ca437588ac00943577000000001600147ad8c91046724785f78b48d4ae606a3556ddf9b400000000"
		},
		{
			"txid": "34fac508c701939ac0fcb62bc436281cc28588d7986c5aa51de99e9835b9217b",
			"version": 1,
			"vin": [
				{
					"txid": "ac7b8ce8ceea74cfc5c9d6f64b9943a1f30747c8b5adad6e6a21bc715efb18e7",
					"vout": 1,
					"n": 0,
					"addresses": [
						"dgb1qakdslehzre7rhfzwea93pkar95f3yxm73lyxp6"
					],
					"isAddress": true,
					"value": "798931522"
				}
			],
			"vout": [
				{
					"value": "200000000",
					"n": 0,
					"spent": true,
					"hex": "0014af765ac1eeb3b4ceb768994474288807d4624b24",
					"addresses": [
						"dgb1q4am94s0wkw6vadmgn9z8g2ygql2xyjeyee6m6d"
					],
					"isAddress": true
				},
				{
					"value": "598908696",
					"n": 1,
					"spent": true,
					"hex": "0014319b0141366578c71ec217d4e4f56b85065164da",
					"addresses": [
						"dgb1qxxdszsfkv4uvw8kzzl2wfatts5r9zex69x6076"
					],
					"isAddress": true
				}
			],
			"blockHash": "9fef191db549b2ce895d1629b69be93d8fcd2eae74497ef43c4f1d13b807fb90",
			"blockHeight": 9755214,
			"confirmations": 1070221,
			"blockTime": 1573381024,
			"value": "798908696",
			"valueIn": "798931522",
			"fees": "22826",
			"hex": "01000000000101e718fb5e71bc216a6eadadb5c84707f3a143994bf6d6c9c5cf74eacee88c7bac0100000000000000000200c2eb0b00000000160014af765ac1eeb3b4ceb768994474288807d4624b24189fb22300000000160014319b0141366578c71ec217d4e4f56b85065164da0247304402205602f6b4d6372eb954a89e9713789f6428ff4b3d023b8831f8e4d07ce51d725d02203c9608b45124b6233090250a59091f426c37d4df3c2563c758dbf95ae072c9ba012102d068173f4ca0b0c388fad24d262737615f0015498c2a09ff952249750d70f48300000000"
		},
		{
			"txid": "ac7b8ce8ceea74cfc5c9d6f64b9943a1f30747c8b5adad6e6a21bc715efb18e7",
			"version": 1,
			"vin": [
				{
					"txid": "e1094c583bfbafe974ec819351a0491e44b6982ac4b37d859cec771df6c6dbe3",
					"vout": 1,
					"n": 0,
					"addresses": [
						"dgb1qw97rz5cr7r3axm64pl9uefmvgw006gpjslsxzd"
					],
					"isAddress": true,
					"value": "898954348"
				}
			],
			"vout": [
				{
					"value": "100000000",
					"n": 0,
					"spent": true,
					"hex": "001406f9f37f7ad63d990c4d3f2ec6276b78acef3805",
					"addresses": [
						"dgb1qqmulxlm66c7ejrzd8uhvvfmt0zkw7wq9u2yd4y"
					],
					"isAddress": true
				},
				{
					"value": "798931522",
					"n": 1,
					"spent": true,
					"hex": "0014ed9b0fe6e21e7c3ba44ecf4b10dba32d13121b7e",
					"addresses": [
						"dgb1qakdslehzre7rhfzwea93pkar95f3yxm73lyxp6"
					],
					"isAddress": true
				}
			],
			"blockHash": "0000000000000008a2e821f32358ac50b7f4856ba09ad0aaad54b8dc6ac21483",
			"blockHeight": 9755127,
			"confirmations": 1070308,
			"blockTime": 1573379763,
			"value": "898931522",
			"valueIn": "898954348",
			"fees": "22826",
			"hex": "01000000000101e3dbc6f61d77ec9c857db3c42a98b6441e49a0519381ec74e9affb3b584c09e10100000000000000000200e1f5050000000016001406f9f37f7ad63d990c4d3f2ec6276b78acef380542ba9e2f00000000160014ed9b0fe6e21e7c3ba44ecf4b10dba32d13121b7e0247304402206f5b728f7489fa8571ee0deb80afd7eb3bb547cd1bd39849814c2d717c5593f302207f3aa1ddf3d49da1da354f6873cf0e2194b3eef685b0cce79be9c1cc4a9a7d2d012103978ec321da1421cf9e871732d06b4fbd15697fb3f0204348aa481b7899a584e600000000"
		},
		{
			"txid": "e1094c583bfbafe974ec819351a0491e44b6982ac4b37d859cec771df6c6dbe3",
			"version": 1,
			"vin": [
				{
					"txid": "76256e4f59a2135e76ea87a513dcafc9803c64cb81848135bcef3fed60abb862",
					"vout": 1,
					"n": 0,
					"addresses": [
						"dgb1qfnzgdpa76576kngxlh2zda0t2r5kh29mjd50l3"
					],
					"isAddress": true,
					"value": "998977174"
				}
			],
			"vout": [
				{
					"value": "100000000",
					"n": 0,
					"spent": true,
					"hex": "76a91497421a26ae55a8c01ba339a0b65ab6a5f935a50488ac",
					"addresses": [
						"DJvsm5mCp4a3YsJXxxiLk9MDWVwvrFDPm3"
					],
					"isAddress": true
				},
				{
					"value": "898954348",
					"n": 1,
					"spent": true,
					"hex": "0014717c315303f0e3d36f550fcbcca76c439efd2032",
					"addresses": [
						"dgb1qw97rz5cr7r3axm64pl9uefmvgw006gpjslsxzd"
					],
					"isAddress": true
				}
			],
			"blockHash": "5b6636f66d6ef37c4281bdf3088e48c9d22ca6c423cabaa18320fc303c861c71",
			"blockHeight": 9755040,
			"confirmations": 1070395,
			"blockTime": 1573378521,
			"value": "998954348",
			"valueIn": "998977174",
			"fees": "22826",
			"hex": "0100000000010162b8ab60ed3fefbc35818481cb643c80c9afdc13a587ea765e13a2594f6e25760100000000000000000200e1f505000000001976a91497421a26ae55a8c01ba339a0b65ab6a5f935a50488ac6cf4943500000000160014717c315303f0e3d36f550fcbcca76c439efd20320248304502210084ebc948a2fa88ca2c893faa160a7f8340fcf057d764c898562206cb97eda44202201e7d790b34b9bdd946b1fbacbae02b5e9add3a2f11d2182cf76e83697c5e88e0012103cb1f31320481fea72f8f5a378578ca440ee2db3ebade1cea6e9ec15ee99c365600000000"
		},
		{
			"txid": "76256e4f59a2135e76ea87a513dcafc9803c64cb81848135bcef3fed60abb862",
			"version": 1,
			"vin": [
				{
					"txid": "96c223272fce4e105cca3f2c9c966742c03f76b07aa5cfca514b890e90c46dc3",
					"vout": 1,
					"n": 0,
					"addresses": [
						"dgb1q0tvvjyzxwfrctautfr22ucr2x4tdm7d5va4lr6"
					],
					"isAddress": true,
					"value": "1000000000"
				}
			],
			"vout": [
				{
					"value": "1000000",
					"n": 0,
					"hex": "0014d1900052a23df4ba9e8c2adf0c7d815adb6de80e",
					"addresses": [
						"dgb1q6xgqq54z8h6t485v9t0sclvpttdkm6qwp4292e"
					],
					"isAddress": true
				},
				{
					"value": "998977174",
					"n": 1,
					"spent": true,
					"hex": "00144cc48687bed53dab4d06fdd426f5eb50e96ba8bb",
					"addresses": [
						"dgb1qfnzgdpa76576kngxlh2zda0t2r5kh29mjd50l3"
					],
					"isAddress": true
				}
			],
			"blockHash": "d8122b3b73b70d8f78bded86562d9fd649b73209681ea5a7d3a0e14fb339e37d",
			"blockHeight": 9755022,
			"confirmations": 1070413,
			"blockTime": 1573378224,
			"value": "999977174",
			"valueIn": "1000000000",
			"fees": "22826",
			"hex": "01000000000101c36dc4900e894b51cacfa57ab0763fc04267969c2c3fca5c104ece2f2723c2960100000000000000000240420f0000000000160014d1900052a23df4ba9e8c2adf0c7d815adb6de80e962e8b3b000000001600144cc48687bed53dab4d06fdd426f5eb50e96ba8bb02483045022100f09aeeb5dd360d691bf729f206fd24fb6aba185388ce387a7c7757bb88aa3cb80220203a4ca385ab6f21cc4606e83d492efb2b0a844294ab63773f5f4f8601cb54ef0121029df0ec50608f69a7e05097f33b731f2d4bf112001d25072f7a8ab065de5985ab00000000"
		},
		{
			"txid": "96c223272fce4e105cca3f2c9c966742c03f76b07aa5cfca514b890e90c46dc3",
			"version": 1,
			"vin": [
				{
					"txid": "ce3d1d4de8c32659bd6329c516fbe348af53823236b4918f3f243d924a872354",
					"vout": 50,
					"sequence": 4294967295,
					"n": 0,
					"addresses": [
						"DJvsm5mCp4a3YsJXxxiLk9MDWVwvrFDPm3"
					],
					"isAddress": true,
					"value": "2936876555",
					"hex": "473044022037c4cfbba57c9a9ac4b728e006e585d8b4422460ee714b21b9e0f9a4bd8dc04e02205ddfdc6dba325229406b57e6622d5f141e9c2dfb704db4e30be2e1e3dc0e16ee012103161f2325217e38461d71745e8652851a90285eb89e4344e48b804f3c943b5433"
				},
				{
					"txid": "ae2e1b22567da28d3a90f6920193cb4b5c3d32b921db80cd2859bc2eaccc0110",
					"sequence": 4294967295,
					"n": 1,
					"addresses": [
						"DJvsm5mCp4a3YsJXxxiLk9MDWVwvrFDPm3"
					],
					"isAddress": true,
					"value": "1000000000",
					"hex": "483045022100f43f677961c5cf4ad9df2351523e64e963f2e34082dde6ff2162e76f3ba2deed0220430bbfae4ee22884011c88db890848f0b880e6e6d3335fc1c93bd13f9a986b19012103161f2325217e38461d71745e8652851a90285eb89e4344e48b804f3c943b5433"
				}
			],
			"vout": [
				{
					"value": "2936875555",
					"n": 0,
					"spent": true,
					"hex": "0014f78aa1ee8590fad304450b732416ecbface4ea6b",
					"addresses": [
						"dgb1q7792rm59jradxpz9pdejg9hvh7kwf6ntd8w0qq"
					],
					"isAddress": true
				},
				{
					"value": "1000000000",
					"n": 1,
					"spent": true,
					"hex": "00147ad8c91046724785f78b48d4ae606a3556ddf9b4",
					"addresses": [
						"dgb1q0tvvjyzxwfrctautfr22ucr2x4tdm7d5va4lr6"
					],
					"isAddress": true
				}
			],
			"blockHash": "102c0f5d2b8ad6db93419fb607127f482e0b2e2809970ee90479eb1158b15669",
			"blockHeight": 9754963,
			"confirmations": 1070472,
			"blockTime": 1573377240,
			"value": "3936875555",
			"valueIn": "3936876555",
			"fees": "1000",
			"hex": "01000000025423874a923d243f8f91b436328253af48e3fb16c52963bd5926c3e84d1d3dce320000006a473044022037c4cfbba57c9a9ac4b728e006e585d8b4422460ee714b21b9e0f9a4bd8dc04e02205ddfdc6dba325229406b57e6622d5f141e9c2dfb704db4e30be2e1e3dc0e16ee012103161f2325217e38461d71745e8652851a90285eb89e4344e48b804f3c943b5433ffffffff1001ccac2ebc5928cd80db21b9323d5c4bcb930192f6903a8da27d56221b2eae000000006b483045022100f43f677961c5cf4ad9df2351523e64e963f2e34082dde6ff2162e76f3ba2deed0220430bbfae4ee22884011c88db890848f0b880e6e6d3335fc1c93bd13f9a986b19012103161f2325217e38461d71745e8652851a90285eb89e4344e48b804f3c943b5433ffffffff02232a0daf00000000160014f78aa1ee8590fad304450b732416ecbface4ea6b00ca9a3b000000001600147ad8c91046724785f78b48d4ae606a3556ddf9b400000000"
		}
	],
	"usedTokens": 8,
	"tokens": [
		{
			"type": "XPUBAddress",
			"name": "dgb1q0tvvjyzxwfrctautfr22ucr2x4tdm7d5va4lr6",
			"path": "m/84'/20'/0'/0/0",
			"transfers": 3,
			"decimals": 8,
			"balance": "2000000000",
			"totalReceived": "3000000000",
			"totalSent": "1000000000"
		},
		{
			"type": "XPUBAddress",
			"name": "dgb1q6xgqq54z8h6t485v9t0sclvpttdkm6qwp4292e",
			"path": "m/84'/20'/0'/0/1",
			"transfers": 1,
			"decimals": 8,
			"balance": "1000000",
			"totalReceived": "1000000",
			"totalSent": "0"
		},
		{
			"type": "XPUBAddress",
			"name": "dgb1qg29rqy8t08zdxfrcgppqpk75zppwv87wknuder",
			"path": "m/84'/20'/0'/0/2",
			"transfers": 1,
			"decimals": 8,
			"balance": "10000000",
			"totalReceived": "10000000",
			"totalSent": "0"
		},
		{
			"type": "XPUBAddress",
			"name": "dgb1qv4pt3du9nx2trr05kuw893989mg3xe3w322vy7",
			"path": "m/84'/20'/0'/1/4",
			"transfers": 1,
			"decimals": 8,
			"balance": "588896040",
			"totalReceived": "588896040",
			"totalSent": "0"
		}
	]
}
