{
	"page": 1,
	"totalPages": 1,
	"itemsOnPage": 1000,
	"address": "QZJbNrGT3cZ1J1AEHtgH3JWM7uLBNAejLZ",
	"balance": "234243932",
	"totalReceived": "43569601542",
	"totalSent": "43335357610",
	"unconfirmedBalance": "0",
	"unconfirmedTxs": 0,
	"txs": 6,
	"transactions": [
		{
			"txid": "fba987ecdac9307827d48776eb808050347b31bbc2ed2dbbc1d957d0c5c5213b",
			"version": 1,
			"vin": [
				{
					"txid": "62438bb658856c3a08b89ca80e199e7031f98956ea86a135f5d6306660230f67",
					"sequence": 4294967294,
					"n": 0,
					"addresses": [
						"QZJbNrGT3cZ1J1AEHtgH3JWM7uLBNAejLZ"
					],
					"isAddress": true,
					"value": "235357610",
					"hex": "48304502210099cd42a938de9b5ab1b5f7770cc99a9b5ab935e63911a13276510e9b1983c107022034f6d45e5ae6ce13b839427b91f2d0d98c7894610d5fe5d7aaa7e1ce2911627e01210317cfe4e8b0e35f4c2c561921fe019910e3ddbe78d500a8ff546cf1843f723764"
				}
			],
			"vout": [
				{
					"value": "1000000",
					"n": 0,
					"hex": "76a914816e451a8afb6753d6617633cc8d9785fd33599c88ac",
					"addresses": [
						"QYQMNjZ7iaJXRJnVAE11MzCFCwre7Fw9qZ"
					],
					"isAddress": true
				},
				{
					"value": "234243932",
					"n": 1,
					"hex": "76a9148b4f969602a4579f9c982e7d30c3a06e2f0cacc888ac",
					"addresses": [
						"QZJbNrGT3cZ1J1AEHtgH3JWM7uLBNAejLZ"
					],
					"isAddress": true
				}
			],
			"blockHash": "bd1c23ed73b801db65cda1e4c576812da2687e6cd71a33d3f03440b15c8d28b3",
			"blockHeight": 602733,
			"confirmations": 4804,
			"blockTime": 1588752224,
			"value": "235243932",
			"valueIn": "235357610",
			"fees": "113678",
			"hex": "0100000001670f23606630d6f535a186ea5689f931709e190ea89cb8083a6c8558b68b4362000000006b48304502210099cd42a938de9b5ab1b5f7770cc99a9b5ab935e63911a13276510e9b1983c107022034f6d45e5ae6ce13b839427b91f2d0d98c7894610d5fe5d7aaa7e1ce2911627e01210317cfe4e8b0e35f4c2c561921fe019910e3ddbe78d500a8ff546cf1843f723764feffffff0240420f00000000001976a914816e451a8afb6753d6617633cc8d9785fd33599c88ac5c47f60d000000001976a9148b4f969602a4579f9c982e7d30c3a06e2f0cacc888ac00000000"
		},
		{
			"txid": "62438bb658856c3a08b89ca80e199e7031f98956ea86a135f5d6306660230f67",
			"version": 1,
			"vin": [
				{
					"txid": "782e18a7b1bf612972e773fd6ccdcbe0c4514c661c31a7942f5dcd4807c5ab68",
					"sequence": 4294967293,
					"n": 0,
					"addresses": [
						"QWLQSMPF5WKAqhXxePJvjUJNjxDHrPCbjB"
					],
					"isAddress": true,
					"value": "100000",
					"hex": "483045022100b660d73ff3bd7cc52d1052b933828cc2bb23b7a94500dff4bf00d5640ff4951702206ac6ecdaf3818dc57d54f8e860bbf212846200ccb2d1a323bf5b59868dcba872012102d7062f4af80f3a31f67c928e141627d807f0641b0bb0d466f4a62ee31230aa1e"
				},
				{
					"txid": "80b7c6bcba625ad4abb69f7e92521a782681e984982408d40ad35a24b3f78297",
					"sequence": 4294967294,
					"n": 1,
					"addresses": [
						"QgqVXuCCN1m4Hfb9HCkrzbgUSkoodKsrVY"
					],
					"isAddress": true,
					"value": "100000",
					"hex": "48304502210090ea4a4aac51d8734ad9ffecf0e5c14be50a8941b8cac6a492c002a0be99e5e102203550b52b7ad546adf8b1e5ed00b7aa755cc296d4bd61004b2ace43bfe0007d17012103692f9ee47370b3a70e8d7b6ac36c705b2d3296bb37c0f02e15158f3a6001ce5b"
				},
				{
					"txid": "9c3a6eb9fa07868a2e59530fe2aa3ea29a21d3818a70343097adbe571ee2f0be",
					"sequence": 4294967292,
					"n": 2,
					"addresses": [
						"QSEXLG5qct47UtMHiXNg2Y27KSDSAEHJp9"
					],
					"isAddress": true,
					"value": "10000000",
					"hex": "473044022055806e0939aa734d296ac364d4edf430bcd4fc15a377d35205362d09f7367d8e02202cc4e691c31ece66abb9adcd20bf8e3f500a2254edaaf2c241529cee670972440121025249520b3d48efd435e6cc30c9af238d054461d51f8beeaf75c4de50a647acbc"
				},
				{
					"txid": "9c3a6eb9fa07868a2e59530fe2aa3ea29a21d3818a70343097adbe571ee2f0be",
					"vout": 1,
					"sequence": 4294967291,
					"n": 3,
					"addresses": [
						"Qfw9Poi2c4gGEkAAuVyG21PsBmNGsmZKFC"
					],
					"isAddress": true,
					"value": "225494620",
					"hex": "483045022100e9d2126507af25eed231d27db52794bf6dc67c33800ebafd99b44b13394e1a2d02206b5abdce728114fa75624cd50d70f3c7da77c5b00433fa306b203e4bfb7d96320121020d708ba820b87e195b5790fa2723033cfec259ce5af4270a431cd7297d7704d3"
				}
			],
			"vout": [
				{
					"value": "235357610",
					"n": 0,
					"spent": true,
					"hex": "76a9148b4f969602a4579f9c982e7d30c3a06e2f0cacc888ac",
					"addresses": [
						"QZJbNrGT3cZ1J1AEHtgH3JWM7uLBNAejLZ"
					],
					"isAddress": true
				}
			],
			"blockHash": "6e71fa96ca29a6e4cbd10defaa4fc69ff09adec45fc666d82afade3f75206cc1",
			"blockHeight": 563426,
			"confirmations": 44111,
			"blockTime": 1583720608,
			"value": "235357610",
			"valueIn": "235694620",
			"fees": "337010",
			"hex": "010000000468abc50748cd5d2f94a7311c664c51c4e0cbcd6cfd73e7722961bfb1a7182e78000000006b483045022100b660d73ff3bd7cc52d1052b933828cc2bb23b7a94500dff4bf00d5640ff4951702206ac6ecdaf3818dc57d54f8e860bbf212846200ccb2d1a323bf5b59868dcba872012102d7062f4af80f3a31f67c928e141627d807f0641b0bb0d466f4a62ee31230aa1efdffffff9782f7b3245ad30ad408249884e98126781a52927e9fb6abd45a62babcc6b780000000006b48304502210090ea4a4aac51d8734ad9ffecf0e5c14be50a8941b8cac6a492c002a0be99e5e102203550b52b7ad546adf8b1e5ed00b7aa755cc296d4bd61004b2ace43bfe0007d17012103692f9ee47370b3a70e8d7b6ac36c705b2d3296bb37c0f02e15158f3a6001ce5bfeffffffbef0e21e57bead973034708a81d3219aa23eaae20f53592e8a8607fab96e3a9c000000006a473044022055806e0939aa734d296ac364d4edf430bcd4fc15a377d35205362d09f7367d8e02202cc4e691c31ece66abb9adcd20bf8e3f500a2254edaaf2c241529cee670972440121025249520b3d48efd435e6cc30c9af238d054461d51f8beeaf75c4de50a647acbcfcffffffbef0e21e57bead973034708a81d3219aa23eaae20f53592e8a8607fab96e3a9c010000006b483045022100e9d2126507af25eed231d27db52794bf6dc67c33800ebafd99b44b13394e1a2d02206b5abdce728114fa75624cd50d70f3c7da77c5b00433fa306b203e4bfb7d96320121020d708ba820b87e195b5790fa2723033cfec259ce5af4270a431cd7297d7704d3fbffffff01aa45070e000000001976a9148b4f969602a4579f9c982e7d30c3a06e2f0cacc888ac00000000"
		},
		{
			"txid": "ef335bef783551cb054acd220555f1588cc4b03c0f47cc0839220c81d3ceb88d",
			"version": 1,
			"vin": [
				{
					"txid": "506d07570d75914d5bd319d591374fb9cd1633f5c8b3cc800387e104298e8a62",
					"vout": 1,
					"sequence": 4294967294,
					"n": 0,
					"addresses": [
						"QfLtauKWxzF6pDf2ceXJe5oqizNHVMBneH"
					],
					"isAddress": true,
					"value": "198984808",
					"hex": "4830450221008676b34896a922ac913b0922319f98ab4bb5223f479c19d62b92f0f187b2759d02204e6c2f57337f9b3ef262e2262b3e04a971635c450fbe4278db8b2b25e5a816540121027f67fba269482ce4eecfbcc31e7acefaf17a8cb3b4f7ccfb5447c71688e1081e"
				},
				{
					"txid": "e22c3e2ea4d285b71a73c41cdbb51f7c75d80b6f473e7f4aade6df5bf8771942",
					"sequence": 4294967292,
					"n": 1,
					"addresses": [
						"QZJbNrGT3cZ1J1AEHtgH3JWM7uLBNAejLZ"
					],
					"isAddress": true,
					"value": "43000000000",
					"hex": "483045022100e33513c3a4251a92af231c1d3e3bec9d13be2289c1fb203cb0096c6c073a8b840220206f696ee4e38da215f0b1e2c9d2005f085b8bb967d030caa70439046df64d4601210317cfe4e8b0e35f4c2c561921fe019910e3ddbe78d500a8ff546cf1843f723764"
				}
			],
			"vout": [
				{
					"value": "43000000000",
					"n": 0,
					"spent": true,
					"hex": "76a91455c89563888363b725aa0ebd8191a2e9ea54474d88ac",
					"addresses": [
						"QURZqPoBfuXXoHDkCHCvhGJa1DP2Ahj1KX"
					],
					"isAddress": true
				},
				{
					"value": "198831468",
					"n": 1,
					"spent": true,
					"hex": "76a914bb29ba1df86d8507e0de32f187fe401cc3817fc388ac",
					"addresses": [
						"QdfcTR3TQHjGHcKLiHmiPLRfVPFRWazJPg"
					],
					"isAddress": true
				}
			],
			"blockHash": "918141389623f4f880b1ba279bb70ee91de6a005e1a9d523d21a66e8c55f0502",
			"blockHeight": 393505,
			"confirmations": 214032,
			"blockTime": 1560879520,
			"value": "43198831468",
			"valueIn": "43198984808",
			"fees": "153340",
			"hex": "0100000002628a8e2904e1870380ccb3c8f53316cdb94f3791d519d35b4d91750d57076d50010000006b4830450221008676b34896a922ac913b0922319f98ab4bb5223f479c19d62b92f0f187b2759d02204e6c2f57337f9b3ef262e2262b3e04a971635c450fbe4278db8b2b25e5a816540121027f67fba269482ce4eecfbcc31e7acefaf17a8cb3b4f7ccfb5447c71688e1081efeffffff421977f85bdfe6ad4a7f3e476f0bd8757c1fb5db1cc4731ab785d2a42e3e2ce2000000006b483045022100e33513c3a4251a92af231c1d3e3bec9d13be2289c1fb203cb0096c6c073a8b840220206f696ee4e38da215f0b1e2c9d2005f085b8bb967d030caa70439046df64d4601210317cfe4e8b0e35f4c2c561921fe019910e3ddbe78d500a8ff546cf1843f723764fcffffff0200eeff020a0000001976a91455c89563888363b725aa0ebd8191a2e9ea54474d88ac6cedd90b000000001976a914bb29ba1df86d8507e0de32f187fe401cc3817fc388ac00000000"
		},
		{
			"txid": "e22c3e2ea4d285b71a73c41cdbb51f7c75d80b6f473e7f4aade6df5bf8771942",
			"version": 1,
			"vin": [
				{
					"txid": "ee3b548dbe40fc15cb48fe297b2fa17f1bfffb5a91836bc25674f23b18156ab4",
					"vout": 1,
					"n": 0,
					"addresses": [
						"QZsgcV5SxtrCxjyP5mXAmVosMKrxbEWFfL"
					],
					"isAddress": true,
					"value": "55000000000",
					"hex": "473044022045cd6c3831cb6c0f33b2e3d05940b8205c6293c96f81cfbccc0c29c631dd2a2e0220263bd13fff18d75d45b15f1102118b28001bde09de38f4c5f9c5c5b6f27781c2012102817713bf5592a19279ed887fe88b04173c3844ecc6adf3f75213734b8cecbda4"
				}
			],
			"vout": [
				{
					"value": "43000000000",
					"n": 0,
					"spent": true,
					"hex": "76a9148b4f969602a4579f9c982e7d30c3a06e2f0cacc888ac",
					"addresses": [
						"QZJbNrGT3cZ1J1AEHtgH3JWM7uLBNAejLZ"
					],
					"isAddress": true
				},
				{
					"value": "11999907792",
					"n": 1,
					"spent": true,
					"hex": "76a914ccdab9a8e80f5c1b7f8eabbc9a8f5a00754d000a88ac",
					"addresses": [
						"QfH9yjB4tEGd8jK1YY4JvXtT5TdaCGX7Rt"
					],
					"isAddress": true
				}
			],
			"blockHash": "ce003cd41af05d06ef406e4798d3d8fc3113ae028336a92e22ea93ab5a73ea4a",
			"blockHeight": 390495,
			"confirmations": 217042,
			"blockTime": 1560449520,
			"value": "54999907792",
			"valueIn": "55000000000",
			"fees": "92208",
			"hex": "0100000001b46a15183bf27456c26b83915afbff1b7fa12f7b29fe48cb15fc40be8d543bee010000006a473044022045cd6c3831cb6c0f33b2e3d05940b8205c6293c96f81cfbccc0c29c631dd2a2e0220263bd13fff18d75d45b15f1102118b28001bde09de38f4c5f9c5c5b6f27781c2012102817713bf5592a19279ed887fe88b04173c3844ecc6adf3f75213734b8cecbda4000000000200eeff020a0000001976a9148b4f969602a4579f9c982e7d30c3a06e2f0cacc888acd00f40cb020000001976a914ccdab9a8e80f5c1b7f8eabbc9a8f5a00754d000a88ac00000000"
		},
		{
			"txid": "1c5aea829cb18e507d3a1eccb99db5744a9ff086ed87cc97d696231954ce7635",
			"version": 1,
			"vin": [
				{
					"txid": "f09b2b7577dbf154f2c027ad8f1bb51e4c9917e809856be513e7b8067f6d888e",
					"sequence": 4294967294,
					"n": 0,
					"addresses": [
						"QZJbNrGT3cZ1J1AEHtgH3JWM7uLBNAejLZ"
					],
					"isAddress": true,
					"value": "100000000",
					"hex": "4730440220009bc2bb9bd0782aa38bfb3e9093d49fdfb31e4067a956adad2f888e9438e06b02206d7c5d60afffdb3685fced33d24ba9a6466a35b3aa933e4b1ffdd6ba8d23d57901210317cfe4e8b0e35f4c2c561921fe019910e3ddbe78d500a8ff546cf1843f723764"
				}
			],
			"vout": [
				{
					"value": "10000000",
					"n": 0,
					"spent": true,
					"hex": "76a9146285651ee6abb6788c39df4ecb89f97345cbfa2588ac",
					"addresses": [
						"QVav8YbUUwQq6yFCrkafW79Uv3NUMHT66n"
					],
					"isAddress": true
				},
				{
					"value": "89780102",
					"n": 1,
					"spent": true,
					"hex": "76a914ca1b74b3ae2a8e655487e131dbb820717c20610e88ac",
					"addresses": [
						"Qf2dViTrEcWm7CawDDoDduzBrgRL3DnFWH"
					],
					"isAddress": true
				}
			],
			"blockHash": "d61a1de7b586fee13bc44cd3ae0fa0392d6d9d75d7d3c7273481dfa2069eb9ab",
			"blockHeight": 369474,
			"confirmations": 238063,
			"blockTime": 1557440448,
			"value": "99780102",
			"valueIn": "100000000",
			"fees": "219898",
			"hex": "01000000018e886d7f06b8e713e56b8509e817994c1eb51b8fad27c0f254f1db77752b9bf0000000006a4730440220009bc2bb9bd0782aa38bfb3e9093d49fdfb31e4067a956adad2f888e9438e06b02206d7c5d60afffdb3685fced33d24ba9a6466a35b3aa933e4b1ffdd6ba8d23d57901210317cfe4e8b0e35f4c2c561921fe019910e3ddbe78d500a8ff546cf1843f723764feffffff0280969800000000001976a9146285651ee6abb6788c39df4ecb89f97345cbfa2588ac86ef5905000000001976a914ca1b74b3ae2a8e655487e131dbb820717c20610e88ac00000000"
		},
		{
			"txid": "f09b2b7577dbf154f2c027ad8f1bb51e4c9917e809856be513e7b8067f6d888e",
			"version": 1,
			"vin": [
				{
					"txid": "3600156226ed9f04379dcf72795542d9b4de9d88b374b82b825497ff92e52830",
					"vout": 1,
					"n": 0,
					"addresses": [
						"QUN6caK4ZEPLEoA3ZMC2oSR2kf6RCfGA9B"
					],
					"isAddress": true,
					"value": "109000000",
					"hex": "483045022100cf97578c211296f9e3aa8e7718c7ec4a6fc240b46c29216f664fd68fdd81ec5202201a27971ba5e52b758a8295c870f037a67f20aab306a264e6249dd4f61705634401210360e37f3d88db15a76ffdb30179fc3a67e0fa320e8c6a82bbd93a8e40af30d963"
				}
			],
			"vout": [
				{
					"value": "100000000",
					"n": 0,
					"spent": true,
					"hex": "76a9148b4f969602a4579f9c982e7d30c3a06e2f0cacc888ac",
					"addresses": [
						"QZJbNrGT3cZ1J1AEHtgH3JWM7uLBNAejLZ"
					],
					"isAddress": true
				},
				{
					"value": "8789820",
					"n": 1,
					"spent": true,
					"hex": "76a91406ee9fbb22cc53a5190b0eddf26ed33d66a6ebfa88ac",
					"addresses": [
						"QMEe2LEsZRLjf4UNuxkgMBHwkMB2zJuWjo"
					],
					"isAddress": true
				}
			],
			"blockHash": "c23063e7715537c96898e8fe956bc45c98e0fb17c415ebdbbbb78f3ba8106494",
			"blockHeight": 367729,
			"confirmations": 239808,
			"blockTime": 1557190080,
			"value": "108789820",
			"valueIn": "109000000",
			"fees": "210180",
			"hex": "01000000013028e592ff9754822bb874b3889ddeb4d942557972cf9d37049fed2662150036010000006b483045022100cf97578c211296f9e3aa8e7718c7ec4a6fc240b46c29216f664fd68fdd81ec5202201a27971ba5e52b758a8295c870f037a67f20aab306a264e6249dd4f61705634401210360e37f3d88db15a76ffdb30179fc3a67e0fa320e8c6a82bbd93a8e40af30d963000000000200e1f505000000001976a9148b4f969602a4579f9c982e7d30c3a06e2f0cacc888ac3c1f8600000000001976a91406ee9fbb22cc53a5190b0eddf26ed33d66a6ebfa88ac00000000"
		}
	]
}
