{
	"page": 1,
	"totalPages": 1,
	"itemsOnPage": 1000,
	"address": "bc1qrfr44n2j4czd5c9txwlnw0yj2h82x9566fglqj",
	"balance": "16245",
	"totalReceived": "92089",
	"totalSent": "75844",
	"unconfirmedBalance": "0",
	"unconfirmedTxs": 0,
	"txs": 13,
	"transactions": [
		{
			"txid": "48554ab85af888894d3f247088fdb8b7fff412612b54f0069f89dda3bd80f0ce",
			"version": 1,
			"vin": [
				{
					"txid": "ffd5f12382137dfc62866694f77405ecb6d4cf2cc286ac66d192f7e842787c0f",
					"sequence": 4294967293,
					"n": 0,
					"addresses": [
						"bc1qhddmnwdqwuvt6zl7auu976scg7rmtpx6amumsd"
					],
					"isAddress": true,
					"value": "3220"
				}
			],
			"vout": [
				{
					"value": "1000",
					"n": 0,
					"hex": "00141a475acd52ae04da60ab33bf373c9255cea3169a",
					"addresses": [
						"bc1qrfr44n2j4czd5c9txwlnw0yj2h82x9566fglqj"
					],
					"isAddress": true
				},
				{
					"value": "1994",
					"n": 1,
					"hex": "0014bb5bb9b9a07718bd0bfeef385f6a184787b584da",
					"addresses": [
						"bc1qhddmnwdqwuvt6zl7auu976scg7rmtpx6amumsd"
					],
					"isAddress": true
				}
			],
			"blockHash": "000000000000000000005e0a9278dcf1a18390c78c27d5f47dc0777772b1e54b",
			"blockHeight": 627865,
			"confirmations": 2356,
			"blockTime": 1587999059,
			"value": "2994",
			"valueIn": "3220",
			"fees": "226",
			"hex": "010000000001010f7c7842e8f792d166ac86c22ccfd4b6ec0574f794668662fc7d138223f1d5ff0000000000fdffffff02e8030000000000001600141a475acd52ae04da60ab33bf373c9255cea3169aca07000000000000160014bb5bb9b9a07718bd0bfeef385f6a184787b584da0247304402203285e50928e3d4f67093bb457fe51b60a9e1981868666d8f79bf272868484f1d02200e7093af7d2d7cb68bc0801587b619c2022f02084fac3902fe93e47977aed6c30121034df96f5dacf5e22fb8611e6863e48f6777c7e96064c81196e23dcefd35017d0e00000000"
		},
		{
			"txid": "36b1e721a25ea3ac2fcc09a92d4ff1e2ae4ed70d593e276806d9a9fd2a901132",
			"version": 1,
			"vin": [
				{
					"txid": "c6a4c82d5c7a342796e7d81237ab399918d3205f791ebc40e63501cac28c32be",
					"vout": 1,
					"n": 0,
					"addresses": [
						"bc1qrfr44n2j4czd5c9txwlnw0yj2h82x9566fglqj"
					],
					"isAddress": true,
					"value": "4829"
				}
			],
			"vout": [
				{
					"value": "1000",
					"n": 0,
					"spent": true,
					"hex": "a9141ba5187259ae22520f99ec3522d320279066aafd87",
					"addresses": [
						"34DBwkzPz6yeqU1LoZLVzdCm91oeyxq37T"
					],
					"isAddress": true
				},
				{
					"value": "2699",
					"n": 1,
					"hex": "00148f347b3ea1ce113b09e096125a3ad3310dd0a947",
					"addresses": [
						"bc1q3u68k04pecgnkz0qjcf95wknxyxap2287gyzrg"
					],
					"isAddress": true
				}
			],
			"blockHash": "0000000000000000000fccc2c78e235d6ea3da4013ea98c8376c7c41f7f71938",
			"blockHeight": 624894,
			"confirmations": 5327,
			"blockTime": 1586299624,
			"value": "3699",
			"valueIn": "4829",
			"fees": "1130",
			"hex": "01000000000101be328cc2ca0135e640bc1e795f20d3189939ab3712d8e79627347a5c2dc8a4c601000000000000000002e80300000000000017a9141ba5187259ae22520f99ec3522d320279066aafd878b0a0000000000001600148f347b3ea1ce113b09e096125a3ad3310dd0a94702483045022100c251d7e2497b42d57ff00c92eeb8a6faa86a3d5d77a9d257b7e464400306fa5502204f532ab553ba711779cf1f93cab47c4f5e0f11dbc6017781c79b76caa6ea322b012102624729d04d58fa33eb3f7be9fe9c307c60aa1bad52f4ffbacc78ba3808faf62500000000"
		},
		{
			"txid": "8180545030fcfb7b14ee90acb01b606c5a68fe1d520bcf140bd0097108c2b7f4",
			"version": 1,
			"vin": [
				{
					"txid": "270a6490cc806d99aa84bb8079b543d9d7a255fc59364890e7a4cb57970daef8",
					"vout": 1,
					"sequence": 4294967294,
					"n": 0,
					"addresses": [
						"bc1q3230a7cqt2drewuza8qff4c4gpt4muy9qyqknw"
					],
					"isAddress": true,
					"value": "1699"
				}
			],
			"vout": [
				{
					"value": "375",
					"n": 0,
					"hex": "00141a475acd52ae04da60ab33bf373c9255cea3169a",
					"addresses": [
						"bc1qrfr44n2j4czd5c9txwlnw0yj2h82x9566fglqj"
					],
					"isAddress": true
				},
				{
					"value": "1098",
					"n": 1,
					"hex": "00141a475acd52ae04da60ab33bf373c9255cea3169a",
					"addresses": [
						"bc1qrfr44n2j4czd5c9txwlnw0yj2h82x9566fglqj"
					],
					"isAddress": true
				}
			],
			"blockHash": "00000000000000000006ff4c09a5e05c4a28dffe54beb7ef0c61f8dd940a951e",
			"blockHeight": 622017,
			"confirmations": 8204,
			"blockTime": 1584485709,
			"value": "1473",
			"valueIn": "1699",
			"fees": "226",
			"hex": "01000000000101f8ae0d9757cba4e790483659fc55a2d7d943b57980bb84aa996d80cc90640a270100000000feffffff0277010000000000001600141a475acd52ae04da60ab33bf373c9255cea3169a4a040000000000001600141a475acd52ae04da60ab33bf373c9255cea3169a024730440220683d9c2b40958fd706623783017300ebbc9b73ce1db571963d9bb40679c3079c02207ee68976e225e1e98d20e66d4d8a498cddf3268d0d7b66827a2ed3ac4330f137012102b7f0cb54c2a6a4da3372fe17d7a07475f575777364633e89dacb39eb1fd5a09c00000000"
		},
		{
			"txid": "c6a4c82d5c7a342796e7d81237ab399918d3205f791ebc40e63501cac28c32be",
			"version": 1,
			"vin": [
				{
					"txid": "d39d78838d5a3c870aa5acdc9e518945bd6ad86af093b38f85c714f790f28c76",
					"vout": 1,
					"n": 0,
					"addresses": [
						"bc1qrfr44n2j4czd5c9txwlnw0yj2h82x9566fglqj"
					],
					"isAddress": true,
					"value": "6055"
				}
			],
			"vout": [
				{
					"value": "1000",
					"n": 0,
					"hex": "00141a475acd52ae04da60ab33bf373c9255cea3169a",
					"addresses": [
						"bc1qrfr44n2j4czd5c9txwlnw0yj2h82x9566fglqj"
					],
					"isAddress": true
				},
				{
					"value": "4829",
					"n": 1,
					"spent": true,
					"hex": "00141a475acd52ae04da60ab33bf373c9255cea3169a",
					"addresses": [
						"bc1qrfr44n2j4czd5c9txwlnw0yj2h82x9566fglqj"
					],
					"isAddress": true
				}
			],
			"blockHash": "00000000000000000006ff4c09a5e05c4a28dffe54beb7ef0c61f8dd940a951e",
			"blockHeight": 622017,
			"confirmations": 8204,
			"blockTime": 1584485709,
			"value": "5829",
			"valueIn": "6055",
			"fees": "226",
			"hex": "01000000000101768cf290f714c7858fb393f06ad86abd4589519edcaca50a873c5a8d83789dd301000000000000000002e8030000000000001600141a475acd52ae04da60ab33bf373c9255cea3169add120000000000001600141a475acd52ae04da60ab33bf373c9255cea3169a02483045022100cb25ac0d9e69ddaaedd49e3a3f9efb218b38bf49c2abf44ff2266bfb941bd3b202206b32cc1337f9a6a176fabadd6aefdf5a95d479e5db856d4e3e8eee7fefc26773012102624729d04d58fa33eb3f7be9fe9c307c60aa1bad52f4ffbacc78ba3808faf62500000000"
		},
		{
			"txid": "d39d78838d5a3c870aa5acdc9e518945bd6ad86af093b38f85c714f790f28c76",
			"version": 1,
			"vin": [
				{
					"txid": "c215e9c6f9533d584effc4d31d08736a0ef4f717b7d42563ebba053f5f3bc1d5",
					"vout": 1,
					"sequence": 4294967287,
					"n": 0,
					"addresses": [
						"bc1qrfr44n2j4czd5c9txwlnw0yj2h82x9566fglqj"
					],
					"isAddress": true,
					"value": "8185"
				}
			],
			"vout": [
				{
					"value": "1000",
					"n": 0,
					"hex": "00141a475acd52ae04da60ab33bf373c9255cea3169a",
					"addresses": [
						"bc1qrfr44n2j4czd5c9txwlnw0yj2h82x9566fglqj"
					],
					"isAddress": true
				},
				{
					"value": "6055",
					"n": 1,
					"spent": true,
					"hex": "00141a475acd52ae04da60ab33bf373c9255cea3169a",
					"addresses": [
						"bc1qrfr44n2j4czd5c9txwlnw0yj2h82x9566fglqj"
					],
					"isAddress": true
				}
			],
			"blockHash": "0000000000000000000ab8b2230f5b63d4d4be1a0aa6b9296cfc09e48c8e42e0",
			"blockHeight": 619385,
			"confirmations": 10836,
			"blockTime": 1582902175,
			"value": "7055",
			"valueIn": "8185",
			"fees": "1130",
			"hex": "01000000000101d5c13b5f3f05baeb6325d4b717f7f40e6a73081dd3c4ff4e583d53f9c6e915c20100000000f7ffffff02e8030000000000001600141a475acd52ae04da60ab33bf373c9255cea3169aa7170000000000001600141a475acd52ae04da60ab33bf373c9255cea3169a024730440220158b0d8c5fb6cb9f60d0af05ce8b63abe934dca8eca380013bc7e8463420810f02207d7e6594586ec8196546e2520b6775c2e8659c8f266acb3b861e99f13cf1b380012102624729d04d58fa33eb3f7be9fe9c307c60aa1bad52f4ffbacc78ba3808faf62500000000"
		},
		{
			"txid": "c215e9c6f9533d584effc4d31d08736a0ef4f717b7d42563ebba053f5f3bc1d5",
			"version": 1,
			"vin": [
				{
					"txid": "1fb8f63b044160a7f918b5db85fa7bed3415848bd733f5827d7ae10cf738b387",
					"sequence": 4294967287,
					"n": 0,
					"addresses": [
						"bc1qrfr44n2j4czd5c9txwlnw0yj2h82x9566fglqj"
					],
					"isAddress": true,
					"value": "10315"
				}
			],
			"vout": [
				{
					"value": "1000",
					"n": 0,
					"hex": "00141a475acd52ae04da60ab33bf373c9255cea3169a",
					"addresses": [
						"bc1qrfr44n2j4czd5c9txwlnw0yj2h82x9566fglqj"
					],
					"isAddress": true
				},
				{
					"value": "8185",
					"n": 1,
					"spent": true,
					"hex": "00141a475acd52ae04da60ab33bf373c9255cea3169a",
					"addresses": [
						"bc1qrfr44n2j4czd5c9txwlnw0yj2h82x9566fglqj"
					],
					"isAddress": true
				}
			],
			"blockHash": "0000000000000000000fc5707f9351bdefada8c42267c9d63baf404268d65ca0",
			"blockHeight": 619383,
			"confirmations": 10838,
			"blockTime": 1582901173,
			"value": "9185",
			"valueIn": "10315",
			"fees": "1130",
			"hex": "0100000000010187b338f70ce17a7d82f533d78b841534ed7bfa85dbb518f9a76041043bf6b81f0000000000f7ffffff02e8030000000000001600141a475acd52ae04da60ab33bf373c9255cea3169af91f0000000000001600141a475acd52ae04da60ab33bf373c9255cea3169a024830450221008e721f8e1ec8c22e2cec8fb2744d451cb11decabd0ed6b8080b5949f8c34ad3c022070815d97c02a3befae53dfceae504bd4495f034afba9e8e1e84595d07d933a60012102624729d04d58fa33eb3f7be9fe9c307c60aa1bad52f4ffbacc78ba3808faf62500000000"
		},
		{
			"txid": "1fb8f63b044160a7f918b5db85fa7bed3415848bd733f5827d7ae10cf738b387",
			"version": 1,
			"vin": [
				{
					"txid": "3eb38e946261c8c7312f02cf72a72ac8d93ede94aa21520fbf06dd9b1f3f4392",
					"vout": 1,
					"n": 0,
					"addresses": [
						"bc1qjar8852c43h73ud79xjluy2e7qce58peymsts8"
					],
					"isAddress": true,
					"value": "194390"
				}
			],
			"vout": [
				{
					"value": "10315",
					"n": 0,
					"spent": true,
					"hex": "00141a475acd52ae04da60ab33bf373c9255cea3169a",
					"addresses": [
						"bc1qrfr44n2j4czd5c9txwlnw0yj2h82x9566fglqj"
					],
					"isAddress": true
				},
				{
					"value": "179781",
					"n": 1,
					"spent": true,
					"hex": "0014974673d158ac6fe8f1be29a5fe1159f0319a1c39",
					"addresses": [
						"bc1qjar8852c43h73ud79xjluy2e7qce58peymsts8"
					],
					"isAddress": true
				}
			],
			"blockHash": "000000000000000000099b3509cf7d55c3c1894f814ab45bdccb32aa2b5e3e46",
			"blockHeight": 616239,
			"confirmations": 13982,
			"blockTime": 1580992887,
			"value": "190096",
			"valueIn": "194390",
			"fees": "4294",
			"hex": "0100000000010192433f1f9bdd06bf0f5221aa94de3ed9c82aa772cf022f31c7c86162948eb33e010000000000000000024b280000000000001600141a475acd52ae04da60ab33bf373c9255cea3169a45be020000000000160014974673d158ac6fe8f1be29a5fe1159f0319a1c3902483045022100a2cb51287dd8fd1e7eb9c48be73cba46ddf75287617c38f68618062c945ecbc802206f357933216b63a4530687223e60900c29d1d0869461d6707d7fa202a3c09d9301210289f9d29f5e11c87d2cdbc213d05b7f2aef0291b89b87e7a6f747461d2f75fd9a00000000"
		},
		{
			"txid": "35caac179d1a85f7c495d9a716d85bb02ed925170fc4716e8b04791acd487419",
			"version": 1,
			"vin": [
				{
					"txid": "45cd3053d5393b2959646d023e1f2fa272d950903ed8b44502db88c9a04325fe",
					"vout": 1,
					"n": 0,
					"addresses": [
						"bc1qs6q3tdsa09dtrwn0ml7d6ser4zdagja23rks6a"
					],
					"isAddress": true,
					"value": "2470973"
				}
			],
			"vout": [
				{
					"value": "10772",
					"n": 0,
					"hex": "00141a475acd52ae04da60ab33bf373c9255cea3169a",
					"addresses": [
						"bc1qrfr44n2j4czd5c9txwlnw0yj2h82x9566fglqj"
					],
					"isAddress": true
				},
				{
					"value": "2455681",
					"n": 1,
					"spent": true,
					"hex": "0014974673d158ac6fe8f1be29a5fe1159f0319a1c39",
					"addresses": [
						"bc1qjar8852c43h73ud79xjluy2e7qce58peymsts8"
					],
					"isAddress": true
				}
			],
			"blockHash": "0000000000000000000fcc2170ca9e17fd26747dd40bbf0388324cb872cd7a72",
			"blockHeight": 615391,
			"confirmations": 14830,
			"blockTime": 1580495311,
			"value": "2466453",
			"valueIn": "2470973",
			"fees": "4520",
			"hex": "01000000000101fe2543a0c988db0245b4d83e9050d972a22f1f3e026d6459293b39d55330cd4501000000000000000002142a0000000000001600141a475acd52ae04da60ab33bf373c9255cea3169a8178250000000000160014974673d158ac6fe8f1be29a5fe1159f0319a1c390247304402207fd1c5f4e69845d67696f6dd3f9160fba8e66edb959742b3836f9d6b51b7ef3e022066940b74c238971d0f826648a2bc4806b88be512b6c2bbb08f95e32bbd1ad52f0121020201a3d7f2d6e0e63a7f73e6dfad80d47acaba509585fb40c3c0f54ed9e2478700000000"
		},
		{
			"txid": "f294afc59e9cf67b50485747c595fcced86d80a3b2783e1df7c0e6189e8a9ecc",
			"version": 1,
			"vin": [
				{
					"txid": "cc6a3c78152df7f1d8976bd1eab82b225e71753f7e0070b387ad39d0da405eb2",
					"vout": 1,
					"sequence": 4294967289,
					"n": 0,
					"addresses": [
						"bc1q37qr7p2swx4d034htxwfps0sp7lsyztxw7wuqz"
					],
					"isAddress": true,
					"value": "3015"
				},
				{
					"txid": "f8a3a4d6a1c6e9d3450330aa69531fa5d4fbbc6756321e535e55019f276d4de1",
					"sequence": 4294967294,
					"n": 1,
					"addresses": [
						"bc1q0gypp968wfjwjll7p5gfpfgtzu5sjezqgqn6df"
					],
					"isAddress": true,
					"value": "3644"
				},
				{
					"txid": "6cb59213f5465c2f8f25fad9c4196291135576c3431dbf1bafffd2d8ae11150b",
					"vout": 1,
					"sequence": 4294967286,
					"n": 2,
					"addresses": [
						"bc1qa64vqxuws7tystf6ssqrmc4qplx6ertk0t5g4n"
					],
					"isAddress": true,
					"value": "3976"
				},
				{
					"txid": "270a6490cc806d99aa84bb8079b543d9d7a255fc59364890e7a4cb57970daef8",
					"sequence": 4294967290,
					"n": 3,
					"addresses": [
						"bc1q08ujs8m9v73hvkgf6ad09r35t8e403creglz2r"
					],
					"isAddress": true,
					"value": "4000"
				},
				{
					"txid": "5c532521086fea144904ecac58fc871fb6e153234434347740c5bd100f5d147a",
					"sequence": 4294967292,
					"n": 4,
					"addresses": [
						"bc1q2lk3mssjhcpde3u0mnj76yqlrf579me7fjt3aq"
					],
					"isAddress": true,
					"value": "5000"
				},
				{
					"txid": "a456760ad81c5ee66919a64f45aa27c089023586da1866a37c062a2f255a492a",
					"sequence": 4294967288,
					"n": 5,
					"addresses": [
						"bc1qt3wcz3w2rmhhuvr34zsf4f07yfnuctasu7cw6f"
					],
					"isAddress": true,
					"value": "5274"
				},
				{
					"txid": "9581050eaba641ff256ec5d9f9bacc22912a1348188e75998f528a3430f69c13",
					"sequence": 4294967285,
					"n": 6,
					"addresses": [
						"bc1qrfr44n2j4czd5c9txwlnw0yj2h82x9566fglqj"
					],
					"isAddress": true,
					"value": "6460"
				},
				{
					"txid": "650dbe3adc3ab3a73a5ce16db694dcd39d755fdd235cb486a7f4168bfaa56e8c",
					"sequence": 4294967291,
					"n": 7,
					"addresses": [
						"bc1q0cgg82lx3dd0u99lrfruwqavdprfkv8kg2gadt"
					],
					"isAddress": true,
					"value": "7000"
				},
				{
					"txid": "88873dc6a720a5652290bf50e526ad8677668039b8912f0f215a1d020ca707a4",
					"sequence": 4294967293,
					"n": 8,
					"addresses": [
						"bc1q2xx9q6rvjfak33rqxe6xefgdeslzdtmgqd3xg5"
					],
					"isAddress": true,
					"value": "7032"
				},
				{
					"txid": "6cb59213f5465c2f8f25fad9c4196291135576c3431dbf1bafffd2d8ae11150b",
					"sequence": 4294967287,
					"n": 9,
					"addresses": [
						"bc1qvcmvtu590a0tchdczqvdswcc6phz2r900u6wa9"
					],
					"isAddress": true,
					"value": "7769"
				}
			],
			"vout": [
				{
					"value": "24214",
					"n": 0,
					"spent": true,
					"hex": "00149fae2063427349e00e0dc0e7e0f31f783ba4aedb",
					"addresses": [
						"bc1qn7hzqc6zwdy7qrsdcrn7pucl0qa6ftkmezxxvx"
					],
					"isAddress": true
				}
			],
			"blockHash": "0000000000000000000a1c05a115781b118c7f0e004b5ea369546bed01b977f8",
			"blockHeight": 594666,
			"confirmations": 35555,
			"blockTime": 1568371428,
			"value": "24214",
			"valueIn": "53170",
			"fees": "28956",
			"hex": "0100000000010ab25e40dad039ad87b370007e3f75715e222bb8ead16b97d8f1f72d15783c6acc0100000000f9ffffffe14d6d279f01555e531e325667bcfbd4a51f5369aa300345d3e9c6a1d6a4a3f80000000000feffffff0b1511aed8d2ffaf1bbf1d43c3765513916219c4d9fa258f2f5c46f51392b56c0100000000f6fffffff8ae0d9757cba4e790483659fc55a2d7d943b57980bb84aa996d80cc90640a270000000000faffffff7a145d0f10bdc540773434442353e1b61f87fc58acec044914ea6f082125535c0000000000fcffffff2a495a252f2a067ca36618da86350289c027aa454fa61969e65e1cd80a7656a40000000000f8ffffff139cf630348a528f99758e1848132a9122ccbaf9d9c56e25ff41a6ab0e0581950000000000f5ffffff8c6ea5fa8b16f4a786b45c23dd5f759dd3dc94b66de15c3aa7b33adc3abe0d650000000000fbffffffa407a70c021d5a210f2f91b83980667786ad26e550bf902265a520a7c63d87880000000000fdffffff0b1511aed8d2ffaf1bbf1d43c3765513916219c4d9fa258f2f5c46f51392b56c0000000000f7ffffff01965e0000000000001600149fae2063427349e00e0dc0e7e0f31f783ba4aedb02473044022061d7db5dbbf9f1f754cd0d0e907b63f5304c400c5acf651fe027ddcbec75d2af022029062c9c03f8763ddda455182a72a5caf55b9bc9995b269681eb72f98f953ce5012103972e1fd42a252e79be06cf3b92f91cad5a95d13109f5f6dd424d76dd315aa59302483045022100dcf1041cbdc17cf50829d7c844f1ce75beb4afcf2c5c3811455ae236fb97ee3502201b172291110dc4eebe42f269f0c1d87653bfdae36f906e77578d923a31197bb7012102cac4dcf0eccebb3b8e5b10a0e10c5e2350a7e2b2c2591f05b0f85511dab482fc02483045022100ae38ed7d6562f76bbd3a235126b4c6d699f79ae1c58c2d8a74df274b30ea36c80220154234175104f61c4784492025a2039ac2425dbf057fa5a6bda35ef6a5c8c92f0121029261525063905ff3ae58f5497c9e4d90c6d54cf68d46e01877a8119691cc399402483045022100ecb8f58190b1b9e899a6bc93ea72e2567bc0068ed611ba52c99fdc6ed99845520220515dc894804fe1ec4f72b521b3574f9e6fc7033a276f4ebe97a7fec36edc042701210261cf39d7fb7f3ab145f553b654164b86917a64078e558d47c30a7a99f3b7212d0247304402203ced2182ffe96eb616722a74fcfd9d764a8be6dc0cac0d6c92a434b4b05efacc0220473c2d8f827c77f112ef1c54f71775a830a96eae2e3312951cb8c5a2eafb972a0121028f029b2c38409e68873ebf07431ffa9e71f9a21104c6cddd694dab3607bcfdd6024730440220439a7dc1dc8c8e1e4cbf5faa8cc3fbfee7dd1f0cb7fe5bd6b92affb5fc36c72602200683851cf073f99714cb261b4303a9b20d7f90ea34ecbbbca941a92e9bf0ad7a01210308c0793b4f8fa2c3c98047003d52b21dcce8be18bb99d0f5576cd60504ac544c024830450221009350786cccc44be8386de5f3742467577264cd0e64972be0932cdcdf9da95c3402206e6b594cea10c829ca84591a32844e8b20db273720f750ee7e0476f5d3ab507f012102624729d04d58fa33eb3f7be9fe9c307c60aa1bad52f4ffbacc78ba3808faf6250247304402205bd49cb94b76d43c77b8d3cd737b5cba931b6c1a788456a1e4c15d3506a5c666022011af4e58f9aba52856df9a6a3b6ee5e8b2e0471801da126d1c06a88fcef6eff2012102bc7a575c577e7a5d1abae2d2755b07e027008b8f15ebf2f43db23a4d49c49bf802473044022003f9353abc8190b0eeb5919e89fa24e365ef53c5f324a5d27a03d2e0f676737502206504198edc4ceeb4303b64d2eef7080c43a8fdad4d4e92382ad1f12930ad563f0121033910ba10b8cb78b3fce0ce1a3810869a25151bd162f1b0d20d54bca5c5e8ceb8024830450221008571e0c9314b2fd6689efc895b34f4c2d127e47c6d73fa9a0a1cebf29088030602205eac86149055d2ade3114cc360c784a9f8be273f04b23668481f31d9e0e2660b01210271b8cf7b1845bb4615c40d9049ecac0ef06e86e9806640743ee1a4dd31f96dd300000000"
		},
		{
			"txid": "9581050eaba641ff256ec5d9f9bacc22912a1348188e75998f528a3430f69c13",
			"version": 1,
			"vin": [
				{
					"txid": "35834d8661b4843a2ba211b436fb7c4286f1128a17a15b09fbb8383b08c88fa3",
					"vout": 1,
					"sequence": 4294967284,
					"n": 0,
					"addresses": [
						"bc1q3gnextg4u9lm9rcctnx8jxdmpdz0wde6hlgtnf"
					],
					"isAddress": true,
					"value": "9194"
				}
			],
			"vout": [
				{
					"value": "6460",
					"n": 0,
					"spent": true,
					"hex": "00141a475acd52ae04da60ab33bf373c9255cea3169a",
					"addresses": [
						"bc1qrfr44n2j4czd5c9txwlnw0yj2h82x9566fglqj"
					],
					"isAddress": true
				},
				{
					"value": "2508",
					"n": 1,
					"spent": true,
					"hex": "00141e20cc5c2865017212ce488e765a598d9362ec8c",
					"addresses": [
						"bc1qrcsvchpgv5qhyykwfz88vkje3kfk9myv4tpxqz"
					],
					"isAddress": true
				}
			],
			"blockHash": "0000000000000000000789219c989d256be1405088da839989d7ef9eb3b0bfa3",
			"blockHeight": 594062,
			"confirmations": 36159,
			"blockTime": 1568068608,
			"value": "8968",
			"valueIn": "9194",
			"fees": "226",
			"hex": "01000000000101a38fc8083b38b8fb095ba1178a12f186427cfb36b411a22b3a84b461864d83350100000000f4ffffff023c190000000000001600141a475acd52ae04da60ab33bf373c9255cea3169acc090000000000001600141e20cc5c2865017212ce488e765a598d9362ec8c02483045022100ef9d266fa275b8bccd3aeb5613c853644c73862e4a58f956ccada4804e34f44c02203a4ccf9562b5dc0fb4f6519c4b54d3c2e0b8da6965ca9356bae06285441e34c701210221a110c08c9ba07f547bcad9b9860b804fe1115490a81478b2bd0fe52d90118d00000000"
		},
		{
			"txid": "a696d7eeffe8cb6469182ed02aa15cb2ca2720c870bd7074cb1fe688c2bda13a",
			"version": 1,
			"vin": [
				{
					"txid": "e6e04f7537399ef74be5522168746ede370f6ffceb44a0fb490fa52462de5e64",
					"sequence": 4294967295,
					"n": 0,
					"addresses": [
						"bc1qrfr44n2j4czd5c9txwlnw0yj2h82x9566fglqj"
					],
					"isAddress": true,
					"value": "10000"
				},
				{
					"txid": "2d0cbc42a2724f3b315e196e6b31ab2188d02e7aaa774e5bb77a1e7c9e70e9fb",
					"sequence": 4294967295,
					"n": 1,
					"addresses": [
						"bc1qrfr44n2j4czd5c9txwlnw0yj2h82x9566fglqj"
					],
					"isAddress": true,
					"value": "30000"
				},
				{
					"txid": "274a5dafacd7290d5b17cafe6e5c4241eaba208f454649b183cf4161a141e56f",
					"sequence": 4294967295,
					"n": 2,
					"addresses": [
						"bc1qhn03cww757mnnlpkdvvfkaydxqygm86nvkm92h"
					],
					"isAddress": true,
					"value": "47433"
				}
			],
			"vout": [
				{
					"value": "78649",
					"n": 0,
					"spent": true,
					"hex": "00147bef09cdf93be69ab9d6c32d37691972592dabdd",
					"addresses": [
						"bc1q00hsnn0e80nf4wwkcvknw6gewfvjm27aadnngl"
					],
					"isAddress": true
				}
			],
			"blockHash": "00000000000000000009636519364378c1db859d41f20f476bca69702360a1fe",
			"blockHeight": 549442,
			"confirmations": 80779,
			"blockTime": 1541806207,
			"value": "78649",
			"valueIn": "87433",
			"fees": "8784",
			"hex": "01000000000103645ede6224a50f49fba044ebfc6f0f37de6e74682152e54bf79e3937754fe0e60000000000fffffffffbe9709e7c1e7ab75b4e77aa7a2ed08821ab316b6e195e313b4f72a242bc0c2d0000000000ffffffff6fe541a16141cf83b14946458f20baea41425c6efeca175b0d29d7acaf5d4a270000000000ffffffff0139330100000000001600147bef09cdf93be69ab9d6c32d37691972592dabdd02473044022043e5606e519fa1ce40b0681c16431221f50385577afb94c464b0e9d6c1d7396b0220584db57b6beb051f574e50ad1517a744aceccb987caec202a144d6a21158e4c9012102624729d04d58fa33eb3f7be9fe9c307c60aa1bad52f4ffbacc78ba3808faf625024830450221009ed7c4fa473f673daed2f593af66fcf00f5ccd5de65e5d9a099ed01dff9fa30b022021a6d12c8098e94284cb9c65ca773facc0d4847ae7dcbc33b4aecc9eb0248e5a012102624729d04d58fa33eb3f7be9fe9c307c60aa1bad52f4ffbacc78ba3808faf6250247304402205f5f0499cb74b68284276c78930856f50aef1abeb3d6bdc5ab7868cdc8bdc9b20220266b52935959c5d9d039f92d5cc6f1cbf88d5fa8c901bdbc33e8f73b9b1ef7be01210250cf3a4de6e4f2aae2c1aba4ea8e3ce32e3f6135e5809b8224fbd112fbe88a5b00000000"
		},
		{
			"txid": "2d0cbc42a2724f3b315e196e6b31ab2188d02e7aaa774e5bb77a1e7c9e70e9fb",
			"version": 1,
			"vin": [
				{
					"txid": "40c5c15eb495b674fefa2f4be74e155ad0b39de4e4189ee10c1322e8013fdfd9",
					"sequence": 4294967295,
					"n": 0,
					"addresses": [
						"18kdgiYf3iMkB12hSp8Vz2u9RAv4342xFd"
					],
					"isAddress": true,
					"value": "50447",
					"hex": "47304402201d17cd9abecee131ddbbdf6c7f7ef13709fdab9c3305a2a05121009821ca4cd10220366192ba41a808f76508abb923aa0914b59dc142ef7fb587e86efd4c13c6a710012103078ee784ae3d00d202ddfcf560137440071a258ee0d5cf5e4e54f91821eed447"
				}
			],
			"vout": [
				{
					"value": "30000",
					"n": 0,
					"spent": true,
					"hex": "00141a475acd52ae04da60ab33bf373c9255cea3169a",
					"addresses": [
						"bc1qrfr44n2j4czd5c9txwlnw0yj2h82x9566fglqj"
					],
					"isAddress": true
				},
				{
					"value": "19047",
					"n": 1,
					"spent": true,
					"hex": "76a9140a8992dfaa275cbca952ec529427cfe90ccf52cb88ac",
					"addresses": [
						"1xiZi5nSPtTfKczArfkqPQfhidt1CHqMu"
					],
					"isAddress": true
				}
			],
			"blockHash": "0000000000000000001bd897b449e61933380ea70285a92027c8d9d801e0f3e0",
			"blockHeight": 549191,
			"confirmations": 81030,
			"blockTime": 1541630955,
			"value": "49047",
			"valueIn": "50447",
			"fees": "1400",
			"hex": "0100000001d9df3f01e822130ce19e18e4e49db3d05a154ee74b2ffafe74b695b45ec1c540000000006a47304402201d17cd9abecee131ddbbdf6c7f7ef13709fdab9c3305a2a05121009821ca4cd10220366192ba41a808f76508abb923aa0914b59dc142ef7fb587e86efd4c13c6a710012103078ee784ae3d00d202ddfcf560137440071a258ee0d5cf5e4e54f91821eed447ffffffff0230750000000000001600141a475acd52ae04da60ab33bf373c9255cea3169a674a0000000000001976a9140a8992dfaa275cbca952ec529427cfe90ccf52cb88ac00000000"
		},
		{
			"txid": "e6e04f7537399ef74be5522168746ede370f6ffceb44a0fb490fa52462de5e64",
			"version": 1,
			"vin": [
				{
					"txid": "b9a34283e300080e7db25153c7fd22514eda0a0af70acde096a1da9ccc7d2d7c",
					"vout": 1,
					"sequence": 4294967295,
					"n": 0,
					"addresses": [
						"bc1quzz2sfdghyhu5g9plm2uz9damh6n5k2dr434q8"
					],
					"isAddress": true,
					"value": "50000"
				}
			],
			"vout": [
				{
					"value": "10000",
					"n": 0,
					"spent": true,
					"hex": "00141a475acd52ae04da60ab33bf373c9255cea3169a",
					"addresses": [
						"bc1qrfr44n2j4czd5c9txwlnw0yj2h82x9566fglqj"
					],
					"isAddress": true
				},
				{
					"value": "36384",
					"n": 1,
					"spent": true,
					"hex": "0014a059d7120d076e2ac132281c21b070b6ec7261a0",
					"addresses": [
						"bc1q5pvawysdqahz4sfj9qwzrvrskmk8ycdqmu35w5"
					],
					"isAddress": true
				}
			],
			"blockHash": "00000000000000000000f2f0f5e24ce5fda01fd2a5d7545a1cd909850951f96f",
			"blockHeight": 549183,
			"confirmations": 81038,
			"blockTime": 1541624396,
			"value": "46384",
			"valueIn": "50000",
			"fees": "3616",
			"hex": "010000000001017c2d7dcc9cdaa196e0cd0af70a0ada4e5122fdc75351b27d0e0800e38342a3b90100000000ffffffff0210270000000000001600141a475acd52ae04da60ab33bf373c9255cea3169a208e000000000000160014a059d7120d076e2ac132281c21b070b6ec7261a0024730440220743b4f5c217b3429101b6213d4aa92922e2960977b3d5e633bb016dada6273a302204e7d588d787845c51bf97cc0a52abaa663a5fb609c275bafbb2cfcd607b1829d01210203389a9e645d4e53a38e449b196b60dfe14ce6e57f814a150d60e912962653bf00000000"
		}
	]
}
