{
	"page": 1,
	"totalPages": 1,
	"itemsOnPage": 1000,
	"address": "ltc1qpm594ntjq6ayqjngf6t9td2dxtey9d7985eept",
	"balance": "1688078",
	"totalReceived": "25679292",
	"totalSent": "23991214",
	"unconfirmedBalance": "0",
	"unconfirmedTxs": 0,
	"txs": 19,
	"transactions": [
		{
			"txid": "bfce02fdd69ec01c08486b75fa5e4a93d82a0e6f346c8eade6437affb0f817b1",
			"version": 1,
			"vin": [
				{
					"txid": "674092ed2b166f0f21ba6287b1df23abb9612e140e77bd52f2885312c69bf867",
					"vout": 1,
					"n": 0,
					"addresses": [
						"ltc1qpm594ntjq6ayqjngf6t9td2dxtey9d7985eept"
					],
					"isAddress": true,
					"value": "788530"
				}
			],
			"vout": [
				{
					"value": "100000",
					"n": 0,
					"hex": "0014ccf05f3bc453f7f66fb48b124bd79690bc309e22",
					"addresses": [
						"ltc1qenc97w7y20mlvma53vfyh4ukjz7rp83zf892wx"
					],
					"isAddress": true
				},
				{
					"value": "688078",
					"n": 1,
					"hex": "00140ee85acd7206ba404a684e9655b54d32f242b7c5",
					"addresses": [
						"ltc1qpm594ntjq6ayqjngf6t9td2dxtey9d7985eept"
					],
					"isAddress": true
				}
			],
			"blockHash": "ae8df4fb9cbbd07375eef217dd25e8b918a1b2746907c23cf4f2e15cd18fccdd",
			"blockHeight": 1804076,
			"confirmations": 36291,
			"blockTime": 1583910871,
			"value": "788078",
			"valueIn": "788530",
			"fees": "452",
			"hex": "0100000000010167f89bc6125388f252bd770e142e61b9ab23dfb18762ba210f6f162bed92406701000000000000000002a086010000000000160014ccf05f3bc453f7f66fb48b124bd79690bc309e22ce7f0a00000000001600140ee85acd7206ba404a684e9655b54d32f242b7c502483045022100a40df50e2b419a35001f40d508e911f36d01497ebe5225dc93c81f53a30452fb022034c086517326be293019c2cbf215d6b9a53aa0ab4a0c2b890a9f1b05e8052aac012102872f9e841a8150ab716574ff897d915f575ed9abe9b4c9426617f6a1d8b3bbd100000000"
		},
		{
			"txid": "674092ed2b166f0f21ba6287b1df23abb9612e140e77bd52f2885312c69bf867",
			"version": 1,
			"vin": [
				{
					"txid": "f8ddc3eca55aa4bffd27b030fc3b35ceb8d503b31a03dafd32df56eec552fe99",
					"vout": 1,
					"sequence": 4294967290,
					"n": 0,
					"addresses": [
						"ltc1qpm594ntjq6ayqjngf6t9td2dxtey9d7985eept"
					],
					"isAddress": true,
					"value": "1788982"
				}
			],
			"vout": [
				{
					"value": "1000000",
					"n": 0,
					"hex": "00140ee85acd7206ba404a684e9655b54d32f242b7c5",
					"addresses": [
						"ltc1qpm594ntjq6ayqjngf6t9td2dxtey9d7985eept"
					],
					"isAddress": true
				},
				{
					"value": "788530",
					"n": 1,
					"spent": true,
					"hex": "00140ee85acd7206ba404a684e9655b54d32f242b7c5",
					"addresses": [
						"ltc1qpm594ntjq6ayqjngf6t9td2dxtey9d7985eept"
					],
					"isAddress": true
				}
			],
			"blockHash": "dd92763dcb8477d8f012e5ec0598ebf3c135a15780d7491754fff40d3d24dd9b",
			"blockHeight": 1803562,
			"confirmations": 36805,
			"blockTime": 1583831802,
			"value": "1788530",
			"valueIn": "1788982",
			"fees": "452",
			"hex": "0100000000010199fe52c5ee56df32fdda031ab303d5b8ce353bfc30b027fdbfa45aa5ecc3ddf80100000000faffffff0240420f00000000001600140ee85acd7206ba404a684e9655b54d32f242b7c532080c00000000001600140ee85acd7206ba404a684e9655b54d32f242b7c502483045022100bbde918ff538468c440424323bbe8ba78eef14d9dde357c8e6496905d540098c02205700d984884edff918f827289898c16ec9ad30344a637ea85dc55f7f836143bd012102872f9e841a8150ab716574ff897d915f575ed9abe9b4c9426617f6a1d8b3bbd100000000"
		},
		{
			"txid": "f8ddc3eca55aa4bffd27b030fc3b35ceb8d503b31a03dafd32df56eec552fe99",
			"version": 1,
			"vin": [
				{
					"txid": "0bc6314b50a192853d09b2ca3ebadea75288bfb66e9b254c8f55ebaa720a7d2f",
					"vout": 1,
					"n": 0,
					"addresses": [
						"ltc1qd0huz2atjj0uyjlcp48ml9tltkzdta7sg8fn89"
					],
					"isAddress": true,
					"value": "1889434"
				}
			],
			"vout": [
				{
					"value": "100000",
					"n": 0,
					"spent": true,
					"hex": "0014e8d0e2bade0aefda201fad8ff5859d743b252a5b",
					"addresses": [
						"ltc1qargw9wk7ptha5gql4k8ltpvawsaj22jmr8cejf"
					],
					"isAddress": true
				},
				{
					"value": "1788982",
					"n": 1,
					"spent": true,
					"hex": "00140ee85acd7206ba404a684e9655b54d32f242b7c5",
					"addresses": [
						"ltc1qpm594ntjq6ayqjngf6t9td2dxtey9d7985eept"
					],
					"isAddress": true
				}
			],
			"blockHash": "c9503e0fe18dd16a8a1e836d08d6966e443fbe79eeb0561f2fb18e5993a0cfec",
			"blockHeight": 1800498,
			"confirmations": 39869,
			"blockTime": 1583384860,
			"value": "1888982",
			"valueIn": "1889434",
			"fees": "452",
			"hex": "010000000001012f7d0a72aaeb558f4c259b6eb6bf8852a7deba3ecab2093d8592a1504b31c60b01000000000000000002a086010000000000160014e8d0e2bade0aefda201fad8ff5859d743b252a5b364c1b00000000001600140ee85acd7206ba404a684e9655b54d32f242b7c502483045022100f6adacde68792f7862ec58b066ed4b521444929d90c163b5eb7b0a3d3e16c133022018f649e6a9cece3dc58fdb09f8cffb5cf9ba64f7a453ae6d82043b3fc65fe8ba01210273a11ff2e056c52a0a10c3b93590f60802ab8a74bf9828ea76ae87885fddfc8d00000000"
		},
		{
			"txid": "fdbf28c741e55f846a0a378e0cf2a7263540f8d24123b658f2beb0bd1b1788f0",
			"version": 1,
			"vin": [
				{
					"txid": "07eb5638d1a2833a7eaea596b0dc8bacd8a51be6f18f8bb8cabd514255acebff",
					"vout": 1,
					"sequence": 4294967294,
					"n": 0,
					"addresses": [
						"ltc1qpm594ntjq6ayqjngf6t9td2dxtey9d7985eept"
					],
					"isAddress": true,
					"value": "96312"
				},
				{
					"txid": "152c3d81f7272c91bd3d880d7b570619ef4141482cbcd62b5556fb00efc2bd94",
					"sequence": 4294967293,
					"n": 1,
					"addresses": [
						"ltc1q5usqkt2x9tnqljy0tss9jqmlvcmakdp4l4rdt5"
					],
					"isAddress": true,
					"value": "400000"
				},
				{
					"txid": "152c3d81f7272c91bd3d880d7b570619ef4141482cbcd62b5556fb00efc2bd94",
					"vout": 1,
					"sequence": 4294967292,
					"n": 2,
					"addresses": [
						"ltc1q69juwlyyyks4ws8rdklldjvdxk3vk6gy9qkn99"
					],
					"isAddress": true,
					"value": "1650696"
				}
			],
			"vout": [
				{
					"value": "1989886",
					"n": 0,
					"spent": true,
					"hex": "001450e07ca8c4f2c7ec53351710013a03251ab5d1d8",
					"addresses": [
						"ltc1q2rs8e2xy7tr7c5e4zugqzwsry5dtt5wcdk4zv9"
					],
					"isAddress": true
				}
			],
			"blockHash": "5977afe7c387c7390498309e29ad71e8daef8c59df5b910cb05a3ae661db0919",
			"blockHeight": 1783073,
			"confirmations": 57294,
			"blockTime": 1580799867,
			"value": "1989886",
			"valueIn": "2147008",
			"fees": "157122",
			"hex": "01000000000103ffebac554251bdcab88b8ff1e61ba5d8ac8bdcb096a5ae7e3a83a2d13856eb070100000000feffffff94bdc2ef00fb56552bd6bc2c484141ef1906577b0d883dbd912c27f7813d2c150000000000fdffffff94bdc2ef00fb56552bd6bc2c484141ef1906577b0d883dbd912c27f7813d2c150100000000fcffffff01fe5c1e000000000016001450e07ca8c4f2c7ec53351710013a03251ab5d1d802473044022015d518ae11502d4c832cde4627372c60fb89293d14f3dd39006445dce3bfe47f02207b97301e3f8b9016a515882072dafba705a4ec5e29f5ae222dbdfd5a6d83c90a012102872f9e841a8150ab716574ff897d915f575ed9abe9b4c9426617f6a1d8b3bbd1024730440220478a6c3144e882f736b7b674d43768636f8d74eec28138d9ea36d05f64634aa402203827a08bb554c930e58178536257eb247a790866a7984fdffe549da7376244f201210262da88bf17e0b0575a3c9efecf7387e6d96fa9039547ac6707219defd321986102473044022053999ec5a5b454c60136144096f55a0de2402addd4a250396884bd00f3763dfe022054812eca7798ed4a4418b166c6a4e3e880cbd93ce41c620b611c35ad1c80735e012103c497991dbbf809288e18c5ab4744d59ab6b0b0bf875d2095267ea373e9837d3400000000"
		},
		{
			"txid": "152c3d81f7272c91bd3d880d7b570619ef4141482cbcd62b5556fb00efc2bd94",
			"version": 1,
			"vin": [
				{
					"txid": "9cad90704b2c24e2300c496398ba66ba216bc1df01851ba8c14fc0da8814a8ec",
					"vout": 1,
					"n": 0,
					"addresses": [
						"ltc1qpm594ntjq6ayqjngf6t9td2dxtey9d7985eept"
					],
					"isAddress": true,
					"value": "2051148"
				}
			],
			"vout": [
				{
					"value": "400000",
					"n": 0,
					"spent": true,
					"hex": "0014a7200b2d462ae60fc88f5c2059037f6637db3435",
					"addresses": [
						"ltc1q5usqkt2x9tnqljy0tss9jqmlvcmakdp4l4rdt5"
					],
					"isAddress": true
				},
				{
					"value": "1650696",
					"n": 1,
					"spent": true,
					"hex": "0014d165c77c8425a15740e36dbff6c98d35a2cb6904",
					"addresses": [
						"ltc1q69juwlyyyks4ws8rdklldjvdxk3vk6gy9qkn99"
					],
					"isAddress": true
				}
			],
			"blockHash": "686ab90a08327f65c4cb5aa4227f3c0c0eb3120e922f6f6a8ba37fd20d6d2a72",
			"blockHeight": 1782650,
			"confirmations": 57717,
			"blockTime": 1580744939,
			"value": "2050696",
			"valueIn": "2051148",
			"fees": "452",
			"hex": "01000000000101eca81488dac04fc1a81b8501dfc16b21ba66ba9863490c30e2242c4b7090ad9c01000000000000000002801a060000000000160014a7200b2d462ae60fc88f5c2059037f6637db34350830190000000000160014d165c77c8425a15740e36dbff6c98d35a2cb690402483045022100e633d87b26da1f508018fdf1c54f9b8bb0813aeb326c17a2622e29dec94f48ce0220123208bd0d13e1c2f16c4d3a450b783ea89211fcb054db2211ed6403335a48f3012102872f9e841a8150ab716574ff897d915f575ed9abe9b4c9426617f6a1d8b3bbd100000000"
		},
		{
			"txid": "9cad90704b2c24e2300c496398ba66ba216bc1df01851ba8c14fc0da8814a8ec",
			"version": 1,
			"vin": [
				{
					"txid": "b784d0389a2450e43ea043567329d0f4e00277ac430bbcedf335d9d85451e088",
					"vout": 1,
					"n": 0,
					"addresses": [
						"ltc1q720spapzfq8j79gal5mg2efcrtv92hvktc8u76"
					],
					"isAddress": true,
					"value": "3051600"
				}
			],
			"vout": [
				{
					"value": "1000000",
					"n": 0,
					"hex": "0014463fec54ea2c7210057b2d6d1972a8aaaf39a543",
					"addresses": [
						"ltc1qgcl7c48293epqptm94k3ju4g42hnnf2r5d4ewq"
					],
					"isAddress": true
				},
				{
					"value": "2051148",
					"n": 1,
					"spent": true,
					"hex": "00140ee85acd7206ba404a684e9655b54d32f242b7c5",
					"addresses": [
						"ltc1qpm594ntjq6ayqjngf6t9td2dxtey9d7985eept"
					],
					"isAddress": true
				}
			],
			"blockHash": "8eccbbf11afd2c3a54f2a5eae52734b37b67df50cbdea00224ad39896e0bf4f7",
			"blockHeight": 1781067,
			"confirmations": 59300,
			"blockTime": 1580515445,
			"value": "3051148",
			"valueIn": "3051600",
			"fees": "452",
			"hex": "0100000000010188e05154d8d935f3edbc0b43ac7702e0f4d029735643a03ee450249a38d084b70100000000000000000240420f0000000000160014463fec54ea2c7210057b2d6d1972a8aaaf39a5434c4c1f00000000001600140ee85acd7206ba404a684e9655b54d32f242b7c5024830450221009f248a6c27f931afca2480a0d9867f77a7ed9d15a1c81aa3f1398c86cd14b02502205b96bc4b1c4dc2b16835acc656203f837c37d389ec65decfe25691e667cc3dfe012103a845425673d8c68211ab69f7de46c81ed2c42e5afbadfe3a6eab971ce5da56fa00000000"
		},
		{
			"txid": "b784d0389a2450e43ea043567329d0f4e00277ac430bbcedf335d9d85451e088",
			"version": 1,
			"vin": [
				{
					"txid": "b1208bcfb49b5fbc3366bf07b0000b884d59ecdbebc25b1a55f91330317603db",
					"vout": 1,
					"n": 0,
					"addresses": [
						"ltc1qpm594ntjq6ayqjngf6t9td2dxtey9d7985eept"
					],
					"isAddress": true,
					"value": "3152052"
				}
			],
			"vout": [
				{
					"value": "100000",
					"n": 0,
					"spent": true,
					"hex": "0014b329897dc74dc8d7fa2a68a366593bf266dcda5c",
					"addresses": [
						"ltc1qkv5cjlw8fhyd0732dz3kvkfm7fndekjurha9ua"
					],
					"isAddress": true
				},
				{
					"value": "3051600",
					"n": 1,
					"spent": true,
					"hex": "0014f29f00f422480f2f151dfd368565381ad8555d96",
					"addresses": [
						"ltc1q720spapzfq8j79gal5mg2efcrtv92hvktc8u76"
					],
					"isAddress": true
				}
			],
			"blockHash": "28f684c412c4394e2da6255567957a493d35a7c7675d8d21a21fab4f3210d772",
			"blockHeight": 1778975,
			"confirmations": 61392,
			"blockTime": 1580198750,
			"value": "3151600",
			"valueIn": "3152052",
			"fees": "452",
			"hex": "01000000000101db0376313013f9551a5bc2ebdbec594d880b00b007bf6633bc5f9bb4cf8b20b101000000000000000002a086010000000000160014b329897dc74dc8d7fa2a68a366593bf266dcda5c50902e0000000000160014f29f00f422480f2f151dfd368565381ad8555d9602483045022100e1af3d8173ca2c4c4ac5c2b1e5b20f7cc736563d67154ab8616cfc4f62c3d1b00220296e9595ad8276765d3f83119cb393c3adc4c2a9fb0ad1cb382d3dc13ad59707012102872f9e841a8150ab716574ff897d915f575ed9abe9b4c9426617f6a1d8b3bbd100000000"
		},
		{
			"txid": "b1208bcfb49b5fbc3366bf07b0000b884d59ecdbebc25b1a55f91330317603db",
			"version": 1,
			"vin": [
				{
					"txid": "a54db30dd54adc3e90a1c5e72b6a5b94992591cbc325adfc28cee55ab5f9dbc0",
					"vout": 1,
					"n": 0,
					"addresses": [
						"ltc1qpm594ntjq6ayqjngf6t9td2dxtey9d7985eept"
					],
					"isAddress": true,
					"value": "3252504"
				}
			],
			"vout": [
				{
					"value": "100000",
					"n": 0,
					"spent": true,
					"hex": "0014b329897dc74dc8d7fa2a68a366593bf266dcda5c",
					"addresses": [
						"ltc1qkv5cjlw8fhyd0732dz3kvkfm7fndekjurha9ua"
					],
					"isAddress": true
				},
				{
					"value": "3152052",
					"n": 1,
					"spent": true,
					"hex": "00140ee85acd7206ba404a684e9655b54d32f242b7c5",
					"addresses": [
						"ltc1qpm594ntjq6ayqjngf6t9td2dxtey9d7985eept"
					],
					"isAddress": true
				}
			],
			"blockHash": "28f684c412c4394e2da6255567957a493d35a7c7675d8d21a21fab4f3210d772",
			"blockHeight": 1778975,
			"confirmations": 61392,
			"blockTime": 1580198750,
			"value": "3252052",
			"valueIn": "3252504",
			"fees": "452",
			"hex": "01000000000101c0dbf9b55ae5ce28fcad25c3cb912599945b6a2be7c5a1903edc4ad50db34da501000000000000000002a086010000000000160014b329897dc74dc8d7fa2a68a366593bf266dcda5cb4183000000000001600140ee85acd7206ba404a684e9655b54d32f242b7c502473044022007410f524d5597d7ffde5ceff733bcbc05d842194c1ed650ba3ac0bcde4f561902201dde5782c6c47fac0d05fde0df0b7862649b6c3d391d61881733e4e0bb8bc0d8012102872f9e841a8150ab716574ff897d915f575ed9abe9b4c9426617f6a1d8b3bbd100000000"
		},
		{
			"txid": "07eb5638d1a2833a7eaea596b0dc8bacd8a51be6f18f8bb8cabd514255acebff",
			"version": 1,
			"vin": [
				{
					"txid": "1d646fc08ce623e25db1ffb2a24edc9047290ed381a17055a3f80af73cb7b5f6",
					"vout": 1,
					"n": 0,
					"addresses": [
						"ltc1qpm594ntjq6ayqjngf6t9td2dxtey9d7985eept"
					],
					"isAddress": true,
					"value": "196764"
				}
			],
			"vout": [
				{
					"value": "100000",
					"n": 0,
					"spent": true,
					"hex": "0014b329897dc74dc8d7fa2a68a366593bf266dcda5c",
					"addresses": [
						"ltc1qkv5cjlw8fhyd0732dz3kvkfm7fndekjurha9ua"
					],
					"isAddress": true
				},
				{
					"value": "96312",
					"n": 1,
					"spent": true,
					"hex": "00140ee85acd7206ba404a684e9655b54d32f242b7c5",
					"addresses": [
						"ltc1qpm594ntjq6ayqjngf6t9td2dxtey9d7985eept"
					],
					"isAddress": true
				}
			],
			"blockHash": "345e8d0e0db46e61a6cac57d6510c8a10aa96d19acc67b77a6f3da46852c534b",
			"blockHeight": 1776086,
			"confirmations": 64281,
			"blockTime": 1579768496,
			"value": "196312",
			"valueIn": "196764",
			"fees": "452",
			"hex": "01000000000101f6b5b73cf70af8a35570a181d30e294790dc4ea2b2ffb15de223e68cc06f641d01000000000000000002a086010000000000160014b329897dc74dc8d7fa2a68a366593bf266dcda5c38780100000000001600140ee85acd7206ba404a684e9655b54d32f242b7c50247304402206245362876d0c13acd72bda09855d4bf9eee7ee0d1c7f623773b9bfe76a93c4d02201be35a5b8bb99c182afeed0bdf35b5b4e235945e8a8e50e8d35ab8176d81567e012102872f9e841a8150ab716574ff897d915f575ed9abe9b4c9426617f6a1d8b3bbd100000000"
		},
		{
			"txid": "1d646fc08ce623e25db1ffb2a24edc9047290ed381a17055a3f80af73cb7b5f6",
			"version": 1,
			"vin": [
				{
					"txid": "b690c2b2d279f79d3f61fc9bdb7a21278b1614844c2131a0decc960e0a7f2168",
					"n": 0,
					"addresses": [
						"ltc1qwna0xhkrevtqmhzvhxk4m04l63wm7dpesz24qw"
					],
					"isAddress": true,
					"value": "299024"
				}
			],
			"vout": [
				{
					"value": "100000",
					"n": 0,
					"spent": true,
					"hex": "0014b329897dc74dc8d7fa2a68a366593bf266dcda5c",
					"addresses": [
						"ltc1qkv5cjlw8fhyd0732dz3kvkfm7fndekjurha9ua"
					],
					"isAddress": true
				},
				{
					"value": "196764",
					"n": 1,
					"spent": true,
					"hex": "00140ee85acd7206ba404a684e9655b54d32f242b7c5",
					"addresses": [
						"ltc1qpm594ntjq6ayqjngf6t9td2dxtey9d7985eept"
					],
					"isAddress": true
				}
			],
			"blockHash": "68bf0fa93887199ced90a5eebf67af0fd93384b329fd1c93b23012ce0876ffcc",
			"blockHeight": 1776080,
			"confirmations": 64287,
			"blockTime": 1579768089,
			"value": "296764",
			"valueIn": "299024",
			"fees": "2260",
			"hex": "0100000000010168217f0a0e96ccdea031214c8414168b27217adb9bfc613f9df779d2b2c290b600000000000000000002a086010000000000160014b329897dc74dc8d7fa2a68a366593bf266dcda5c9c000300000000001600140ee85acd7206ba404a684e9655b54d32f242b7c502483045022100ab047a8d9acfc6dd818d8bee9aadfe2c53fb9991bc7bad81340df1dbce56325502202ab65afb51ec1f1104d95d773770cb4a6b51dc6cc81262a335d7ce51787df89c01210348dec0e7e62b72ba01b63fe25eb12ec8fc1a1e723383eacdc14acda7aef89bc000000000"
		},
		{
			"txid": "a54db30dd54adc3e90a1c5e72b6a5b94992591cbc325adfc28cee55ab5f9dbc0",
			"version": 1,
			"vin": [
				{
					"txid": "002c4890e61f8469c440fb1d3f393a2decedce809f864215b325623ff22c378d",
					"n": 0,
					"addresses": [
						"ltc1qsht40umvdekkehcvhw36f4hr0yrgxkykmeccka"
					],
					"isAddress": true,
					"value": "4252956"
				}
			],
			"vout": [
				{
					"value": "1000000",
					"n": 0,
					"hex": "0014463fec54ea2c7210057b2d6d1972a8aaaf39a543",
					"addresses": [
						"ltc1qgcl7c48293epqptm94k3ju4g42hnnf2r5d4ewq"
					],
					"isAddress": true
				},
				{
					"value": "3252504",
					"n": 1,
					"spent": true,
					"hex": "00140ee85acd7206ba404a684e9655b54d32f242b7c5",
					"addresses": [
						"ltc1qpm594ntjq6ayqjngf6t9td2dxtey9d7985eept"
					],
					"isAddress": true
				}
			],
			"blockHash": "b176f179d76b21969f6f004900f1e507fa75a8514c7808b585e01f85f39adb75",
			"blockHeight": 1775782,
			"confirmations": 64585,
			"blockTime": 1579720477,
			"value": "4252504",
			"valueIn": "4252956",
			"fees": "452",
			"hex": "010000000001018d372cf23f6225b31542869f80ceedec2d3a393f1dfb40c469841fe690482c000000000000000000000240420f0000000000160014463fec54ea2c7210057b2d6d1972a8aaaf39a54318a13100000000001600140ee85acd7206ba404a684e9655b54d32f242b7c50247304402207e77674f7980ac6579ebbdbc9bcb879da5dde0d7a640fda87187886a12f287d0022013f85719f8f187e315a9eda950b052549bbd839a921546b5b5001c138cda460e0121030b262bf5e861190da899d6165f272c51515ffc3371f1a4c2fb1454c9e0f0b17a00000000"
		},
		{
			"txid": "002c4890e61f8469c440fb1d3f393a2decedce809f864215b325623ff22c378d",
			"version": 1,
			"vin": [
				{
					"txid": "a0a06e038a056a901f8661b95912427c758a67846a18c9e5c131bcf28840e25b",
					"n": 0,
					"addresses": [
						"ltc1q80jcymjkypzrmg7t7s77rjtxdlwu95hj24ejl9"
					],
					"isAddress": true,
					"value": "100000"
				},
				{
					"txid": "187e023a2ff48ff513b80f54e1ab11e436a41ee8c7e0da63e3c32a2b33a5d641",
					"vout": 1,
					"n": 1,
					"addresses": [
						"ltc1qpm594ntjq6ayqjngf6t9td2dxtey9d7985eept"
					],
					"isAddress": true,
					"value": "4153636"
				}
			],
			"vout": [
				{
					"value": "4252956",
					"n": 0,
					"spent": true,
					"hex": "001485d757f36c6e6d6cdf0cbba3a4d6e37906835896",
					"addresses": [
						"ltc1qsht40umvdekkehcvhw36f4hr0yrgxkykmeccka"
					],
					"isAddress": true
				}
			],
			"blockHash": "b4c819420647722388529da151021a65f3eba29edec797687ba20276268a153e",
			"blockHeight": 1774980,
			"confirmations": 65387,
			"blockTime": 1579585144,
			"value": "4252956",
			"valueIn": "4253636",
			"fees": "680",
			"hex": "010000000001025be24088f2bc31c1e5c9186a84678a757c421259b961861f906a058a036ea0a000000000000000000041d6a5332b2ac3e363dae0c7e81ea436e411abe1540fb813f58ff42f3a027e18010000000000000000011ce540000000000016001485d757f36c6e6d6cdf0cbba3a4d6e3790683589602483045022100bf9187a8b6e892ed9e6baf688a0b3099298876d5761575e25689a37a91d858430220232c9dd0f3d6ef5c5eff8e4d79ae8fcb3e6449f2de3f508950005a41a6e50aba01210349f5f593538e07d0353a19126148051ac2c3524f2a609d99ddef3f6cf120db9202473044022016f4fffa57e335405d114aaa3c10b14c75bdb496e72cab156efc0701c0fb6fb902200c20e9e61c5033f86a40f340923b22b3986314a017ffb5aba6c257c411ce812a012102872f9e841a8150ab716574ff897d915f575ed9abe9b4c9426617f6a1d8b3bbd100000000"
		},
		{
			"txid": "187e023a2ff48ff513b80f54e1ab11e436a41ee8c7e0da63e3c32a2b33a5d641",
			"version": 1,
			"vin": [
				{
					"txid": "8ec0737898fc47b617e3cbae0bca4051e41dd819bca42d017ff3a2920b3c4509",
					"vout": 1,
					"n": 0,
					"addresses": [
						"ltc1q5fe05r6kcdvtxeegp806p72kyky67394hpmsum"
					],
					"isAddress": true,
					"value": "4254088"
				}
			],
			"vout": [
				{
					"value": "100000",
					"n": 0,
					"spent": true,
					"hex": "0014b329897dc74dc8d7fa2a68a366593bf266dcda5c",
					"addresses": [
						"ltc1qkv5cjlw8fhyd0732dz3kvkfm7fndekjurha9ua"
					],
					"isAddress": true
				},
				{
					"value": "4153636",
					"n": 1,
					"spent": true,
					"hex": "00140ee85acd7206ba404a684e9655b54d32f242b7c5",
					"addresses": [
						"ltc1qpm594ntjq6ayqjngf6t9td2dxtey9d7985eept"
					],
					"isAddress": true
				}
			],
			"blockHash": "98ab28fe0b5983eb1d0f8b416229f45a68428dedeb86ab3955513036f62c6487",
			"blockHeight": 1774979,
			"confirmations": 65388,
			"blockTime": 1579584910,
			"value": "4253636",
			"valueIn": "4254088",
			"fees": "452",
			"hex": "0100000000010109453c0b92a2f37f012da4bc19d81de45140ca0baecbe317b647fc987873c08e01000000000000000002a086010000000000160014b329897dc74dc8d7fa2a68a366593bf266dcda5c24613f00000000001600140ee85acd7206ba404a684e9655b54d32f242b7c5024830450221009a577593c93bf576c25a91efe8fbb6b73a969eb383fab4fbbead2fc3c4689cfd022022036d3dfadbd81c35a2512225da857a6d6d3c4953de21421be9bb2d7f590dfb012102405d626b98304b8f35bf90004894f40f0d54aedef11b46612fed2e82a08640fe00000000"
		},
		{
			"txid": "a0a06e038a056a901f8661b95912427c758a67846a18c9e5c131bcf28840e25b",
			"version": 1,
			"vin": [
				{
					"txid": "c58315f8f640bc758fb550860e6e7c0564f97933d2950f6436146265ac215c9e",
					"n": 0,
					"addresses": [
						"ltc1qpm594ntjq6ayqjngf6t9td2dxtey9d7985eept"
					],
					"isAddress": true,
					"value": "4555444"
				}
			],
			"vout": [
				{
					"value": "100000",
					"n": 0,
					"spent": true,
					"hex": "00143be5826e5620443da3cbf43de1c9666fddc2d2f2",
					"addresses": [
						"ltc1q80jcymjkypzrmg7t7s77rjtxdlwu95hj24ejl9"
					],
					"isAddress": true
				},
				{
					"value": "4454992",
					"n": 1,
					"spent": true,
					"hex": "00142f6288391f29e894b4841a679bf3bffa1a2605dd",
					"addresses": [
						"ltc1q9a3gswgl985ffdyyrfnehuallgdzvpwa9xyu0s"
					],
					"isAddress": true
				}
			],
			"blockHash": "3128d4b4e5faeaa788048f39ae2c11d759b32057f81898b7873314e6bd0af6ea",
			"blockHeight": 1773960,
			"confirmations": 66407,
			"blockTime": 1579432769,
			"value": "4554992",
			"valueIn": "4555444",
			"fees": "452",
			"hex": "010000000001019e5c21ac65621436640f95d23379f964057c6e0e8650b58f75bc40f6f81583c500000000000000000002a0860100000000001600143be5826e5620443da3cbf43de1c9666fddc2d2f250fa4300000000001600142f6288391f29e894b4841a679bf3bffa1a2605dd02483045022100d045b6218596f68e62da33b7ef1e24ffce728b0bdf9645169256fd9b2ea90e8f02207f2170ae269c8f7f5e1c6e4f728056ae8f642f0c41dac76d2bc1ae3b91416ba8012102872f9e841a8150ab716574ff897d915f575ed9abe9b4c9426617f6a1d8b3bbd100000000"
		},
		{
			"txid": "c58315f8f640bc758fb550860e6e7c0564f97933d2950f6436146265ac215c9e",
			"version": 1,
			"vin": [
				{
					"txid": "afcaae3d72a005b3534fd2cceb756584e789a364422c1818cee1cc1a50f65b7b",
					"n": 0,
					"addresses": [
						"ltc1q2j0k8v7aczdajd42g96h7gy4jef63feh77494u"
					],
					"isAddress": true,
					"value": "1000"
				},
				{
					"txid": "afcaae3d72a005b3534fd2cceb756584e789a364422c1818cee1cc1a50f65b7b",
					"vout": 1,
					"n": 1,
					"addresses": [
						"ltc1qctr5lrsrpek4uxhdkyvska86swvdvgdj5m6272"
					],
					"isAddress": true,
					"value": "4555124"
				}
			],
			"vout": [
				{
					"value": "4555444",
					"n": 0,
					"spent": true,
					"hex": "00140ee85acd7206ba404a684e9655b54d32f242b7c5",
					"addresses": [
						"ltc1qpm594ntjq6ayqjngf6t9td2dxtey9d7985eept"
					],
					"isAddress": true
				}
			],
			"blockHash": "85b2d5e43d9707cf230a01445c5a25c273da9fa54926e40a11e27b4c51507be5",
			"blockHeight": 1773954,
			"confirmations": 66413,
			"blockTime": 1579432217,
			"value": "4555444",
			"valueIn": "4556124",
			"fees": "680",
			"hex": "010000000001027b5bf6501acce1ce18182c4264a389e7846575ebccd24f53b305a0723daecaaf0000000000000000007b5bf6501acce1ce18182c4264a389e7846575ebccd24f53b305a0723daecaaf01000000000000000001b4824500000000001600140ee85acd7206ba404a684e9655b54d32f242b7c50247304402206b44554da9ee7b0a5cd15fae67799cee60f9d1237cc85e939597b15c91caa5370220768d26750a4fd7c566282ebd162db24058bc0938d2d2aa8205e2b418c90733d90121023c3c2a4f46b4d9dd305d8e030efd76bee0f22f5794cdb69c761aaa7139d3885b02483045022100a38bd5236acaa978073ce5f6d67cf499b8dbb771cf4bc0b6e4dbfeecb637a1d0022042e076375eb8f4d872e2fa55089a5de2dd5de67ae91d0e621e4998fa4a2eda13012103de91c9cd7f1e0c7b37c997fc6ba9353504d9f283cda1e58cffee627bc1528bf300000000"
		},
		{
			"txid": "a86bec27c5c517f140d69e092c746296dcf2430602edd81bf680890a29b1108b",
			"version": 1,
			"vin": [
				{
					"txid": "8658c06633a538405f4569cf6238641e80fa6fab176797a43c5b26c4fbac9ae8",
					"n": 0,
					"addresses": [
						"ltc1qmpsjljyexwn0dk4myglykyu56x9qkqnkgmpdrl"
					],
					"isAddress": true,
					"value": "10000"
				},
				{
					"txid": "511692fb776631e54f554a419115b975e60ac499f0e084851a1c01408fdf30a1",
					"n": 1,
					"addresses": [
						"ltc1qt7frzf37ndtta78fvmc3a4gphsvths9g4fqufk"
					],
					"isAddress": true,
					"value": "10000"
				},
				{
					"txid": "2f637249f0124fe6153b6489ed4c1f7dd0cd3a2a9889063de193064b720127ef",
					"vout": 1,
					"n": 2,
					"addresses": [
						"ltc1qjzrcnxst987jepzuvmpgesu59zmnv44mjqs48t"
					],
					"isAddress": true,
					"value": "28644"
				},
				{
					"txid": "fbcf72d702ee78a83adf9c5699a45c367eaeb17e151ce4e320da423d8b7430cb",
					"vout": 1,
					"n": 3,
					"addresses": [
						"ltc1q4g6egkjhwr64zptf2pngkn2u3v8wfa8n4fj8wr"
					],
					"isAddress": true,
					"value": "43866"
				},
				{
					"txid": "36734bc826395b278f5dc01f01f98276357660e81ffa27cd531d5db5b52fe621",
					"vout": 1,
					"n": 4,
					"addresses": [
						"ltc1qxtx6ak7s2t3sjxvpvqccl4velnhmwlv0pqegce"
					],
					"isAddress": true,
					"value": "45886"
				},
				{
					"txid": "fbcf72d702ee78a83adf9c5699a45c367eaeb17e151ce4e320da423d8b7430cb",
					"n": 5,
					"addresses": [
						"ltc1qjvqng3u009ek9926eume6vmyu9quc0uy0utcpq"
					],
					"isAddress": true,
					"value": "55682"
				},
				{
					"txid": "36734bc826395b278f5dc01f01f98276357660e81ffa27cd531d5db5b52fe621",
					"n": 6,
					"addresses": [
						"ltc1qpm594ntjq6ayqjngf6t9td2dxtey9d7985eept"
					],
					"isAddress": true,
					"value": "55686"
				},
				{
					"txid": "00395a5ae5dd4a241827e5111df360a00a4823067da5b65b3c8e18a73449e50b",
					"vout": 1,
					"n": 7,
					"addresses": [
						"ltc1qcjnfzmy6n34lqwvmv9j7nsj5dx042kswxjz2v7"
					],
					"isAddress": true,
					"value": "60246"
				},
				{
					"txid": "611c047d6e717414481f7c585b35c08c819f9fcd76f33de53976dcd64b33d6c5",
					"vout": 1,
					"n": 8,
					"addresses": [
						"ltc1q7tz7p6g5gpgvnxg0t7glahl5ufg6fnq2q0uq4q"
					],
					"isAddress": true,
					"value": "82209"
				},
				{
					"txid": "ed2998bdab40da72b51c3e9c41e5363cfa344a0a066b4c5fbb9cc6d5848c6470",
					"n": 9,
					"addresses": [
						"ltc1qvetv0ghlrzf520d9hh508vwu273whxxlu8ln4v"
					],
					"isAddress": true,
					"value": "98244"
				},
				{
					"txid": "f9d23fa8e27ac9becc0a7087155478f1669b75b86f66e981c7ab44edecf41f82",
					"vout": 1,
					"n": 10,
					"addresses": [
						"ltc1q9gsu5fdspttjq9wwnezjr43kd0luhqn329d0n9"
					],
					"isAddress": true,
					"value": "99548"
				},
				{
					"txid": "daca8142ff4e5bc58d6b61c91f7587cf57311e0aeef912b98e603b350a0116d1",
					"n": 11,
					"addresses": [
						"ltc1q8q9l9sjkdg840zgmf0egfaw5ndv4wxtwfck8d3"
					],
					"isAddress": true,
					"value": "100000"
				},
				{
					"txid": "00395a5ae5dd4a241827e5111df360a00a4823067da5b65b3c8e18a73449e50b",
					"n": 12,
					"addresses": [
						"ltc1qt84md3dmkwks35lawgwha95vmvvk8vhmfl98de"
					],
					"isAddress": true,
					"value": "100000"
				},
				{
					"txid": "f9d23fa8e27ac9becc0a7087155478f1669b75b86f66e981c7ab44edecf41f82",
					"n": 13,
					"addresses": [
						"ltc1qsjkccjvfzk9uewq9k9ckk3ar5ka4gp46vzwlt3"
					],
					"isAddress": true,
					"value": "100000"
				},
				{
					"txid": "644a3be94f70d3976796163fdef4c60ad1dc0e7ed8f1cee5d111e45fe2fa9189",
					"vout": 1,
					"n": 14,
					"addresses": [
						"ltc1q3yq785557a33dhjzp59jrkkaujn0afsrguetcp"
					],
					"isAddress": true,
					"value": "188048"
				},
				{
					"txid": "4fe68a083656b6fae2d7fa623264698ce48f34ec37357c9177556b20b7dbe77c",
					"n": 15,
					"addresses": [
						"ltc1qpr6qvgwr4uv0tka9p5zx7gyhf88gam99xkhsn4"
					],
					"isAddress": true,
					"value": "288550"
				},
				{
					"txid": "9013075bc9ff19f7f23f8010585983bca5d602c6ed80e48ffe659de97246344c",
					"n": 16,
					"addresses": [
						"ltc1qjz0ent2u5xgsah9ar6zfm0e280g84yaw3060ze"
					],
					"isAddress": true,
					"value": "300000"
				},
				{
					"txid": "9e257fe060539ab61dd6285ffb6663035e4c74bc2a4269bea49688249a4a9672",
					"vout": 1,
					"n": 17,
					"addresses": [
						"ltc1q4qsmvmhnvg5kf84syx3fxdyptfr0h7w7uf2et2"
					],
					"isAddress": true,
					"value": "543134"
				},
				{
					"txid": "ce9c46df8ef5fba0a385f71e89c2eab29f1b25cda0d257c4e3abb2da5259b83b",
					"vout": 1,
					"n": 18,
					"addresses": [
						"ltc1q2vez3w9f7c0q4yreehjkmva8pv60uy77z69vm5"
					],
					"isAddress": true,
					"value": "667304"
				},
				{
					"txid": "574894f61396adb14b974031efda701829f0a91106bdd4745f7acd6a59b79563",
					"n": 19,
					"addresses": [
						"ltc1q3dq4vhjezkst2gtztw7a25z9jsmnzktc7jgcth"
					],
					"isAddress": true,
					"value": "690743"
				},
				{
					"txid": "b8fd90d4be97d54c8d737180ce405cf2293f54cc5000a34f11c13f889d2352d0",
					"n": 20,
					"addresses": [
						"ltc1q3hhcu482usaq66rzesdpdzne0wq54p3r7rknr2"
					],
					"isAddress": true,
					"value": "1000000"
				},
				{
					"txid": "d4f13258ac3595da242a83856dd3324522507a7f2a06b4c3c4829a570aa1990e",
					"n": 21,
					"addresses": [
						"ltc1qp96jhevfs75rlp34nxaanyxwn9mtgx5g0j896g"
					],
					"isAddress": true,
					"value": "1000000"
				}
			],
			"vout": [
				{
					"value": "5561190",
					"n": 0,
					"spent": true,
					"hex": "001474f62cc6a965d238623efd3868c2385eeb97aaba",
					"addresses": [
						"ltc1qwnmze34fvhfrsc37l5ux3s3ctm4e0246w7lfy9"
					],
					"isAddress": true
				}
			],
			"blockHash": "117bee1c7f2980b29cbcaf541f5b53a4f42f4ea34a4154e93744c713442a1c51",
			"blockHeight": 1701667,
			"confirmations": 138700,
			"blockTime": 1568367063,
			"value": "5561190",
			"valueIn": "5567790",
			"fees": "6600",
			"hex": "01000000000116e89aacfbc4265b3ca4976717ab6ffa801e643862cf69455f4038a53366c05886000000000000000000a130df8f40011c1a8584e0f099c40ae675b91591414a554fe5316677fb921651000000000000000000ef2701724b0693e13d0689982a3acdd07d1f4ced89643b15e64f12f04972632f010000000000000000cb30748b3d42da20e3e41c157eb1ae7e365ca499569cdf3aa878ee02d772cffb01000000000000000021e62fb5b55d1d53cd27fa1fe86076357682f9011fc05d8f275b3926c84b7336010000000000000000cb30748b3d42da20e3e41c157eb1ae7e365ca499569cdf3aa878ee02d772cffb00000000000000000021e62fb5b55d1d53cd27fa1fe86076357682f9011fc05d8f275b3926c84b73360000000000000000000be54934a7188e3c5bb6a57d0623480aa060f31d11e52718244adde55a5a3900010000000000000000c5d6334bd6dc7639e53df376cd9f9f818cc0355b587c1f481474716e7d041c6101000000000000000070648c84d5c69cbb5f4c6b060a4a34fa3c36e5419c3e1cb572da40abbd9829ed000000000000000000821ff4eced44abc781e9666fb8759b66f178541587700accbec97ae2a83fd2f9010000000000000000d116010a353b608eb912f9ee0a1e3157cf87751fc9616b8dc55b4eff4281cada0000000000000000000be54934a7188e3c5bb6a57d0623480aa060f31d11e52718244adde55a5a3900000000000000000000821ff4eced44abc781e9666fb8759b66f178541587700accbec97ae2a83fd2f90000000000000000008991fae25fe411d1e5cef1d87e0edcd10ac6f4de3f16966797d3704fe93b4a640100000000000000007ce7dbb7206b5577917c3537ec348fe48c69643262fad7e2fab65636088ae64f0000000000000000004c344672e99d65fe8fe480edc602d6a5bc83595810803ff2f719ffc95b07139000000000000000000072964a9a248896a4be69422abc744c5e036366fb5f28d61db69a5360e07f259e0100000000000000003bb85952dab2abe3c457d2a0cd251b9fb2eac2891ef785a3a0fbf58edf469cce0100000000000000006395b7596acd7a5f74d4bd0611a9f0291870daef3140974bb1ad9613f6944857000000000000000000d052239d883fc1114fa30050cc543f29f25c40ce8071738d4cd597bed490fdb80000000000000000000e99a10a579a82c4c3b4062a7f7a50224532d36d85832a24da9535ac5832f1d40000000000000000000166db54000000000016001474f62cc6a965d238623efd3868c2385eeb97aaba0247304402203bf6ab7ea29cb1ca9e80555f07e5fea03941236db0e7eda0629126c22ec56eaf0220552aa5f962a8876ac74a5242b622668027f8f7417ae88032356d3b15c642668f012102b65d85bcfb9aadc1fe3b40fb79e8b52f096da4e588d2f9174a773d894e98c6fe02483045022100eb01bf49b1330223f00d03db4490a3d1fc09f5e25d8fa9e10805d782568483c902204e05f06f1184b63a2acc76ee6c0e16989329780aa3c1f9c981671c0b1400634e0121024657d84015314cec7322f9fba0137062cc5befd1c453f06a45ef9b254f95e4710247304402206f981a9fbb7805823a05156d0eb4d360f97151f8f56cf9c12d2ca5a4e32e758b022012ff0eee5a39b6f27188b639afc2dec45b40e3d87ae4f381b28af1b49bcdfd7e012103824fe9af295ce51dcf812e27162d346f2a278ac024610c184780d28989b896460247304402206e1818d244b9cddb31c20a2dfa55df18b66ed2b88c1dedf4fa842042c8b0760e022006c379842cb494a03c1cdb47a6a9e476854539e32954323fe7d550b81cdb0b970121021d27a125a6539b9c4f0a9c7be2b4ecb768603fb82559f971053d688184d84d5c02483045022100a5257c7fa40dc8e7f041ce6834b1ca2fd9db6a5e24d8e9bf4bc62dfe5175fd1202202a11909b2627c381bc56504c6bea08ed2a87fde1bd89b46b784f1787a8c65898012102fa952e151f9b7ce62774b428f0c65703955d3e9e82f6b8b06151b11ac5e6b9db02473044022018448ce769628b90c39047a8d98d622039882f3c68bf400a408cef14277244c1022065ca98159288b3967e47d6b76f04cb79aa86ad850ebfc8d6576837e7efa9eece01210255fc01e2aeb3f3d3d25dff9c8cbf5f722bb93c152d4646d01ef34ef7f041806102483045022100d42037c4feb57200e4ed4723f0f0f9150f2f3882491e9b086caedb8452ffde530220167d68970905568e3dab926a96cbfe94b01dd886902ef9895c3f332be890eb8f012102872f9e841a8150ab716574ff897d915f575ed9abe9b4c9426617f6a1d8b3bbd102473044022067cbaa14c80f6ce2af43dcea8e50f162d64bd9d73d788dee5ec8aa0b3669dc7402206cc30081ef3a7a25d3386c8338a16c8ccbc84756885c5077a264245f5fefc83a012103f4ae1b4010e52d142ef2c07e2e1b14d716f8d29ea507127fe7ca59a4398c65460247304402205d7e19f44e23c03656a8c9c54c29a57248886a8217f1f9d5b341ca8382caf67902204c155a398b900d4fe9b8f06549dc0e81a0bd36bbd43e7943841c66280b0217220121021137293acd25f8494a6c5d585f113d96aa91cae982818a0aed862108f3552e470247304402206633b5bcf7357bde337cad546e844beb6145199a2762b842b623e519ea49a469022041dc087919d48c3f36be4cf8d065a9645ef61d179f7ddc5ec171991f5f99a43b0121030a7bd368800f5fcb0cd3691aae72cc10ae18d19418b1e9f340cedf447ae3c5020247304402207e524f9adc38f317002682c10a0fcf59f025b2e49da7f5dab447fc738c5a23f402202bb18a495da49203de0e36cf2416d0f10a3a39355abaaac643c2e756126ae46601210208c5e94833465331e6f6a4dba0bc93b9e486a1012e11a38fe5fc76c5b16ec21f0247304402205f7f65fc707468e9a21fb4be7ce4ed5d757c1a1eeef6147f8827c8ef8bd638af02204e33f0a5a84d641c2e921abcc3d64d27314ea4a5bfea9aee36e76ce67c3757dc0121033af85cca3c0a341068b0900a098d5a1c1ecda1dac67db6b457b65937fde93cfe0247304402201bba3c382c5c3298231b79fce8eb3c31473a95b8602ce89d03f317edea03d83102206de06bdfc5a0adbf0fd3700c5b3ce1e764be19d92d8269b8b340835218e81658012103f6c4ec9154083c6f4a82fabaf3253d87b61e64ad1023e5ffe3003e3ee92ba2cb0247304402202fbf0503733fdc01e7fb87902e0d144583aabc6bbb03dda71c251a8abc5f21eb022052dd70bb3caf32f7f9a9efb2a5008124b1494aa1e215828fd2c5039e3d28a8e10121028745fd18d99f19ea79f45dede4ff4297396d39464086a9e58f3100c6efcb8179024730440220662f7285e89d56c31429a39f5a68414529824c7e827d99ef2420e24a180604fa022078d9f263b636f4414dc190ee0a7b4a54f103abdefcc228874014c09fd9d72eae012102440f980c9746170db2a5aac6eed16f68bb0f83d2e4e7cfe953a025ac6e414e910247304402201ad5d8cb11d9ca2896509d99eef6496694920e6dd4c1804a8cd846da194d209a02201a4d6e635c6b23100272b4207ed77eeb45f8aa8dcd90801386432d6746f0acdf012103ad66203dc92d5b81773f332bc2c8bdfd3b27d90d359a21a8141407512f011f4502483045022100c1a82aa837704b975ed12785e9a33a4ec6f0d1a9131e17b6f28aaef8eb187a98022069e197cecff059133816c9e228c74242211a20a59aed646d3c12dcbcb48350cf012102c955da9410883590a79358485867ba6e3f53ea8d456873fc8d6f0b3b3fa6bc3402483045022100e4c0e7b2861c41e67b100e6c3c7a42a45ec7df9f276afcb60098b409e4677c7802207feb60ce5261b1d59818de0394e9492268b83d263da600fc9147f415fa6b652101210252127d906aa59a02d2fb617d7ff0789ce1e08b4bfea250575da50183963f56cd02473044022013b37a47a7b712569ad2db5016b81bc8ed308a1ef1e84a81326891b5fcbddb5402203574f470584185218dab0e8d9a634cd5c1f359ced78f36f4146ada86799dae360121037f0980f1dd44fe36db1cea51042ba40e88325e3792da02b2b5a6b246ca5862ab0248304502210080a2378ba9ad0738028994e1d6aa4c57405e0c7867bdb0cca578cc815ac1cd9e022020bd9a779cba23f9e6f2922ba70741b9403913d6ddc49df5c0a2544eb9a14f2c012103d37a0609c9ddbb8105e89c125f3531316322c2d9410b52512cf93a0076bdad180247304402200305f95ed6e310e12765c278f223cfef463954df9119bf2bdff357c558e856b5022019903dc65a8f3d267e56e009b85e63e86de05baebdb804f4538b753695491fec01210202f6bb1a32dd40d63f0e40a986b40bc316d69ccbf613b0e9e3f8f81e4afda63302483045022100f1e59775253a28a7f9483889d03a24216a2cd26f7a2ef4f27aa8a87b0acae11202204cb1d53dc9af89e6e4f03df16f74ef4db12ab451e616e0b2c0d745d310f93c0c0121023f82a1cb6dc690a0663518cd8f37de0b0ffc2d6701965f36e1fc6593a362266900000000"
		},
		{
			"txid": "36734bc826395b278f5dc01f01f98276357660e81ffa27cd531d5db5b52fe621",
			"version": 1,
			"vin": [
				{
					"txid": "daca8142ff4e5bc58d6b61c91f7587cf57311e0aeef912b98e603b350a0116d1",
					"vout": 1,
					"sequence": 4294967289,
					"n": 0,
					"addresses": [
						"ltc1q54pcpg2fcnd4c4gwqc6uw30mjgnt086yxtfjpt"
					],
					"isAddress": true,
					"value": "102024"
				}
			],
			"vout": [
				{
					"value": "55686",
					"n": 0,
					"spent": true,
					"hex": "00140ee85acd7206ba404a684e9655b54d32f242b7c5",
					"addresses": [
						"ltc1qpm594ntjq6ayqjngf6t9td2dxtey9d7985eept"
					],
					"isAddress": true
				},
				{
					"value": "45886",
					"n": 1,
					"spent": true,
					"hex": "001432cdaedbd052e309198160318fd599fcefb77d8f",
					"addresses": [
						"ltc1qxtx6ak7s2t3sjxvpvqccl4velnhmwlv0pqegce"
					],
					"isAddress": true
				}
			],
			"blockHash": "f6312bc43fb69c100c3faf23c9977760e1fa3932fe6f03762c62c1e38758ec19",
			"blockHeight": 1699469,
			"confirmations": 140898,
			"blockTime": 1568043854,
			"value": "101572",
			"valueIn": "102024",
			"fees": "452",
			"hex": "01000000000101d116010a353b608eb912f9ee0a1e3157cf87751fc9616b8dc55b4eff4281cada0100000000f9ffffff0286d90000000000001600140ee85acd7206ba404a684e9655b54d32f242b7c53eb300000000000016001432cdaedbd052e309198160318fd599fcefb77d8f02473044022076533ef6060c6f92c25aa5c2f1e1cfeb9e215226518913a6cc6e2622fadf6827022078319b8fd96785034797693c0c5a8aae1504287bba2d39ad7c3d1e78d6b1aa9c01210341bc7668f0c3f15a6e227788f2654d3c9178ef0d9e7ec90312c2dcb6ff43295c00000000"
		},
		{
			"txid": "bf7e50d2556f5557756c52a7ccdd5349850a0552de043c96bf38dee05b9fcdcc",
			"version": 1,
			"vin": [
				{
					"txid": "054685957c82eec4a729919809ca880e093d27d50d5fc364b6bc4000a66c62d8",
					"sequence": 4294967295,
					"n": 0,
					"addresses": [
						"ltc1qpm594ntjq6ayqjngf6t9td2dxtey9d7985eept"
					],
					"isAddress": true,
					"value": "3900156"
				}
			],
			"vout": [
				{
					"value": "100000",
					"n": 0,
					"spent": true,
					"hex": "00142b12c909673ca18b4f0e6a5eb7381e03aa94064a",
					"addresses": [
						"ltc1q9vfvjzt88jsckncwdf0twwq7qw4fgpj2uf2jht"
					],
					"isAddress": true
				},
				{
					"value": "3799704",
					"n": 1,
					"spent": true,
					"hex": "0014260483f197a26a803ee8a57ef587bafeb74c8dbd",
					"addresses": [
						"ltc1qyczg8uvh5f4gq0hg54l0tpa6l6m5erda6tw5jh"
					],
					"isAddress": true
				}
			],
			"blockHash": "b54f669d59620ffb17a13e841bd4addcff223b8bd9a73ff10ff3e0b9b5a9dfaa",
			"blockHeight": 1539785,
			"confirmations": 300582,
			"blockTime": 1544245351,
			"value": "3899704",
			"valueIn": "3900156",
			"fees": "452",
			"hex": "01000000000101d8626ca60040bcb664c35f0dd5273d090e88ca09989129a7c4ee827c958546050000000000ffffffff02a0860100000000001600142b12c909673ca18b4f0e6a5eb7381e03aa94064a98fa390000000000160014260483f197a26a803ee8a57ef587bafeb74c8dbd02483045022100b1fc6e52f4f462eb96ec396de56e6ea1b9bb67ceb5e447711907d1d08e78dd9702200b278ac4700ff295261d05b461984aa3ea04de118605866de12883adb52312e6012102872f9e841a8150ab716574ff897d915f575ed9abe9b4c9426617f6a1d8b3bbd100000000"
		},
		{
			"txid": "054685957c82eec4a729919809ca880e093d27d50d5fc364b6bc4000a66c62d8",
			"version": 1,
			"vin": [
				{
					"txid": "cf7ed8eb0b830868632072293de303d6d90ee240e80c104414b3ffeed4332e83",
					"vout": 14,
					"sequence": 4294967295,
					"n": 0,
					"addresses": [
						"MWceeqZHxJBj4UJCebKfnb1ie5akap9xsf"
					],
					"isAddress": true,
					"value": "5000000",
					"hex": "160014c21653fb1b3d73b9b2aff9459a459e770adcc0d2"
				}
			],
			"vout": [
				{
					"value": "3900156",
					"n": 0,
					"spent": true,
					"hex": "00140ee85acd7206ba404a684e9655b54d32f242b7c5",
					"addresses": [
						"ltc1qpm594ntjq6ayqjngf6t9td2dxtey9d7985eept"
					],
					"isAddress": true
				},
				{
					"value": "1099342",
					"n": 1,
					"spent": true,
					"hex": "0014f26491d75185515cfb1d64a88eba8f3b48789137",
					"addresses": [
						"ltc1q7fjfr463s4g4e7cavj5gaw508dy83yfhx7vgpw"
					],
					"isAddress": true
				}
			],
			"blockHash": "9d5f9faba06cda333e32fb2fdc82daefeb65991417f2cebea25dabe51cd68ce6",
			"blockHeight": 1539738,
			"confirmations": 300629,
			"blockTime": 1544237458,
			"value": "4999498",
			"valueIn": "5000000",
			"fees": "502",
			"hex": "01000000000101832e33d4eeffb31444100ce840e20ed9d603e33d297220636808830bebd87ecf0e00000017160014c21653fb1b3d73b9b2aff9459a459e770adcc0d2ffffffff02fc823b00000000001600140ee85acd7206ba404a684e9655b54d32f242b7c54ec6100000000000160014f26491d75185515cfb1d64a88eba8f3b487891370247304402202c339116fc96796f40d8ead3ad7be4c26861b7b0a493ea4c4945b0fc4465c2ec02203055725efedbe971405671a6c148991e16b2e212c37ac02cc764881028b725690121029bbbd9e73d00bd5cb95e29077f17746cac5caa8abb7e23939a00ac18f1d8b99d00000000"
		}
	]
}
