{"page":1,"totalPages":10,"itemsOnPage":10,"address":"zpub6ruK9k6YGm8BRHWvTiQcrEPnFkuRDJhR7mPYzV2LDvjpLa5CuGgrhCYVZjMGcLcFqv9b2WvsFtY2Gb3xq8NVq8qhk9veozrA2W9QaWtihrC","balance":"35963","totalReceived":"4222507","totalSent":"4186544","unconfirmedBalance":"0","unconfirmedTxs":0,"txs":94,"transactions":[{"txid":"48554ab85af888894d3f247088fdb8b7fff412612b54f0069f89dda3bd80f0ce","version":1,"vin":[{"txid":"ffd5f12382137dfc62866694f77405ecb6d4cf2cc286ac66d192f7e842787c0f","sequence":4294967293,"n":0,"addresses":["bc1qhddmnwdqwuvt6zl7auu976scg7rmtpx6amumsd"],"isAddress":true,"value":"3220"}],"vout":[{"value":"1000","n":0,"hex":"00141a475acd52ae04da60ab33bf373c9255cea3169a","addresses":["bc1qrfr44n2j4czd5c9txwlnw0yj2h82x9566fglqj"],"isAddress":true},{"value":"1994","n":1,"hex":"0014bb5bb9b9a07718bd0bfeef385f6a184787b584da","addresses":["bc1qhddmnwdqwuvt6zl7auu976scg7rmtpx6amumsd"],"isAddress":true}],"blockHash":"000000000000000000005e0a9278dcf1a18390c78c27d5f47dc0777772b1e54b","blockHeight":627865,"confirmations":3322,"blockTime":1587999059,"value":"2994","valueIn":"3220","fees":"226","hex":"010000000001010f7c7842e8f792d166ac86c22ccfd4b6ec0574f794668662fc7d138223f1d5ff0000000000fdffffff02e8030000000000001600141a475acd52ae04da60ab33bf373c9255cea3169aca07000000000000160014bb5bb9b9a07718bd0bfeef385f6a184787b584da0247304402203285e50928e3d4f67093bb457fe51b60a9e1981868666d8f79bf272868484f1d02200e7093af7d2d7cb68bc0801587b619c2022f02084fac3902fe93e47977aed6c30121034df96f5dacf5e22fb8611e6863e48f6777c7e96064c81196e23dcefd35017d0e00000000"},{"txid":"36b1e721a25ea3ac2fcc09a92d4ff1e2ae4ed70d593e276806d9a9fd2a901132","version":1,"vin":[{"txid":"c6a4c82d5c7a342796e7d81237ab399918d3205f791ebc40e63501cac28c32be","vout":1,"n":0,"addresses":["bc1qrfr44n2j4czd5c9txwlnw0yj2h82x9566fglqj"],"isAddress":true,"value":"4829"}],"vout":[{"value":"1000","n":0,"spent":true,"hex":"a9141ba5187259ae22520f99ec3522d320279066aafd87","addresses":["34DBwkzPz6yeqU1LoZLVzdCm91oeyxq37T"],"isAddress":true},{"value":"2699","n":1,"hex":"00148f347b3ea1ce113b09e096125a3ad3310dd0a947","addresses":["bc1q3u68k04pecgnkz0qjcf95wknxyxap2287gyzrg"],"isAddress":true}],"blockHash":"0000000000000000000fccc2c78e235d6ea3da4013ea98c8376c7c41f7f71938","blockHeight":624894,"confirmations":6293,"blockTime":1586299624,"value":"3699","valueIn":"4829","fees":"1130","hex":"01000000000101be328cc2ca0135e640bc1e795f20d3189939ab3712d8e79627347a5c2dc8a4c601000000000000000002e80300000000000017a9141ba5187259ae22520f99ec3522d320279066aafd878b0a0000000000001600148f347b3ea1ce113b09e096125a3ad3310dd0a94702483045022100c251d7e2497b42d57ff00c92eeb8a6faa86a3d5d77a9d257b7e464400306fa5502204f532ab553ba711779cf1f93cab47c4f5e0f11dbc6017781c79b76caa6ea322b012102624729d04d58fa33eb3f7be9fe9c307c60aa1bad52f4ffbacc78ba3808faf62500000000"},{"txid":"c6a4c82d5c7a342796e7d81237ab399918d3205f791ebc40e63501cac28c32be","version":1,"vin":[{"txid":"d39d78838d5a3c870aa5acdc9e518945bd6ad86af093b38f85c714f790f28c76","vout":1,"n":0,"addresses":["bc1qrfr44n2j4czd5c9txwlnw0yj2h82x9566fglqj"],"isAddress":true,"value":"6055"}],"vout":[{"value":"1000","n":0,"hex":"00141a475acd52ae04da60ab33bf373c9255cea3169a","addresses":["bc1qrfr44n2j4czd5c9txwlnw0yj2h82x9566fglqj"],"isAddress":true},{"value":"4829","n":1,"spent":true,"hex":"00141a475acd52ae04da60ab33bf373c9255cea3169a","addresses":["bc1qrfr44n2j4czd5c9txwlnw0yj2h82x9566fglqj"],"isAddress":true}],"blockHash":"00000000000000000006ff4c09a5e05c4a28dffe54beb7ef0c61f8dd940a951e","blockHeight":622017,"confirmations":9170,"blockTime":1584485709,"value":"5829","valueIn":"6055","fees":"226","hex":"01000000000101768cf290f714c7858fb393f06ad86abd4589519edcaca50a873c5a8d83789dd301000000000000000002e8030000000000001600141a475acd52ae04da60ab33bf373c9255cea3169add120000000000001600141a475acd52ae04da60ab33bf373c9255cea3169a02483045022100cb25ac0d9e69ddaaedd49e3a3f9efb218b38bf49c2abf44ff2266bfb941bd3b202206b32cc1337f9a6a176fabadd6aefdf5a95d479e5db856d4e3e8eee7fefc26773012102624729d04d58fa33eb3f7be9fe9c307c60aa1bad52f4ffbacc78ba3808faf62500000000"},{"txid":"8180545030fcfb7b14ee90acb01b606c5a68fe1d520bcf140bd0097108c2b7f4","version":1,"vin":[{"txid":"270a6490cc806d99aa84bb8079b543d9d7a255fc59364890e7a4cb57970daef8","vout":1,"sequence":4294967294,"n":0,"addresses":["bc1q3230a7cqt2drewuza8qff4c4gpt4muy9qyqknw"],"isAddress":true,"value":"1699"}],"vout":[{"value":"375","n":0,"hex":"00141a475acd52ae04da60ab33bf373c9255cea3169a","addresses":["bc1qrfr44n2j4czd5c9txwlnw0yj2h82x9566fglqj"],"isAddress":true},{"value":"1098","n":1,"hex":"00141a475acd52ae04da60ab33bf373c9255cea3169a","addresses":["bc1qrfr44n2j4czd5c9txwlnw0yj2h82x9566fglqj"],"isAddress":true}],"blockHash":"00000000000000000006ff4c09a5e05c4a28dffe54beb7ef0c61f8dd940a951e","blockHeight":622017,"confirmations":9170,"blockTime":1584485709,"value":"1473","valueIn":"1699","fees":"226","hex":"01000000000101f8ae0d9757cba4e790483659fc55a2d7d943b57980bb84aa996d80cc90640a270100000000feffffff0277010000000000001600141a475acd52ae04da60ab33bf373c9255cea3169a4a040000000000001600141a475acd52ae04da60ab33bf373c9255cea3169a024730440220683d9c2b40958fd706623783017300ebbc9b73ce1db571963d9bb40679c3079c02207ee68976e225e1e98d20e66d4d8a498cddf3268d0d7b66827a2ed3ac4330f137012102b7f0cb54c2a6a4da3372fe17d7a07475f575777364633e89dacb39eb1fd5a09c00000000"},{"txid":"d39d78838d5a3c870aa5acdc9e518945bd6ad86af093b38f85c714f790f28c76","version":1,"vin":[{"txid":"c215e9c6f9533d584effc4d31d08736a0ef4f717b7d42563ebba053f5f3bc1d5","vout":1,"sequence":4294967287,"n":0,"addresses":["bc1qrfr44n2j4czd5c9txwlnw0yj2h82x9566fglqj"],"isAddress":true,"value":"8185"}],"vout":[{"value":"1000","n":0,"hex":"00141a475acd52ae04da60ab33bf373c9255cea3169a","addresses":["bc1qrfr44n2j4czd5c9txwlnw0yj2h82x9566fglqj"],"isAddress":true},{"value":"6055","n":1,"spent":true,"hex":"00141a475acd52ae04da60ab33bf373c9255cea3169a","addresses":["bc1qrfr44n2j4czd5c9txwlnw0yj2h82x9566fglqj"],"isAddress":true}],"blockHash":"0000000000000000000ab8b2230f5b63d4d4be1a0aa6b9296cfc09e48c8e42e0","blockHeight":619385,"confirmations":11802,"blockTime":1582902175,"value":"7055","valueIn":"8185","fees":"1130","hex":"01000000000101d5c13b5f3f05baeb6325d4b717f7f40e6a73081dd3c4ff4e583d53f9c6e915c20100000000f7ffffff02e8030000000000001600141a475acd52ae04da60ab33bf373c9255cea3169aa7170000000000001600141a475acd52ae04da60ab33bf373c9255cea3169a024730440220158b0d8c5fb6cb9f60d0af05ce8b63abe934dca8eca380013bc7e8463420810f02207d7e6594586ec8196546e2520b6775c2e8659c8f266acb3b861e99f13cf1b380012102624729d04d58fa33eb3f7be9fe9c307c60aa1bad52f4ffbacc78ba3808faf62500000000"},{"txid":"c215e9c6f9533d584effc4d31d08736a0ef4f717b7d42563ebba053f5f3bc1d5","version":1,"vin":[{"txid":"1fb8f63b044160a7f918b5db85fa7bed3415848bd733f5827d7ae10cf738b387","sequence":4294967287,"n":0,"addresses":["bc1qrfr44n2j4czd5c9txwlnw0yj2h82x9566fglqj"],"isAddress":true,"value":"10315"}],"vout":[{"value":"1000","n":0,"hex":"00141a475acd52ae04da60ab33bf373c9255cea3169a","addresses":["bc1qrfr44n2j4czd5c9txwlnw0yj2h82x9566fglqj"],"isAddress":true},{"value":"8185","n":1,"spent":true,"hex":"00141a475acd52ae04da60ab33bf373c9255cea3169a","addresses":["bc1qrfr44n2j4czd5c9txwlnw0yj2h82x9566fglqj"],"isAddress":true}],"blockHash":"0000000000000000000fc5707f9351bdefada8c42267c9d63baf404268d65ca0","blockHeight":619383,"confirmations":11804,"blockTime":1582901173,"value":"9185","valueIn":"10315","fees":"1130","hex":"0100000000010187b338f70ce17a7d82f533d78b841534ed7bfa85dbb518f9a76041043bf6b81f0000000000f7ffffff02e8030000000000001600141a475acd52ae04da60ab33bf373c9255cea3169af91f0000000000001600141a475acd52ae04da60ab33bf373c9255cea3169a024830450221008e721f8e1ec8c22e2cec8fb2744d451cb11decabd0ed6b8080b5949f8c34ad3c022070815d97c02a3befae53dfceae504bd4495f034afba9e8e1e84595d07d933a60012102624729d04d58fa33eb3f7be9fe9c307c60aa1bad52f4ffbacc78ba3808faf62500000000"},{"txid":"1fb8f63b044160a7f918b5db85fa7bed3415848bd733f5827d7ae10cf738b387","version":1,"vin":[{"txid":"3eb38e946261c8c7312f02cf72a72ac8d93ede94aa21520fbf06dd9b1f3f4392","vout":1,"n":0,"addresses":["bc1qjar8852c43h73ud79xjluy2e7qce58peymsts8"],"isAddress":true,"value":"194390"}],"vout":[{"value":"10315","n":0,"spent":true,"hex":"00141a475acd52ae04da60ab33bf373c9255cea3169a","addresses":["bc1qrfr44n2j4czd5c9txwlnw0yj2h82x9566fglqj"],"isAddress":true},{"value":"179781","n":1,"spent":true,"hex":"0014974673d158ac6fe8f1be29a5fe1159f0319a1c39","addresses":["bc1qjar8852c43h73ud79xjluy2e7qce58peymsts8"],"isAddress":true}],"blockHash":"000000000000000000099b3509cf7d55c3c1894f814ab45bdccb32aa2b5e3e46","blockHeight":616239,"confirmations":14948,"blockTime":1580992887,"value":"190096","valueIn":"194390","fees":"4294","hex":"0100000000010192433f1f9bdd06bf0f5221aa94de3ed9c82aa772cf022f31c7c86162948eb33e010000000000000000024b280000000000001600141a475acd52ae04da60ab33bf373c9255cea3169a45be020000000000160014974673d158ac6fe8f1be29a5fe1159f0319a1c3902483045022100a2cb51287dd8fd1e7eb9c48be73cba46ddf75287617c38f68618062c945ecbc802206f357933216b63a4530687223e60900c29d1d0869461d6707d7fa202a3c09d9301210289f9d29f5e11c87d2cdbc213d05b7f2aef0291b89b87e7a6f747461d2f75fd9a00000000"},{"txid":"35caac179d1a85f7c495d9a716d85bb02ed925170fc4716e8b04791acd487419","version":1,"vin":[{"txid":"45cd3053d5393b2959646d023e1f2fa272d950903ed8b44502db88c9a04325fe","vout":1,"n":0,"addresses":["bc1qs6q3tdsa09dtrwn0ml7d6ser4zdagja23rks6a"],"isAddress":true,"value":"2470973"}],"vout":[{"value":"10772","n":0,"hex":"00141a475acd52ae04da60ab33bf373c9255cea3169a","addresses":["bc1qrfr44n2j4czd5c9txwlnw0yj2h82x9566fglqj"],"isAddress":true},{"value":"2455681","n":1,"spent":true,"hex":"0014974673d158ac6fe8f1be29a5fe1159f0319a1c39","addresses":["bc1qjar8852c43h73ud79xjluy2e7qce58peymsts8"],"isAddress":true}],"blockHash":"0000000000000000000fcc2170ca9e17fd26747dd40bbf0388324cb872cd7a72","blockHeight":615391,"confirmations":15796,"blockTime":1580495311,"value":"2466453","valueIn":"2470973","fees":"4520","hex":"01000000000101fe2543a0c988db0245b4d83e9050d972a22f1f3e026d6459293b39d55330cd4501000000000000000002142a0000000000001600141a475acd52ae04da60ab33bf373c9255cea3169a8178250000000000160014974673d158ac6fe8f1be29a5fe1159f0319a1c390247304402207fd1c5f4e69845d67696f6dd3f9160fba8e66edb959742b3836f9d6b51b7ef3e022066940b74c238971d0f826648a2bc4806b88be512b6c2bbb08f95e32bbd1ad52f0121020201a3d7f2d6e0e63a7f73e6dfad80d47acaba509585fb40c3c0f54ed9e2478700000000"},{"txid":"7e9a4659d3ad09889595c36f3a533f7dcd2e8c7cd429a8da8129544e961f5540","version":2,"vin":[{"txid":"56246da72d3f56d151adeb34c76c58d229ea0ddcfdc40f17d9b31033fc8789ad","sequence":4294967295,"n":0,"addresses":["33nzF46dHjjuxX61JCnFqirQoxs6VgHRmC"],"isAddress":true,"value":"13482","hex":"160014f9dc6ee2a72c21e6f2a9638dd28a7ea89c79ac62"}],"vout":[{"value":"12257","n":0,"hex":"0014494d0f8f18046f3774ed234a89cb1c37c82ad194","addresses":["bc1qf9xslrccq3hnwa8dyd9gnjcuxlyz45v5dku5t9"],"isAddress":true}],"blockHash":"000000000000000000112771bad60c0245409ff41f8f853f2688bde7194abceb","blockHeight":613673,"confirmations":17514,"blockTime":1579512534,"value":"12257","valueIn":"13482","fees":"1225","hex":"02000000000101ad8987fc3310b3d9170fc4fddc0dea29d2586cc734ebad51d1563f2da76d24560000000017160014f9dc6ee2a72c21e6f2a9638dd28a7ea89c79ac62ffffffff01e12f000000000000160014494d0f8f18046f3774ed234a89cb1c37c82ad194024730440220346da175f0e165a994897ad2eeb117609e2c36f5f1d0d8c40237ef172c88cc00022071fcdc6adebd73a6627e3ce011dff47634796c3b7371e751f5b6258e308674f6012102b708bb3855591cc04d74a65c67be028fd48ae0911e4a82aed92c1c479eb4cce500000000"},{"txid":"56246da72d3f56d151adeb34c76c58d229ea0ddcfdc40f17d9b31033fc8789ad","version":1,"vin":[{"txid":"2054069427b587c84ec43902eb8a400c932567104cd666eb8db514a60170dc15","vout":1,"n":0,"addresses":["bc1qtrk05l53jdflggp0c9hy32ejq4gs6zrf2jjplj"],"isAddress":true,"value":"6530"},{"txid":"45cd3053d5393b2959646d023e1f2fa272d950903ed8b44502db88c9a04325fe","n":1,"addresses":["bc1qlrfxv4v2fkljgylytypxdnr6cdw3jhlcz3xmrs"],"isAddress":true,"value":"11032"}],"vout":[{"value":"13482","n":0,"spent":true,"hex":"a9141711581f950d42881c52adf5c92f64aed4b27a5187","addresses":["33nzF46dHjjuxX61JCnFqirQoxs6VgHRmC"],"isAddress":true}],"blockHash":"00000000000000000002d1d74426c36e5f97541ab039fcfe617425db12bbcfa3","blockHeight":613671,"confirmations":17516,"blockTime":1579512101,"value":"13482","valueIn":"17562","fees":"4080","hex":"0100000000010215dc7001a614b58deb66d64c106725930c408aeb0239c44ec887b52794065420010000000000000000fe2543a0c988db0245b4d83e9050d972a22f1f3e026d6459293b39d55330cd4500000000000000000001aa3400000000000017a9141711581f950d42881c52adf5c92f64aed4b27a518702483045022100cda0a6afa6263f966095400decdf6c73ee4c0889c8eed5bcf5c4bfc85627978b02203beba56e1ee50371a8ffe1ee27be2f2259ad48881808f5d0e63818ccd367a4100121032c5789121a12483272dbd6e42abf59171896aae32c3354ce4ff0ed34635e6b1802483045022100b724e2ecbd7d76b78930cc11af73ad4981ea0d78e90fc5d0860975e7cc3e1c170220695f053d4f4c059954959822bfb80f9d7d7651176ca99522e6ff5b19d4bae11d0121036c203dd0b21843fc2a1f84aca1ca39d45034dd55ef4030adbc663510df4e454b00000000"}],"usedTokens":100,"tokens":[{"type":"XPUBAddress","name":"bc1qrfr44n2j4czd5c9txwlnw0yj2h82x9566fglqj","path":"m/84'/0'/0'/0/0","transfers":13,"decimals":8,"balance":"16245","totalReceived":"92089","totalSent":"75844"},{"type":"XPUBAddress","name":"bc1qh24nwfr75yt5xuh0ejt6jwme6lg6rgy3nkxscp","path":"m/84'/0'/0'/0/40","transfers":1,"decimals":8,"balance":"643","totalReceived":"643","totalSent":"0"},{"type":"XPUBAddress","name":"bc1q7hhmfl8qlpmcjuq6crm4cu70kzqfm2pj8gp6y0","path":"m/84'/0'/0'/0/42","transfers":1,"decimals":8,"balance":"1000","totalReceived":"1000","totalSent":"0"},{"type":"XPUBAddress","name":"bc1qf9xslrccq3hnwa8dyd9gnjcuxlyz45v5dku5t9","path":"m/84'/0'/0'/0/44","transfers":1,"decimals":8,"balance":"12257","totalReceived":"12257","totalSent":"0"},{"type":"XPUBAddress","name":"bc1q2h0cce60v3cf48lq4ucnk4l998z3c0n7ccd27f","path":"m/84'/0'/0'/0/130","transfers":1,"decimals":8,"balance":"1000","totalReceived":"1000","totalSent":"0"},{"type":"XPUBAddress","name":"bc1qqs8mr36kttyuh3wjzk34dpha9d0gjt7q7vdvhy","path":"m/84'/0'/0'/1/36","transfers":1,"decimals":8,"balance":"1063","totalReceived":"1063","totalSent":"0"},{"type":"XPUBAddress","name":"bc1q8y3g8d0ltmwatqzuh5vq7aqymvq36s6ncn5jv5","path":"m/84'/0'/0'/1/38","transfers":1,"decimals":8,"balance":"1056","totalReceived":"1056","totalSent":"0"},{"type":"XPUBAddress","name":"bc1q3u68k04pecgnkz0qjcf95wknxyxap2287gyzrg","path":"m/84'/0'/0'/1/40","transfers":1,"decimals":8,"balance":"2699","totalReceived":"2699","totalSent":"0"}]}
