{"page":1,"totalPages":6,"itemsOnPage":10,"address":"xpub6CKAjCUKKPW7bzYEG5mzRsmzyTRp7XzauqFWNmpGVNqMqsSQpLMCN3ygEmD6ZEGVocNDrDhE7SeGot78noEWpwPDbJjfxREHC848sxNrUkD","balance":"2597761","totalReceived":"27175423","totalSent":"24577662","unconfirmedBalance":"0","unconfirmedTxs":0,"txs":52,"transactions":[{"txid":"2b67e2fbe6a212286243bc539cca3c1d877e85ffec7c925e34f2bfb7b6cc498c","version":1,"vin":[{"txid":"227f1995f5d0b0adcd4f014159710892fa4b66a02ff7ad1e0fc4c1b84ca27cb2","n":0,"addresses":["XyPpEePUKruNEVgdp5jWSakfvoQTnkZxhL"],"isAddress":true,"value":"34508","hex":"483045022100bebce18899214200115fbb2e3b16cd7a6b61cca2cf3e1ffc3b26872f66b714f702203316ce9f1cfb7cef751dbba46015ea76d3c409d6b913b6e434553ebe66680713012103f556051304c43ef031a17615fd8b056c1ac7b0a50926137bf918e72be002f606"}],"vout":[{"value":"10000","n":0,"hex":"76a9149b80787d880fd9f6a822fad78037c9563790a6fa88ac","addresses":["Xps4UHWgH1Ge9HAJijuJMA1i6Ybhq8JNkq"],"isAddress":true},{"value":"18858","n":1,"hex":"76a9149b80787d880fd9f6a822fad78037c9563790a6fa88ac","addresses":["Xps4UHWgH1Ge9HAJijuJMA1i6Ybhq8JNkq"],"isAddress":true}],"blockHash":"000000000000000b3e9287157ae29c1c19bbd1e65660a5bbe723261d0fc57737","blockHeight":1226578,"confirmations":47963,"blockTime":1582509671,"value":"28858","valueIn":"34508","fees":"5650","hex":"0100000001b27ca24cb8c1c40f1eadf72fa0664bfa9208715941014fcdadb0d0f595197f22000000006b483045022100bebce18899214200115fbb2e3b16cd7a6b61cca2cf3e1ffc3b26872f66b714f702203316ce9f1cfb7cef751dbba46015ea76d3c409d6b913b6e434553ebe66680713012103f556051304c43ef031a17615fd8b056c1ac7b0a50926137bf918e72be002f606000000000210270000000000001976a9149b80787d880fd9f6a822fad78037c9563790a6fa88acaa490000000000001976a9149b80787d880fd9f6a822fad78037c9563790a6fa88ac00000000"},{"txid":"dc8e1219da91a24c2eca773a6853d7a0602eed509a4b71afd553f8b4c218b309","version":1,"vin":[{"txid":"501c3c7ecaae272de760e81d284e44644a0475c42e3ee15ae16a125650211c8e","vout":1,"n":0,"addresses":["Xps4UHWgH1Ge9HAJijuJMA1i6Ybhq8JNkq"],"isAddress":true,"value":"768334","hex":"483045022100805ae010fb81b3659f687d1f9da9efa27fa220d34c0f9c54dde4f8e8358e7c2e022003c2c89eb0372616ad50b74f627097e3ccf2ecd940bad616b0bf7caaab58615c01210359d6639a8c603a3ecf0384373935c90a93477668c148929be3b5752fcdf64600"},{"txid":"501c3c7ecaae272de760e81d284e44644a0475c42e3ee15ae16a125650211c8e","n":1,"addresses":["Xps4UHWgH1Ge9HAJijuJMA1i6Ybhq8JNkq"],"isAddress":true,"value":"809686","hex":"483045022100ff644abb86e4272384e64de00d7ac2b1ed01e6848f59707f1bd93913b0f2ceeb02205ba0be94a02a2af3d7178977d828dda4268da4f83c00d2af1331e4274a5454a201210359d6639a8c603a3ecf0384373935c90a93477668c148929be3b5752fcdf64600"}],"vout":[{"value":"1000000","n":0,"hex":"76a9149b80787d880fd9f6a822fad78037c9563790a6fa88ac","addresses":["Xps4UHWgH1Ge9HAJijuJMA1i6Ybhq8JNkq"],"isAddress":true},{"value":"576150","n":1,"hex":"76a9149b80787d880fd9f6a822fad78037c9563790a6fa88ac","addresses":["Xps4UHWgH1Ge9HAJijuJMA1i6Ybhq8JNkq"],"isAddress":true}],"blockHash":"000000000000000f727266a1a157af489fec0a009938dadeca89bc3edd1bc017","blockHeight":1215128,"confirmations":59413,"blockTime":1580704472,"value":"1576150","valueIn":"1578020","fees":"1870","hex":"01000000028e1c215056126ae15ae13e2ec475044a64444e281de860e72d27aeca7e3c1c50010000006b483045022100805ae010fb81b3659f687d1f9da9efa27fa220d34c0f9c54dde4f8e8358e7c2e022003c2c89eb0372616ad50b74f627097e3ccf2ecd940bad616b0bf7caaab58615c01210359d6639a8c603a3ecf0384373935c90a93477668c148929be3b5752fcdf64600000000008e1c215056126ae15ae13e2ec475044a64444e281de860e72d27aeca7e3c1c50000000006b483045022100ff644abb86e4272384e64de00d7ac2b1ed01e6848f59707f1bd93913b0f2ceeb02205ba0be94a02a2af3d7178977d828dda4268da4f83c00d2af1331e4274a5454a201210359d6639a8c603a3ecf0384373935c90a93477668c148929be3b5752fcdf64600000000000240420f00000000001976a9149b80787d880fd9f6a822fad78037c9563790a6fa88ac96ca0800000000001976a9149b80787d880fd9f6a822fad78037c9563790a6fa88ac00000000"},{"txid":"6696dd6c84e58023ecfd5418c9b729e35d2a87235dd0c260f2195ed1810a50d0","version":1,"vin":[{"txid":"31bb6217e1fec3f0041e15e8e8878bbbe1169520ac42fc08a2bb3718946ee309","n":0,"addresses":["XdSr6KFsDGmUpKuG5jWzjZWCbhCtUeT9TZ"],"isAddress":true,"value":"1000000","hex":"473044022010420f86db6de28f66abc96fb474f602f5d90700297555a638851403e70f385102201bb76e34df895edfbb2188b0d293eddbd0434847bedebd21949f5bd42f5048e001210282c2c88e60a8aa55be2c3ff46975e2f79d8d208751b59d4943a59d0a002d5ad0"},{"txid":"f7bc5be43c4dd9c5a23dc88ba5ba823f5109c16a15d69a4fee668311facb72b0","vout":1,"n":1,"addresses":["XqRxi4Y91n6P24eAfymkwckaHE2463Mvxf"],"isAddress":true,"value":"1014267","hex":"47304402204b85b8549fcd6f028d620d4855b03fd900f4a2a70515c7a8d27164b5d3955afd02204569a163bec5e3ee693de7ea11ea7ae611ac8cd7de492c88d328a177f8e5ebba01210276c23ac6a5245e706be703db4d317ecf4b7f341e6a5b9f72a5b364b3dd8746c9"}],"vout":[{"value":"1609050","n":0,"spent":true,"hex":"76a9143f9f7dbf8c17f6c5d96ed20ca8ac3c65f97b898b88ac","addresses":["XgVFTyuPdzk4VpUTYDt5Hyc7WSDRFUczPg"],"isAddress":true},{"value":"403347","n":1,"hex":"76a9149b80787d880fd9f6a822fad78037c9563790a6fa88ac","addresses":["Xps4UHWgH1Ge9HAJijuJMA1i6Ybhq8JNkq"],"isAddress":true}],"blockHash":"00000000000000170e5fa8aa5da53048e697284b8c2c7c540db6b97136d0aedd","blockHeight":1213079,"confirmations":61462,"blockTime":1580381547,"value":"2012397","valueIn":"2014267","fees":"1870","hex":"010000000209e36e941837bba208fc42ac209516e1bb8b87e8e8151e04f0c3fee11762bb31000000006a473044022010420f86db6de28f66abc96fb474f602f5d90700297555a638851403e70f385102201bb76e34df895edfbb2188b0d293eddbd0434847bedebd21949f5bd42f5048e001210282c2c88e60a8aa55be2c3ff46975e2f79d8d208751b59d4943a59d0a002d5ad000000000b072cbfa118366ee4f9ad6156ac109513f82baa58bc83da2c5d94d3ce45bbcf7010000006a47304402204b85b8549fcd6f028d620d4855b03fd900f4a2a70515c7a8d27164b5d3955afd02204569a163bec5e3ee693de7ea11ea7ae611ac8cd7de492c88d328a177f8e5ebba01210276c23ac6a5245e706be703db4d317ecf4b7f341e6a5b9f72a5b364b3dd8746c900000000025a8d1800000000001976a9143f9f7dbf8c17f6c5d96ed20ca8ac3c65f97b898b88ac93270600000000001976a9149b80787d880fd9f6a822fad78037c9563790a6fa88ac00000000"},{"txid":"501c3c7ecaae272de760e81d284e44644a0475c42e3ee15ae16a125650211c8e","version":1,"vin":[{"txid":"d89f83e41cff574070841fb502e69be155ac38d3537047ab61ef597b0eeb9eb3","vout":1,"n":0,"addresses":["Xmt4GmF2Z8sSFtr4zQweZmwHXoEWAEjQjS"],"isAddress":true,"value":"1579150","hex":"473044022022fa02151b5a09be882b93fa1771f1fc9d2e1f3059d548f8afa7fa91d5474e5502200c9dc39c310103b4bcddf88cda6acac4151fd6164be63dff95baf63b306eb9710121022ceba3e32535678aa740a9ea4d333dcaf3cae9e5132586c149938a5d609dc837"}],"vout":[{"value":"809686","n":0,"spent":true,"hex":"76a9149b80787d880fd9f6a822fad78037c9563790a6fa88ac","addresses":["Xps4UHWgH1Ge9HAJijuJMA1i6Ybhq8JNkq"],"isAddress":true},{"value":"768334","n":1,"spent":true,"hex":"76a9149b80787d880fd9f6a822fad78037c9563790a6fa88ac","addresses":["Xps4UHWgH1Ge9HAJijuJMA1i6Ybhq8JNkq"],"isAddress":true}],"blockHash":"000000000000000f17a7d21440dc0980abac9f64a55d652a9e945a080b72c253","blockHeight":1213076,"confirmations":61465,"blockTime":1580381293,"value":"1578020","valueIn":"1579150","fees":"1130","hex":"0100000001b39eeb0e7b59ef61ab477053d338ac55e19be602b51f84704057ff1ce4839fd8010000006a473044022022fa02151b5a09be882b93fa1771f1fc9d2e1f3059d548f8afa7fa91d5474e5502200c9dc39c310103b4bcddf88cda6acac4151fd6164be63dff95baf63b306eb9710121022ceba3e32535678aa740a9ea4d333dcaf3cae9e5132586c149938a5d609dc8370000000002d65a0c00000000001976a9149b80787d880fd9f6a822fad78037c9563790a6fa88ac4eb90b00000000001976a9149b80787d880fd9f6a822fad78037c9563790a6fa88ac00000000"},{"txid":"c13e0718fdafa2a79153748092f978e63dfc8fd41b28bea23427e1d7c976c25b","version":1,"vin":[{"txid":"31bb6217e1fec3f0041e15e8e8878bbbe1169520ac42fc08a2bb3718946ee309","vout":1,"n":0,"addresses":["XgQ6GjrRACaU1ci8BGtALqwd3p7Z1W6m7p"],"isAddress":true,"value":"578870","hex":"483045022100b3683d1170e2e2395a7a35e5b0d0a674ff7b4e1660999893ae60d7e6bc841cbb022027e345eb9776b160260129f33ce6a404268f763d986cefb614573cdc12e7509201210372d1d3eb2c31f49510220dc2aaf32c6a363ed00827734d3713f7e72c8776def8"}],"vout":[{"value":"43000","n":0,"spent":true,"hex":"76a9144ad11db3087da53b67f56e87e9a53ecd89dde09b88ac","addresses":["XhWSM5qaV2dnuHPGzpogBGkhTBPMPjDXaG"],"isAddress":true},{"value":"534740","n":1,"hex":"76a9149b80787d880fd9f6a822fad78037c9563790a6fa88ac","addresses":["Xps4UHWgH1Ge9HAJijuJMA1i6Ybhq8JNkq"],"isAddress":true}],"blockHash":"00000000000000049439d5c7528b34e01643695735ef9db11696382f7c08f75a","blockHeight":1211620,"confirmations":62921,"blockTime":1580151375,"value":"577740","valueIn":"578870","fees":"1130","hex":"010000000109e36e941837bba208fc42ac209516e1bb8b87e8e8151e04f0c3fee11762bb31010000006b483045022100b3683d1170e2e2395a7a35e5b0d0a674ff7b4e1660999893ae60d7e6bc841cbb022027e345eb9776b160260129f33ce6a404268f763d986cefb614573cdc12e7509201210372d1d3eb2c31f49510220dc2aaf32c6a363ed00827734d3713f7e72c8776def80000000002f8a70000000000001976a9144ad11db3087da53b67f56e87e9a53ecd89dde09b88acd4280800000000001976a9149b80787d880fd9f6a822fad78037c9563790a6fa88ac00000000"},{"txid":"31bb6217e1fec3f0041e15e8e8878bbbe1169520ac42fc08a2bb3718946ee309","version":1,"vin":[{"txid":"d89f83e41cff574070841fb502e69be155ac38d3537047ab61ef597b0eeb9eb3","n":0,"addresses":["Xjt3PDPSWXNet3o52JTwgr656mtygDZead"],"isAddress":true,"value":"1580000","hex":"4830450221009b25b8c7f8e188d7c4f1afd98519493e4f68150c1ef674d962191b142aac60df02204c04a7552183e5a19e3e8f3b1b837bee389a30fb72c1ee2704490c204c1d156301210267be33f661018e638b648038b2d5dc6e6920ca9ff71451047e7c66294bedbbbf"}],"vout":[{"value":"1000000","n":0,"spent":true,"hex":"76a9141e42c54a5e1b5d9b18027ba2d97143a87e5c32bb88ac","addresses":["XdSr6KFsDGmUpKuG5jWzjZWCbhCtUeT9TZ"],"isAddress":true},{"value":"578870","n":1,"spent":true,"hex":"76a9143ea5bc9cfe132f64cb0c141d1ea86223666f9c1888ac","addresses":["XgQ6GjrRACaU1ci8BGtALqwd3p7Z1W6m7p"],"isAddress":true}],"blockHash":"000000000000000eb3032ddc1a92f3058dc04d315cedb022c4a30b6ba30ae60a","blockHeight":1207821,"confirmations":66720,"blockTime":1579553025,"value":"1578870","valueIn":"1580000","fees":"1130","hex":"0100000001b39eeb0e7b59ef61ab477053d338ac55e19be602b51f84704057ff1ce4839fd8000000006b4830450221009b25b8c7f8e188d7c4f1afd98519493e4f68150c1ef674d962191b142aac60df02204c04a7552183e5a19e3e8f3b1b837bee389a30fb72c1ee2704490c204c1d156301210267be33f661018e638b648038b2d5dc6e6920ca9ff71451047e7c66294bedbbbf000000000240420f00000000001976a9141e42c54a5e1b5d9b18027ba2d97143a87e5c32bb88ac36d50800000000001976a9143ea5bc9cfe132f64cb0c141d1ea86223666f9c1888ac00000000"},{"txid":"227f1995f5d0b0adcd4f014159710892fa4b66a02ff7ad1e0fc4c1b84ca27cb2","version":1,"vin":[{"txid":"f7bc5be43c4dd9c5a23dc88ba5ba823f5109c16a15d69a4fee668311facb72b0","n":0,"addresses":["Xe4pb7964mDz3j6T8qME8oNPn4Qq7rvfLx"],"isAddress":true,"value":"34700","hex":"47304402205525a79b5e00f718c7de2543de0192e8fed59d1e566383e54dfda688295b773602200c962fe59cfc860191a6d721b3dfe76b01d0a282f109c86d1d3e3991d32da5a6012103015b8c707ded30b2750ac31665335c7ff60db8d18ede940cb70070267bf88617"}],"vout":[{"value":"34508","n":0,"spent":true,"hex":"76a914f9127d23bd2b473d5a9fa45a6b8b27c18cbeab6e88ac","addresses":["XyPpEePUKruNEVgdp5jWSakfvoQTnkZxhL"],"isAddress":true}],"blockHash":"000000000000000e84ed0e94fa47767d5be5c421a239079449fd7899a5ce5578","blockHeight":1166949,"confirmations":107592,"blockTime":1573112576,"value":"34508","valueIn":"34700","fees":"192","hex":"0100000001b072cbfa118366ee4f9ad6156ac109513f82baa58bc83da2c5d94d3ce45bbcf7000000006a47304402205525a79b5e00f718c7de2543de0192e8fed59d1e566383e54dfda688295b773602200c962fe59cfc860191a6d721b3dfe76b01d0a282f109c86d1d3e3991d32da5a6012103015b8c707ded30b2750ac31665335c7ff60db8d18ede940cb70070267bf886170000000001cc860000000000001976a914f9127d23bd2b473d5a9fa45a6b8b27c18cbeab6e88ac00000000"},{"txid":"9547b79e41fb869994b839fcd8b8c5ea580aaabc6711146d389b09e6cf624f06","version":1,"vin":[{"txid":"78481c5218b6c6d3cc4d07e0c6e52082a8d235596394ea794782de4ed80abbcb","sequence":4294967291,"n":0,"addresses":["Xki96Js2mRv6rC63UokDVbRmE7RDc7ULPp"],"isAddress":true,"value":"44892","hex":"4830450221008dbdd31911231aad03aef6eded9230a55607405b0dc77977e43c2ec339f8a8e002201b62bb327dc725263de1e75931cd6642f49d98d49a6e0424587ea478343eab680121020440f808adf979ca45adf2db3c91701c378e99f9770f84102c0b16eed8a0e81e"}],"vout":[{"value":"10000","n":0,"hex":"76a91474ec52b284baa7bc0a5c554726f1e2b717e24c3b88ac","addresses":["XmM5KX1Zpepji5V6RF7iypCkXBi4hSronS"],"isAddress":true},{"value":"34666","n":1,"hex":"76a91412084b5792de33e02d99c555a956ccd32586838488ac","addresses":["XcLBw1EUz5HPDJ5pZrSbeyXYBWcVCabZ56"],"isAddress":true}],"blockHash":"0000000000000005f32905ffe9cb77f22e372256f6d2657124f8bafd36fbc8c0","blockHeight":1166519,"confirmations":108022,"blockTime":1573044962,"value":"44666","valueIn":"44892","fees":"226","hex":"0100000001cbbb0ad84ede824779ea94635935d2a88220e5c6e0074dccd3c6b618521c4878000000006b4830450221008dbdd31911231aad03aef6eded9230a55607405b0dc77977e43c2ec339f8a8e002201b62bb327dc725263de1e75931cd6642f49d98d49a6e0424587ea478343eab680121020440f808adf979ca45adf2db3c91701c378e99f9770f84102c0b16eed8a0e81efbffffff0210270000000000001976a91474ec52b284baa7bc0a5c554726f1e2b717e24c3b88ac6a870000000000001976a91412084b5792de33e02d99c555a956ccd32586838488ac00000000"},{"txid":"f7bc5be43c4dd9c5a23dc88ba5ba823f5109c16a15d69a4fee668311facb72b0","version":1,"vin":[{"txid":"78481c5218b6c6d3cc4d07e0c6e52082a8d235596394ea794782de4ed80abbcb","vout":1,"n":0,"addresses":["XeFnGkttzWebuQvPRQMsCZx8irRqZh9bXB"],"isAddress":true,"value":"1274967","hex":"47304402202666f9d9294ee1baa863722543400ed9286e771462212e7fd9252ecb55dc160102202983aab7fbcd63103350be226fc2c0a1fe8aa8a197bd20634976f10a5b5fef49012103a67eb8083b43cd54ac56a5c5361825e0e4681984b6ea2300b398fb736f279cc8"}],"vout":[{"value":"34700","n":0,"spent":true,"hex":"76a91425107d7a41d6e6167a19873ace2a977eabaf058688ac","addresses":["Xe4pb7964mDz3j6T8qME8oNPn4Qq7rvfLx"],"isAddress":true},{"value":"1014267","n":1,"spent":true,"hex":"76a914a1b9631afa751aa45b0af6b873e44a0461e84b5d88ac","addresses":["XqRxi4Y91n6P24eAfymkwckaHE2463Mvxf"],"isAddress":true}],"blockHash":"000000000000002522f2157367c56683a7a26dea3e6be7bca4fcef8ee068eb7b","blockHeight":1140065,"confirmations":134476,"blockTime":1568874528,"value":"1048967","valueIn":"1274967","fees":"226000","hex":"0100000001cbbb0ad84ede824779ea94635935d2a88220e5c6e0074dccd3c6b618521c4878010000006a47304402202666f9d9294ee1baa863722543400ed9286e771462212e7fd9252ecb55dc160102202983aab7fbcd63103350be226fc2c0a1fe8aa8a197bd20634976f10a5b5fef49012103a67eb8083b43cd54ac56a5c5361825e0e4681984b6ea2300b398fb736f279cc800000000028c870000000000001976a91425107d7a41d6e6167a19873ace2a977eabaf058688acfb790f00000000001976a914a1b9631afa751aa45b0af6b873e44a0461e84b5d88ac00000000"},{"txid":"78481c5218b6c6d3cc4d07e0c6e52082a8d235596394ea794782de4ed80abbcb","version":1,"vin":[{"txid":"93aa38b6e55c08f0dcb1423626e226a459baa68c3246c93bd5b08c131a180cb8","sequence":4294967291,"n":0,"addresses":["XkbgwRmm1SKoKgBp3QAbqY3fvRA1DJfEij"],"isAddress":true,"value":"1320085","hex":"473044022033ce7e907f87dd5d6c6faea76688e0ea9367e71cfda58d1205d4adad13250f0a022072aaf56cdc36b9adb91819f34733ad1d1b74518befd26e0cd77691169831989001210343355be8a2bac33d30e878996016603717931287764d277876960416558fbcc9"}],"vout":[{"value":"44892","n":0,"spent":true,"hex":"76a9146df014d476d6e737f8e70e1123859e94e297062a88ac","addresses":["Xki96Js2mRv6rC63UokDVbRmE7RDc7ULPp"],"isAddress":true},{"value":"1274967","n":1,"spent":true,"hex":"76a914272321d2e254c762b38dcffd027e5f5b84b3798088ac","addresses":["XeFnGkttzWebuQvPRQMsCZx8irRqZh9bXB"],"isAddress":true}],"blockHash":"0000000000000018a47bfd48e74bed20fe83298904e5a52971f4e8ad9d51d727","blockHeight":1136578,"confirmations":137963,"blockTime":1568325650,"value":"1319859","valueIn":"1320085","fees":"226","hex":"0100000001b80c181a138cb0d53bc946328ca6ba59a426e2263642b1dcf0085ce5b638aa93000000006a473044022033ce7e907f87dd5d6c6faea76688e0ea9367e71cfda58d1205d4adad13250f0a022072aaf56cdc36b9adb91819f34733ad1d1b74518befd26e0cd77691169831989001210343355be8a2bac33d30e878996016603717931287764d277876960416558fbcc9fbffffff025caf0000000000001976a9146df014d476d6e737f8e70e1123859e94e297062a88ac57741300000000001976a914272321d2e254c762b38dcffd027e5f5b84b3798088ac00000000"}],"usedTokens":47,"tokens":[{"type":"XPUBAddress","name":"Xps4UHWgH1Ge9HAJijuJMA1i6Ybhq8JNkq","path":"m/44'/5'/0'/0/0","transfers":13,"decimals":8,"balance":"2543095","totalReceived":"4275043","totalSent":"1731948"},{"type":"XPUBAddress","name":"XezMSYZ3ucD2tNGVME1j3A8tM5q3NvigKu","path":"m/44'/5'/0'/0/15","transfers":1,"decimals":8,"balance":"10000","totalReceived":"10000","totalSent":"0"},{"type":"XPUBAddress","name":"XmM5KX1Zpepji5V6RF7iypCkXBi4hSronS","path":"m/44'/5'/0'/0/18","transfers":1,"decimals":8,"balance":"10000","totalReceived":"10000","totalSent":"0"},{"type":"XPUBAddress","name":"XcLBw1EUz5HPDJ5pZrSbeyXYBWcVCabZ56","path":"m/44'/5'/0'/1/24","transfers":1,"decimals":8,"balance":"34666","totalReceived":"34666","totalSent":"0"}]}
