{
	"page": 1,
	"totalPages": 1,
	"itemsOnPage": 1000,
	"address": "DsTxPUVFxXeNgu5fzozr4mTR4tqqMaKcvpY",
	"balance": "19370607",
	"totalReceived": "75347145",
	"totalSent": "55976538",
	"unconfirmedBalance": "0",
	"unconfirmedTxs": 0,
	"txs": 11,
	"transactions": [
		{
			"txid": "22009e6feb0ecbd29004f8a5273163da53c112d93ec5f9dbff46bc41a30f90f0",
			"version": 1,
			"vin": [
				{
					"txid": "66e3d1622d4cb3337babf5e5a466f94b6a732e132c802cc219c6e26543d736e0",
					"vout": 1,
					"sequence": 4294967283,
					"n": 0,
					"addresses": [
						"DsTxPUVFxXeNgu5fzozr4mTR4tqqMaKcvpY"
					],
					"isAddress": true,
					"value": "489415",
					"hex": "483045022100b67f278e9552abddde008a4d91e5c1044d8cf01248378f6b4ed94514b23dbf5e022025c96ea8974f40833287f91f5d7a2a672654950993322ec91b32caf45a9d9fc90121039b24b2073eef4835f226bb98ec9cb28b1cd0550c76077d3865a77870f119c344"
				}
			],
			"vout": [
				{
					"value": "100000",
					"n": 0,
					"hex": "76a914f3fa335c33379fabe6d61c5491504d8d1ad6851c88ac",
					"addresses": [
						"DsoCwRHkCHpR1Jvk9GnCT2M8hVgVjfyYAKE"
					],
					"isAddress": true
				},
				{
					"value": "386875",
					"n": 1,
					"hex": "76a91420cf523034c462f8e09fc0fd35c47760b822398888ac",
					"addresses": [
						"DsTxPUVFxXeNgu5fzozr4mTR4tqqMaKcvpY"
					],
					"isAddress": true
				}
			],
			"blockHash": "00000000000000000d08b3d88676bc81defa76eeb6f1322dd68bca50f34a9e8b",
			"blockHeight": 447041,
			"confirmations": 2034,
			"blockTime": 1588752334,
			"value": "486875",
			"valueIn": "489415",
			"fees": "2540",
			"hex": "0100000001e036d74365e2c619c22c802c132e736a4bf966a4e5f5ab7b33b34c2d62d1e3660100000000f3ffffff02a08601000000000000001976a914f3fa335c33379fabe6d61c5491504d8d1ad6851c88ac3be705000000000000001976a91420cf523034c462f8e09fc0fd35c47760b822398888ac000000000000000001c777070000000000298e0600030000006b483045022100b67f278e9552abddde008a4d91e5c1044d8cf01248378f6b4ed94514b23dbf5e022025c96ea8974f40833287f91f5d7a2a672654950993322ec91b32caf45a9d9fc90121039b24b2073eef4835f226bb98ec9cb28b1cd0550c76077d3865a77870f119c344"
		},
		{
			"txid": "66e3d1622d4cb3337babf5e5a466f94b6a732e132c802cc219c6e26543d736e0",
			"version": 1,
			"vin": [
				{
					"txid": "2dc905f525885537310c8ab87f67dc175ca369af1fe7111a49a94451866aa019",
					"sequence": 4294967291,
					"n": 0,
					"addresses": [
						"Dsjr1AbSRiZaN9PkCGaNyjfAVkbcPLozafq"
					],
					"isAddress": true,
					"value": "591955",
					"hex": "473044022045cb71f2c6c446a69cdf77cc7beedf6f4616091a7fc4843ef74757475f5a95c402203609e095561a11e0ac32f51de870a597b39dce4596b5b253842c838b7c4c9953012102eefcb948122fad71682df1ed8c59a9852afeffea086650e3a86e8a1214c0a94f"
				}
			],
			"vout": [
				{
					"value": "100000",
					"n": 0,
					"hex": "76a91420cf523034c462f8e09fc0fd35c47760b822398888ac",
					"addresses": [
						"DsTxPUVFxXeNgu5fzozr4mTR4tqqMaKcvpY"
					],
					"isAddress": true
				},
				{
					"value": "489415",
					"n": 1,
					"spent": true,
					"hex": "76a91420cf523034c462f8e09fc0fd35c47760b822398888ac",
					"addresses": [
						"DsTxPUVFxXeNgu5fzozr4mTR4tqqMaKcvpY"
					],
					"isAddress": true
				}
			],
			"blockHash": "00000000000000000c12cb497e60470a3cf366d16705eaba303c2c4415cc7567",
			"blockHeight": 429609,
			"confirmations": 19466,
			"blockTime": 1583516573,
			"value": "589415",
			"valueIn": "591955",
			"fees": "2540",
			"hex": "010000000119a06a865144a9491a11e71faf69a35c17dc677fb88a0c3137558825f505c92d0000000000fbffffff02a08601000000000000001976a91420cf523034c462f8e09fc0fd35c47760b822398888acc77707000000000000001976a91420cf523034c462f8e09fc0fd35c47760b822398888ac0000000000000000015308090000000000dbcc05000b0000006a473044022045cb71f2c6c446a69cdf77cc7beedf6f4616091a7fc4843ef74757475f5a95c402203609e095561a11e0ac32f51de870a597b39dce4596b5b253842c838b7c4c9953012102eefcb948122fad71682df1ed8c59a9852afeffea086650e3a86e8a1214c0a94f"
		},
		{
			"txid": "025abf340da79c4fc4de29667c08fc22cdafbded24c7c2a994a27f6fb4d5fa17",
			"version": 1,
			"vin": [
				{
					"txid": "5a2a0d01ed8672d6bebd7dee447b2e0342bfc34fd4893bed58a4fa5aa87a4c42",
					"n": 0,
					"addresses": [
						"Dsf6WkLoiTcSGKmkXoSEdukqUfeRJMqUNJV"
					],
					"isAddress": true,
					"value": "19991980",
					"hex": "483045022100dd6997eab2e2bed5b275af4f2511a62b90da430ecb67f960afe4e06ebf8f362b022017e62873f5bd86abe725ef8fa75d506235ef174e18a06305b889d207ca6194e70121039603af712bd8410ada5a3b6c99d536b2e91dfaf4aa27e488b118cf6a9920e769"
				}
			],
			"vout": [
				{
					"value": "100000",
					"n": 0,
					"hex": "76a91420cf523034c462f8e09fc0fd35c47760b822398888ac",
					"addresses": [
						"DsTxPUVFxXeNgu5fzozr4mTR4tqqMaKcvpY"
					],
					"isAddress": true
				},
				{
					"value": "19889440",
					"n": 1,
					"hex": "76a914989b1aecabf1c24e213cc0f2d8a22ffee25dd4e188ac",
					"addresses": [
						"Dsesp1V6DZDEtcq2behmBVKdYqKMdkh96hL"
					],
					"isAddress": true
				}
			],
			"blockHash": "0000000000000000264c499f21a7ef95bffb37148fc099514b2407dfa28c3287",
			"blockHeight": 429186,
			"confirmations": 19889,
			"blockTime": 1583384838,
			"value": "19989440",
			"valueIn": "19991980",
			"fees": "2540",
			"hex": "0100000001424c7aa85afaa458ed3b89d44fc3bf42032e7b44ee7dbdbed67286ed010d2a5a00000000000000000002a08601000000000000001976a91420cf523034c462f8e09fc0fd35c47760b822398888ac207d2f010000000000001976a914989b1aecabf1c24e213cc0f2d8a22ffee25dd4e188ac000000000000000001ac0d31010000000052630600050000006b483045022100dd6997eab2e2bed5b275af4f2511a62b90da430ecb67f960afe4e06ebf8f362b022017e62873f5bd86abe725ef8fa75d506235ef174e18a06305b889d207ca6194e70121039603af712bd8410ada5a3b6c99d536b2e91dfaf4aa27e488b118cf6a9920e769"
		},
		{
			"txid": "68dcb93e36879f33e741f5706463af10387aadeba193cb204453ec23ad1b1979",
			"version": 1,
			"vin": [
				{
					"txid": "d1352a165c773fe22556219916c2dbd3e184cbf29d9be88b4d52b1c321131601",
					"vout": 1,
					"sequence": 4294967291,
					"n": 0,
					"addresses": [
						"DseafVVZGqk4VMCiEJoxRS6FkUjxofh2PXA"
					],
					"isAddress": true,
					"value": "150582",
					"hex": "473044022028e6a72865dfb231b6a64cb3bacc5421dde842c57a169d13b753c36e96cacd9f022049e381c5e8a7e82d96b8996898c43baebbb1e5e5e9f51c15beb17e29e784c257012102fed4dd58683487545cc89c1fd779bf70b46067b863921b0e0c1b09bbe56d4345"
				}
			],
			"vout": [
				{
					"value": "100000",
					"n": 0,
					"hex": "76a91420cf523034c462f8e09fc0fd35c47760b822398888ac",
					"addresses": [
						"DsTxPUVFxXeNgu5fzozr4mTR4tqqMaKcvpY"
					],
					"isAddress": true
				},
				{
					"value": "48042",
					"n": 1,
					"hex": "76a91420cf523034c462f8e09fc0fd35c47760b822398888ac",
					"addresses": [
						"DsTxPUVFxXeNgu5fzozr4mTR4tqqMaKcvpY"
					],
					"isAddress": true
				}
			],
			"blockHash": "0000000000000000025750e22134a74a8a5389c716b51dc4757bf213c7dfbb70",
			"blockHeight": 427612,
			"confirmations": 21463,
			"blockTime": 1582902615,
			"value": "148042",
			"valueIn": "150582",
			"fees": "2540",
			"hex": "010000000101161321c3b1524d8be89b9df2cb84e1d3dbc21699215625e23f775c162a35d10100000000fbffffff02a08601000000000000001976a91420cf523034c462f8e09fc0fd35c47760b822398888acaabb00000000000000001976a91420cf523034c462f8e09fc0fd35c47760b822398888ac000000000000000001364c020000000000f4c80500070000006a473044022028e6a72865dfb231b6a64cb3bacc5421dde842c57a169d13b753c36e96cacd9f022049e381c5e8a7e82d96b8996898c43baebbb1e5e5e9f51c15beb17e29e784c257012102fed4dd58683487545cc89c1fd779bf70b46067b863921b0e0c1b09bbe56d4345"
		},
		{
			"txid": "70a5caffaac9105b47ff9b70213f3a9f8bbd28f09335dce763a99f1b39e74ccf",
			"version": 1,
			"vin": [
				{
					"txid": "2c922ec02ec0bc86803290191198232183e903ea2e79f7f6ddb6c7c7c193b9db",
					"vout": 1,
					"sequence": 4294967287,
					"n": 0,
					"addresses": [
						"DsTxPUVFxXeNgu5fzozr4mTR4tqqMaKcvpY"
					],
					"isAddress": true,
					"value": "5292552",
					"hex": "483045022100bc0999a9673f4f72b2bd79fd40c1b8a8398381edcc584f6ed868229e2ec5628b02205baab2c3b1cefdb41dc439782310931f15b31fd48544ca70f88c94940a3870800121039b24b2073eef4835f226bb98ec9cb28b1cd0550c76077d3865a77870f119c344"
				}
			],
			"vout": [
				{
					"value": "1000000",
					"n": 0,
					"hex": "76a91420cf523034c462f8e09fc0fd35c47760b822398888ac",
					"addresses": [
						"DsTxPUVFxXeNgu5fzozr4mTR4tqqMaKcvpY"
					],
					"isAddress": true
				},
				{
					"value": "4290012",
					"n": 1,
					"hex": "76a91420cf523034c462f8e09fc0fd35c47760b822398888ac",
					"addresses": [
						"DsTxPUVFxXeNgu5fzozr4mTR4tqqMaKcvpY"
					],
					"isAddress": true
				}
			],
			"blockHash": "00000000000000001c196ac1e8e050a3d7bc600bcb87826dca4ff558ac280014",
			"blockHeight": 427609,
			"confirmations": 21466,
			"blockTime": 1582901951,
			"value": "5290012",
			"valueIn": "5292552",
			"fees": "2540",
			"hex": "0100000001dbb993c1c7c7b6ddf6f7792eea03e983212398111990328086bcc02ec02e922c0100000000f7ffffff0240420f000000000000001976a91420cf523034c462f8e09fc0fd35c47760b822398888acdc7541000000000000001976a91420cf523034c462f8e09fc0fd35c47760b822398888ac00000000000000000108c2500000000000bc5d0600020000006b483045022100bc0999a9673f4f72b2bd79fd40c1b8a8398381edcc584f6ed868229e2ec5628b02205baab2c3b1cefdb41dc439782310931f15b31fd48544ca70f88c94940a3870800121039b24b2073eef4835f226bb98ec9cb28b1cd0550c76077d3865a77870f119c344"
		},
		{
			"txid": "2c922ec02ec0bc86803290191198232183e903ea2e79f7f6ddb6c7c7c193b9db",
			"version": 1,
			"vin": [
				{
					"txid": "a81ab3f0d0744c42fcc8e5c3b0b77382323d0cf6ac73a55f982dcadc4fe604c7",
					"vout": 1,
					"n": 0,
					"addresses": [
						"DseSHdQv3cZhuY3foizi3bbHHMw2o7RsNsu"
					],
					"isAddress": true,
					"value": "6295092",
					"hex": "47304402206d190e10475b3dc57a9ec4aff060f1d9ee82e47b99d1f9cb2e926384ccdc04df022056040c8b364176c28876b597006faba7b0f1f74abcf0321e530520907b8ded8001210385ece82907d214f46db634a6326d99616ea022ec887991251215d1564120ac41"
				}
			],
			"vout": [
				{
					"value": "1000000",
					"n": 0,
					"hex": "76a91420cf523034c462f8e09fc0fd35c47760b822398888ac",
					"addresses": [
						"DsTxPUVFxXeNgu5fzozr4mTR4tqqMaKcvpY"
					],
					"isAddress": true
				},
				{
					"value": "5292552",
					"n": 1,
					"spent": true,
					"hex": "76a91420cf523034c462f8e09fc0fd35c47760b822398888ac",
					"addresses": [
						"DsTxPUVFxXeNgu5fzozr4mTR4tqqMaKcvpY"
					],
					"isAddress": true
				}
			],
			"blockHash": "0000000000000000008e3020d59db97a9e69b7b77697369cee0cd600a3e3c106",
			"blockHeight": 417211,
			"confirmations": 31864,
			"blockTime": 1579769314,
			"value": "6292552",
			"valueIn": "6295092",
			"fees": "2540",
			"hex": "0100000001c704e64fdcca2d985fa573acf60c3d328273b7b0c3e5c8fc424c74d0f0b31aa80100000000000000000240420f000000000000001976a91420cf523034c462f8e09fc0fd35c47760b822398888ac08c250000000000000001976a91420cf523034c462f8e09fc0fd35c47760b822398888ac000000000000000001340e600000000000c0050600070000006a47304402206d190e10475b3dc57a9ec4aff060f1d9ee82e47b99d1f9cb2e926384ccdc04df022056040c8b364176c28876b597006faba7b0f1f74abcf0321e530520907b8ded8001210385ece82907d214f46db634a6326d99616ea022ec887991251215d1564120ac41"
		},
		{
			"txid": "a81ab3f0d0744c42fcc8e5c3b0b77382323d0cf6ac73a55f982dcadc4fe604c7",
			"version": 1,
			"vin": [
				{
					"txid": "f901951a6552d84a047170534a17f176dddf3ff05046d94d5a4f60e951cb7814",
					"vout": 1,
					"n": 0,
					"addresses": [
						"Dse6xFAU3LBzNeFZiPGJHuBRebHN74Sr2ry"
					],
					"isAddress": true,
					"value": "18643310",
					"hex": "4830450221008d6be510c08e051ed4b1f4e00503595531f4800d042a438cb76681677e471b3c022072fb18f79fd673d86449b3ca77e846a9c8ffb87551ce3597b1b206f5d99fa3ab01210212d8d67fa0db8a51432cbbff4d29d5a2ec407f43958800e3770c277b6c22e4ca"
				}
			],
			"vout": [
				{
					"value": "12345678",
					"n": 0,
					"hex": "76a91420cf523034c462f8e09fc0fd35c47760b822398888ac",
					"addresses": [
						"DsTxPUVFxXeNgu5fzozr4mTR4tqqMaKcvpY"
					],
					"isAddress": true
				},
				{
					"value": "6295092",
					"n": 1,
					"spent": true,
					"hex": "76a91493c7588139797500ca13011a73e01a78da3092cd88ac",
					"addresses": [
						"DseSHdQv3cZhuY3foizi3bbHHMw2o7RsNsu"
					],
					"isAddress": true
				}
			],
			"blockHash": "000000000000000017871738a562ecfe28699613f578177c3d43c00124b65abe",
			"blockHeight": 394687,
			"confirmations": 54388,
			"blockTime": 1573005579,
			"value": "18640770",
			"valueIn": "18643310",
			"fees": "2540",
			"hex": "01000000011478cb51e9604f5a4dd94650f03fdfdd76f1174a537071044ad852651a9501f9010000000000000000024e61bc000000000000001976a91420cf523034c462f8e09fc0fd35c47760b822398888ac340e60000000000000001976a91493c7588139797500ca13011a73e01a78da3092cd88ac0000000000000000016e791c0100000000d4cc0500010000006b4830450221008d6be510c08e051ed4b1f4e00503595531f4800d042a438cb76681677e471b3c022072fb18f79fd673d86449b3ca77e846a9c8ffb87551ce3597b1b206f5d99fa3ab01210212d8d67fa0db8a51432cbbff4d29d5a2ec407f43958800e3770c277b6c22e4ca"
		},
		{
			"txid": "ce314ec559ceae4d2a98ed4708848708c9cfde14b484b879838a2dc75c793910",
			"version": 1,
			"vin": [
				{
					"txid": "6928795181bd951849bcdebab2f012b1f6a71f8f1993e573ee1b531207c61255",
					"sequence": 4294967293,
					"n": 0,
					"addresses": [
						"DsTxPUVFxXeNgu5fzozr4mTR4tqqMaKcvpY"
					],
					"isAddress": true,
					"value": "194571",
					"hex": "483045022100dd4fafb4a6d89f81b0602a3305aac956decad8e65182cd690eda70854eccc43a022055a23cd4eff950901494fe0f53d880a5c04ca23e822116d91a9ada83ba6baf010121039b24b2073eef4835f226bb98ec9cb28b1cd0550c76077d3865a77870f119c344"
				}
			],
			"vout": [
				{
					"value": "19457",
					"n": 0,
					"hex": "76a914a0f82f406aa9ce69402d915f9e93312c9e5d796988ac",
					"addresses": [
						"Dsfe2vHn1TVqHJWeD37BXL1y31nWeBQqB7c"
					],
					"isAddress": true
				},
				{
					"value": "172574",
					"n": 1,
					"spent": true,
					"hex": "76a914cf1c37327174a9eb957bc879320c405f7f678b7588ac",
					"addresses": [
						"Dsjr1AbSRiZaN9PkCGaNyjfAVkbcPLozafq"
					],
					"isAddress": true
				}
			],
			"blockHash": "000000000000000004f7b5a862dc2f9fa6acc037a743913056d2882856ba4314",
			"blockHeight": 379022,
			"confirmations": 70053,
			"blockTime": 1568292291,
			"value": "192031",
			"valueIn": "194571",
			"fees": "2540",
			"hex": "01000000015512c60712531bee73e593198f1fa7f6b112f0b2badebc491895bd81517928690000000000fdffffff02014c00000000000000001976a914a0f82f406aa9ce69402d915f9e93312c9e5d796988ac1ea202000000000000001976a914cf1c37327174a9eb957bc879320c405f7f678b7588ac0000000000000000010bf80200000000008dc80500030000006b483045022100dd4fafb4a6d89f81b0602a3305aac956decad8e65182cd690eda70854eccc43a022055a23cd4eff950901494fe0f53d880a5c04ca23e822116d91a9ada83ba6baf010121039b24b2073eef4835f226bb98ec9cb28b1cd0550c76077d3865a77870f119c344"
		},
		{
			"txid": "6928795181bd951849bcdebab2f012b1f6a71f8f1993e573ee1b531207c61255",
			"version": 1,
			"vin": [
				{
					"txid": "4510dd5fa05c5a8a1ab44a9b77315bf989a3749eb2ff2b651648313dc15c98f9",
					"vout": 1,
					"sequence": 4294967293,
					"n": 0,
					"addresses": [
						"DsmwaUbFCWoZCjGv2bYA8bmmXFarWgc6zHY"
					],
					"isAddress": true,
					"value": "19437456",
					"hex": "483045022100a9bdbc46b9856b592d50fc718a818393a53c380fd08dae92a470293d0b7da5f102203e4addd7634bcc14546840cb80f13b6e994d4523a80a46dfd951b173d62a49d6012103bb6681dc8e643af1a54e94e7efe9089f4b9051b2e43803050d6b5a7de7991a11"
				}
			],
			"vout": [
				{
					"value": "194571",
					"n": 0,
					"spent": true,
					"hex": "76a91420cf523034c462f8e09fc0fd35c47760b822398888ac",
					"addresses": [
						"DsTxPUVFxXeNgu5fzozr4mTR4tqqMaKcvpY"
					],
					"isAddress": true
				},
				{
					"value": "19240345",
					"n": 1,
					"spent": true,
					"hex": "76a914cf1c37327174a9eb957bc879320c405f7f678b7588ac",
					"addresses": [
						"Dsjr1AbSRiZaN9PkCGaNyjfAVkbcPLozafq"
					],
					"isAddress": true
				}
			],
			"blockHash": "00000000000000000bde3ce71634ce6fa7ed894c6d016fba61abb0a94d2c4afa",
			"blockHeight": 379020,
			"confirmations": 70055,
			"blockTime": 1568292043,
			"value": "19434916",
			"valueIn": "19437456",
			"fees": "2540",
			"hex": "0100000001f9985cc13d314816652bffb29e74a389f95b31779b4ab41a8a5a5ca05fdd10450100000000fdffffff020bf802000000000000001976a91420cf523034c462f8e09fc0fd35c47760b822398888ac999525010000000000001976a914cf1c37327174a9eb957bc879320c405f7f678b7588ac0000000000000000019097280100000000bdc70500030000006b483045022100a9bdbc46b9856b592d50fc718a818393a53c380fd08dae92a470293d0b7da5f102203e4addd7634bcc14546840cb80f13b6e994d4523a80a46dfd951b173d62a49d6012103bb6681dc8e643af1a54e94e7efe9089f4b9051b2e43803050d6b5a7de7991a11"
		},
		{
			"txid": "5015d14dcfd78998cfa13e0325798a74d95bbe75f167a49467303f70dde9bffd",
			"version": 1,
			"vin": [
				{
					"txid": "ac4b4b9af3e0b8cdb7918bb6bfdf9878ace398b92e6e5ef7844936c676041a26",
					"vout": 1,
					"sequence": 4294967295,
					"n": 0,
					"addresses": [
						"DsTxPUVFxXeNgu5fzozr4mTR4tqqMaKcvpY"
					],
					"isAddress": true,
					"value": "50000000",
					"hex": "483045022100923900d86dfbfefa31c5789c0d142fd75d18dd91ea13930515c46e280b6f33fc022079fddaf46e6da7978b9226cc09c6d978bca89b37ec99becb65625ddb6d00f9180121039b24b2073eef4835f226bb98ec9cb28b1cd0550c76077d3865a77870f119c344"
				}
			],
			"vout": [
				{
					"value": "39900000",
					"n": 0,
					"spent": true,
					"hex": "76a914746462efaf7a648ccd1a46de4e2842f2b25f498588ac",
					"addresses": [
						"DsbaL8f4Uu4bQ6wPpbjcLWxRDZQZo3Ncrrq"
					],
					"isAddress": true
				},
				{
					"value": "10000000",
					"n": 1,
					"hex": "76a9145f6ef673184369f86779658d13f436a7d303276888ac",
					"addresses": [
						"DsZfWcUeaTLtXz3roBmNCNP96srYmDFVZ1W"
					],
					"isAddress": true
				}
			],
			"blockHash": "000000000000000008e0427a4b4e95d540d03fcc28a059861204a8674bdf7a64",
			"blockHeight": 330617,
			"confirmations": 118458,
			"blockTime": 1553754509,
			"value": "49900000",
			"valueIn": "50000000",
			"fees": "100000",
			"hex": "0100000001261a0476c6364984f75e6e2eb998e3ac7898dfbfb68b91b7cdb8e0f39a4b4bac0100000000ffffffff0260d360020000000000001976a914746462efaf7a648ccd1a46de4e2842f2b25f498588ac809698000000000000001976a9145f6ef673184369f86779658d13f436a7d303276888ac00000000000000000180f0fa020000000035ef0400150000006b483045022100923900d86dfbfefa31c5789c0d142fd75d18dd91ea13930515c46e280b6f33fc022079fddaf46e6da7978b9226cc09c6d978bca89b37ec99becb65625ddb6d00f9180121039b24b2073eef4835f226bb98ec9cb28b1cd0550c76077d3865a77870f119c344"
		},
		{
			"txid": "ac4b4b9af3e0b8cdb7918bb6bfdf9878ace398b92e6e5ef7844936c676041a26",
			"version": 1,
			"vin": [
				{
					"txid": "9ecec2fc079ebc6646de451b73231cf422f7ad761472b6482c7453a82c87a321",
					"vout": 5,
					"sequence": 4294967295,
					"n": 0,
					"addresses": [
						"DsfMzjYfieAwq2zpeCRyDMiSVDxfEFfRNui"
					],
					"isAddress": true,
					"value": "7078093729",
					"hex": "483045022100fef9f8fd733a94ee691d1845442335a3693882e441078c5dc1220ce21ce93d0f0220308aed0bd8cb2e5a040f46426be0b25fdb3605bb6ae3ec8252055bc2cbd13738012102167188e52e860521bd21cc3548f4250c75309a70ec182f081b4d04f788a48914"
				}
			],
			"vout": [
				{
					"value": "7028091199",
					"n": 0,
					"spent": true,
					"hex": "76a914d3b1286986e589b0e819f98e2a2462e5a17f1ef288ac",
					"addresses": [
						"DskGEJ3taowt2PxqopPLSUoVh9eq4nWqDXT"
					],
					"isAddress": true
				},
				{
					"value": "50000000",
					"n": 1,
					"spent": true,
					"hex": "76a91420cf523034c462f8e09fc0fd35c47760b822398888ac",
					"addresses": [
						"DsTxPUVFxXeNgu5fzozr4mTR4tqqMaKcvpY"
					],
					"isAddress": true
				}
			],
			"blockHash": "000000000000000016d937210760bb0fbde311d3bfb0719abeb6a2230c537817",
			"blockHeight": 323381,
			"confirmations": 125694,
			"blockTime": 1551595302,
			"value": "7078091199",
			"valueIn": "7078093729",
			"fees": "2530",
			"hex": "010000000121a3872ca853742c48b6721476adf722f41c23731b45de4666bc9e07fcc2ce9e0500000001ffffffff023f29e8a20100000000001976a914d3b1286986e589b0e819f98e2a2462e5a17f1ef288ac80f0fa020000000000001976a91420cf523034c462f8e09fc0fd35c47760b822398888ac000000000000000001a123e3a501000000a6ea0400030000006b483045022100fef9f8fd733a94ee691d1845442335a3693882e441078c5dc1220ce21ce93d0f0220308aed0bd8cb2e5a040f46426be0b25fdb3605bb6ae3ec8252055bc2cbd13738012102167188e52e860521bd21cc3548f4250c75309a70ec182f081b4d04f788a48914"
		}
	]
}
