{"page":1,"totalPages":384,"itemsOnPage":10,"address":"DEs1RJKuASSjfphFJdxX9eidrjWewMZgAi","balance":"0","totalReceived":"244615238234","totalSent":"244615238234","unconfirmedBalance":"0","unconfirmedTxs":0,"txs":3840,"transactions":[{"txid":"52618b3146251b767d6e9d0f4076da68d2af5b780be52eb34cf1c45188954acb","version":1,"vin":[{"txid":"9843f6b1c966663f6942061207b4fd549a23bcd0844827eea397dc2fc299e74f","sequence":4294967295,"n":0,"addresses":["DEs1RJKuASSjfphFJdxX9eidrjWewMZgAi"],"isAddress":true,"value":"62143000","hex":"47304402207bd05f2a4487ebca7d722427497370a5cdcae44fb2e9a314d24a548c03261f2e02205883efc76c704dd67492adbb27a9d049d254f367e6b34c06de4b742dc59bdc5f0141041dd9c41a6c1a3ea6c9fd53eecc0314c79386eb56f380552d46644d106bdbc4dfd389027e1498313480441bbf5130461af785656deaea87348dd7ac523eaeff48"}],"vout":[{"value":"62142000","n":0,"spent":true,"hex":"76a914562e330d8879eeaf17c72c8ad7f3acb4ebb6262c88ac","addresses":["DCzmzkMBqEz2tLn47W9YuNAV9cFzuWCydW"],"isAddress":true},{"value":"0","n":1,"hex":"6a45524d555453422e41432e544800000000000029bfa398bee3241347368c2d4d758575c7fe00d60c05f90d1e6ddc36f99ef2f27683c59e41bb4c803c710e33ed63faefb68089","addresses":["OP_RETURN 524d555453422e41432e544800000000000029bfa398bee3241347368c2d4d758575c7fe00d60c05f90d1e6ddc36f99ef2f27683c59e41bb4c803c710e33ed63faefb68089"],"isAddress":false}],"blockHash":"9c082ff8666f530e114f9c07f564211a43d2809c6248e0b896c3787e69e1d963","blockHeight":10869003,"confirmations":3488,"blockTime":1590017999,"value":"62142000","valueIn":"62143000","fees":"1000","hex":"01000000014fe799c22fdc97a3ee274884d0bc239a54fdb407120642693f6666c9b1f64398000000008a47304402207bd05f2a4487ebca7d722427497370a5cdcae44fb2e9a314d24a548c03261f2e02205883efc76c704dd67492adbb27a9d049d254f367e6b34c06de4b742dc59bdc5f0141041dd9c41a6c1a3ea6c9fd53eecc0314c79386eb56f380552d46644d106bdbc4dfd389027e1498313480441bbf5130461af785656deaea87348dd7ac523eaeff48ffffffff023036b403000000001976a914562e330d8879eeaf17c72c8ad7f3acb4ebb6262c88ac0000000000000000476a45524d555453422e41432e544800000000000029bfa398bee3241347368c2d4d758575c7fe00d60c05f90d1e6ddc36f99ef2f27683c59e41bb4c803c710e33ed63faefb6808900000000"},{"txid":"9843f6b1c966663f6942061207b4fd549a23bcd0844827eea397dc2fc299e74f","version":1,"vin":[{"txid":"b178d6584fe3b37d978f29f0fff899e6d36be05486e8a75b9d5b41bb3edaafcb","sequence":4294967295,"n":0,"addresses":["DCzmzkMBqEz2tLn47W9YuNAV9cFzuWCydW"],"isAddress":true,"value":"62144000","hex":"473044022030312758b634855268aecd2b006c5ae8951723dbb76bac4af98b128f61b83aff022016069738e950590202c6d705d67da443848c05d4bf8ae0071856a8dff548b9ab012102aa3f5da884ab5654137cf660576e590830f6ec177ca84629d5a0264a1e494057"}],"vout":[{"value":"62143000","n":0,"spent":true,"hex":"76a9146aa65418d9de46d678eb71db1d2616f5a96acdc588ac","addresses":["DEs1RJKuASSjfphFJdxX9eidrjWewMZgAi"],"isAddress":true},{"value":"0","n":1,"hex":"6a45524d555453422e41432e544800000000000029bfa398bee3241347368c2d4d758575c7fe00d60c05f90d1e6ddc36f99ef2f27683c59e41bb4c803c710e33ed63faefb68089","addresses":["OP_RETURN 524d555453422e41432e544800000000000029bfa398bee3241347368c2d4d758575c7fe00d60c05f90d1e6ddc36f99ef2f27683c59e41bb4c803c710e33ed63faefb68089"],"isAddress":false}],"blockHash":"e3e584e9072be121b3b1e94d2495a3c3974e0df1cfedc136936b70a5a5cac801","blockHeight":10869002,"confirmations":3489,"blockTime":1590017991,"value":"62143000","valueIn":"62144000","fees":"1000","hex":"0100000001cbafda3ebb415b9d5ba7e88654e06bd3e699f8fff0298f977db3e34f58d678b1000000006a473044022030312758b634855268aecd2b006c5ae8951723dbb76bac4af98b128f61b83aff022016069738e950590202c6d705d67da443848c05d4bf8ae0071856a8dff548b9ab012102aa3f5da884ab5654137cf660576e590830f6ec177ca84629d5a0264a1e494057ffffffff02183ab403000000001976a9146aa65418d9de46d678eb71db1d2616f5a96acdc588ac0000000000000000476a45524d555453422e41432e544800000000000029bfa398bee3241347368c2d4d758575c7fe00d60c05f90d1e6ddc36f99ef2f27683c59e41bb4c803c710e33ed63faefb6808900000000"},{"txid":"9d880c73ad1682b03339e884b97b022f408d90597d4c00a716b954724fed8e5e","version":1,"vin":[{"txid":"9e0487ae145d698e1eae57bf5a5c9bfbd2a8cb2a41dabefef822c9da976c5ecc","sequence":4294967295,"n":0,"addresses":["DEs1RJKuASSjfphFJdxX9eidrjWewMZgAi"],"isAddress":true,"value":"61627000","hex":"47304402207eb214458be2185d7aa3d329995a9041ec29deef17ea9c2d1b34951c3582e3f302207415b095de42a5ad7b0e1cfa6006ec67ebe7c075e124d47c08f99daad60bb7010141041dd9c41a6c1a3ea6c9fd53eecc0314c79386eb56f380552d46644d106bdbc4dfd389027e1498313480441bbf5130461af785656deaea87348dd7ac523eaeff48"}],"vout":[{"value":"61626000","n":0,"spent":true,"hex":"76a914562e330d8879eeaf17c72c8ad7f3acb4ebb6262c88ac","addresses":["DCzmzkMBqEz2tLn47W9YuNAV9cFzuWCydW"],"isAddress":true},{"value":"0","n":1,"hex":"6a45524d555453422e41432e54480000000000002998a398bee3241347368c2d4d758575c7fe00ba8e9832f5eadcfc68d11b1417f1787de6ae95a47b0830c527be09ff693a17eb","addresses":["OP_RETURN 524d555453422e41432e54480000000000002998a398bee3241347368c2d4d758575c7fe00ba8e9832f5eadcfc68d11b1417f1787de6ae95a47b0830c527be09ff693a17eb"],"isAddress":false}],"blockHash":"847a223814159f3b0670c15742b778688aa381883cedc59456ab66ef4ab78811","blockHeight":10863931,"confirmations":8560,"blockTime":1589942553,"value":"61626000","valueIn":"61627000","fees":"1000","hex":"0100000001cc5e6c97dac922f8febeda412acba8d2fb9b5c5abf57ae1e8e695d14ae87049e000000008a47304402207eb214458be2185d7aa3d329995a9041ec29deef17ea9c2d1b34951c3582e3f302207415b095de42a5ad7b0e1cfa6006ec67ebe7c075e124d47c08f99daad60bb7010141041dd9c41a6c1a3ea6c9fd53eecc0314c79386eb56f380552d46644d106bdbc4dfd389027e1498313480441bbf5130461af785656deaea87348dd7ac523eaeff48ffffffff029056ac03000000001976a914562e330d8879eeaf17c72c8ad7f3acb4ebb6262c88ac0000000000000000476a45524d555453422e41432e54480000000000002998a398bee3241347368c2d4d758575c7fe00ba8e9832f5eadcfc68d11b1417f1787de6ae95a47b0830c527be09ff693a17eb00000000"},{"txid":"9e0487ae145d698e1eae57bf5a5c9bfbd2a8cb2a41dabefef822c9da976c5ecc","version":1,"vin":[{"txid":"b215c706e32c44a1a30e110a1b60221c30c578d11d42142734803c90ced368df","sequence":4294967295,"n":0,"addresses":["DCzmzkMBqEz2tLn47W9YuNAV9cFzuWCydW"],"isAddress":true,"value":"61628000","hex":"473044022059d09606a6e4ad6c854cba45e9b13d7be52641c705fee95637c90c7f6001ecd802204fb5b67f02fe9df02e89011ff808e17fbb9f406e1290739820ae438ead9e7069012102aa3f5da884ab5654137cf660576e590830f6ec177ca84629d5a0264a1e494057"}],"vout":[{"value":"61627000","n":0,"spent":true,"hex":"76a9146aa65418d9de46d678eb71db1d2616f5a96acdc588ac","addresses":["DEs1RJKuASSjfphFJdxX9eidrjWewMZgAi"],"isAddress":true},{"value":"0","n":1,"hex":"6a45524d555453422e41432e54480000000000002998a398bee3241347368c2d4d758575c7fe00ba8e9832f5eadcfc68d11b1417f1787de6ae95a47b0830c527be09ff693a17eb","addresses":["OP_RETURN 524d555453422e41432e54480000000000002998a398bee3241347368c2d4d758575c7fe00ba8e9832f5eadcfc68d11b1417f1787de6ae95a47b0830c527be09ff693a17eb"],"isAddress":false}],"blockHash":"847a223814159f3b0670c15742b778688aa381883cedc59456ab66ef4ab78811","blockHeight":10863931,"confirmations":8560,"blockTime":1589942553,"value":"61627000","valueIn":"61628000","fees":"1000","hex":"0100000001df68d3ce903c80342714421dd178c5301c22601b0a110ea3a1442ce306c715b2000000006a473044022059d09606a6e4ad6c854cba45e9b13d7be52641c705fee95637c90c7f6001ecd802204fb5b67f02fe9df02e89011ff808e17fbb9f406e1290739820ae438ead9e7069012102aa3f5da884ab5654137cf660576e590830f6ec177ca84629d5a0264a1e494057ffffffff02785aac03000000001976a9146aa65418d9de46d678eb71db1d2616f5a96acdc588ac0000000000000000476a45524d555453422e41432e54480000000000002998a398bee3241347368c2d4d758575c7fe00ba8e9832f5eadcfc68d11b1417f1787de6ae95a47b0830c527be09ff693a17eb00000000"},{"txid":"565a6acc5b6e0832844a6cf1fb3a84330a57021256aebd667a99fddecde76ea7","version":1,"vin":[{"txid":"d32d7c65d4fdd8b7f77379e3c2f13dafc38ac4ba5bad391a8271305674be5deb","sequence":4294967295,"n":0,"addresses":["DEs1RJKuASSjfphFJdxX9eidrjWewMZgAi"],"isAddress":true,"value":"61733000","hex":"473044022046232395d40a79d525972cf35962c6b082bf7e562315ffe20092371ce167010f022001d24738b76ae32b422465f2f8d2e7609c8243ac2d9f5698d4e795d973383f040141041dd9c41a6c1a3ea6c9fd53eecc0314c79386eb56f380552d46644d106bdbc4dfd389027e1498313480441bbf5130461af785656deaea87348dd7ac523eaeff48"}],"vout":[{"value":"61732000","n":0,"spent":true,"hex":"76a914562e330d8879eeaf17c72c8ad7f3acb4ebb6262c88ac","addresses":["DCzmzkMBqEz2tLn47W9YuNAV9cFzuWCydW"],"isAddress":true},{"value":"0","n":1,"hex":"6a45524d555453422e41432e5448000000000000297fa398bee3241347368c2d4d758575c7fe00b2bcd12aa47cd973e773af9d10317ca9d8d0210a141ffe684c7fef9a2477b7e8","addresses":["OP_RETURN 524d555453422e41432e5448000000000000297fa398bee3241347368c2d4d758575c7fe00b2bcd12aa47cd973e773af9d10317ca9d8d0210a141ffe684c7fef9a2477b7e8"],"isAddress":false}],"blockHash":"0000000000000000824fa33e16a642fb8a79e5507b64e4aa0534f766bf974978","blockHeight":10863924,"confirmations":8567,"blockTime":1589942406,"value":"61732000","valueIn":"61733000","fees":"1000","hex":"0100000001eb5dbe74563071821a39ad5bbac48ac3af3df1c2e37973f7b7d8fdd4657c2dd3000000008a473044022046232395d40a79d525972cf35962c6b082bf7e562315ffe20092371ce167010f022001d24738b76ae32b422465f2f8d2e7609c8243ac2d9f5698d4e795d973383f040141041dd9c41a6c1a3ea6c9fd53eecc0314c79386eb56f380552d46644d106bdbc4dfd389027e1498313480441bbf5130461af785656deaea87348dd7ac523eaeff48ffffffff02a0f4ad03000000001976a914562e330d8879eeaf17c72c8ad7f3acb4ebb6262c88ac0000000000000000476a45524d555453422e41432e5448000000000000297fa398bee3241347368c2d4d758575c7fe00b2bcd12aa47cd973e773af9d10317ca9d8d0210a141ffe684c7fef9a2477b7e800000000"},{"txid":"d32d7c65d4fdd8b7f77379e3c2f13dafc38ac4ba5bad391a8271305674be5deb","version":1,"vin":[{"txid":"aca9b244d37d027233d37c9d8e83dcb0ced0bd5adda0d1eb2b10ade2e830117e","sequence":4294967295,"n":0,"addresses":["DCzmzkMBqEz2tLn47W9YuNAV9cFzuWCydW"],"isAddress":true,"value":"61734000","hex":"47304402204a563a55460ce140c98a02c78cc926ea4fa0980963a5e1ad3806b066fcf3c79f02207a31e1604fd04996fd36344dcc70f2fd76412118dde4353e599711de5c5850ef012102aa3f5da884ab5654137cf660576e590830f6ec177ca84629d5a0264a1e494057"}],"vout":[{"value":"61733000","n":0,"spent":true,"hex":"76a9146aa65418d9de46d678eb71db1d2616f5a96acdc588ac","addresses":["DEs1RJKuASSjfphFJdxX9eidrjWewMZgAi"],"isAddress":true},{"value":"0","n":1,"hex":"6a45524d555453422e41432e5448000000000000297fa398bee3241347368c2d4d758575c7fe00b2bcd12aa47cd973e773af9d10317ca9d8d0210a141ffe684c7fef9a2477b7e8","addresses":["OP_RETURN 524d555453422e41432e5448000000000000297fa398bee3241347368c2d4d758575c7fe00b2bcd12aa47cd973e773af9d10317ca9d8d0210a141ffe684c7fef9a2477b7e8"],"isAddress":false}],"blockHash":"0000000000000000824fa33e16a642fb8a79e5507b64e4aa0534f766bf974978","blockHeight":10863924,"confirmations":8567,"blockTime":1589942406,"value":"61733000","valueIn":"61734000","fees":"1000","hex":"01000000017e1130e8e2ad102bebd1a0dd5abdd0ceb0dc838e9d7cd33372027dd344b2a9ac000000006a47304402204a563a55460ce140c98a02c78cc926ea4fa0980963a5e1ad3806b066fcf3c79f02207a31e1604fd04996fd36344dcc70f2fd76412118dde4353e599711de5c5850ef012102aa3f5da884ab5654137cf660576e590830f6ec177ca84629d5a0264a1e494057ffffffff0288f8ad03000000001976a9146aa65418d9de46d678eb71db1d2616f5a96acdc588ac0000000000000000476a45524d555453422e41432e5448000000000000297fa398bee3241347368c2d4d758575c7fe00b2bcd12aa47cd973e773af9d10317ca9d8d0210a141ffe684c7fef9a2477b7e800000000"},{"txid":"aa8f2b0289f48a46521273f5b0664f5c8b4d62516be5a3ae9d09c2a8d0082a72","version":1,"vin":[{"txid":"083c2562fdc327c0f4d2a595b4858cd8b2abc07204dc118c8cf1d123ea2c8708","sequence":4294967295,"n":0,"addresses":["DEs1RJKuASSjfphFJdxX9eidrjWewMZgAi"],"isAddress":true,"value":"61739000","hex":"473044022043b9d64b14a9132004d46871e3e9ecadb189a05f3b60cc92d75c59fb3668fa980220186a7e0af36bda79438502af16ad2980c86a2e923ba549ac5fa0dbbac77a5d6a0141041dd9c41a6c1a3ea6c9fd53eecc0314c79386eb56f380552d46644d106bdbc4dfd389027e1498313480441bbf5130461af785656deaea87348dd7ac523eaeff48"}],"vout":[{"value":"61738000","n":0,"spent":true,"hex":"76a914562e330d8879eeaf17c72c8ad7f3acb4ebb6262c88ac","addresses":["DCzmzkMBqEz2tLn47W9YuNAV9cFzuWCydW"],"isAddress":true},{"value":"0","n":1,"hex":"6a45524d555453422e41432e5448000000000000297ea398bee3241347368c2d4d758575c7fe002b23ecc5a066a8f952dbc9079ff75b3b2ae6650325c287a0ffb8677a1137ce36","addresses":["OP_RETURN 524d555453422e41432e5448000000000000297ea398bee3241347368c2d4d758575c7fe002b23ecc5a066a8f952dbc9079ff75b3b2ae6650325c287a0ffb8677a1137ce36"],"isAddress":false}],"blockHash":"0000000000000000437bee40996add8cf12f928f8d610dce4a3836cb499fdc27","blockHeight":10863919,"confirmations":8572,"blockTime":1589942373,"value":"61738000","valueIn":"61739000","fees":"1000","hex":"010000000108872cea23d1f18c8c11dc0472c0abb2d88c85b495a5d2f4c027c3fd62253c08000000008a473044022043b9d64b14a9132004d46871e3e9ecadb189a05f3b60cc92d75c59fb3668fa980220186a7e0af36bda79438502af16ad2980c86a2e923ba549ac5fa0dbbac77a5d6a0141041dd9c41a6c1a3ea6c9fd53eecc0314c79386eb56f380552d46644d106bdbc4dfd389027e1498313480441bbf5130461af785656deaea87348dd7ac523eaeff48ffffffff02100cae03000000001976a914562e330d8879eeaf17c72c8ad7f3acb4ebb6262c88ac0000000000000000476a45524d555453422e41432e5448000000000000297ea398bee3241347368c2d4d758575c7fe002b23ecc5a066a8f952dbc9079ff75b3b2ae6650325c287a0ffb8677a1137ce3600000000"},{"txid":"083c2562fdc327c0f4d2a595b4858cd8b2abc07204dc118c8cf1d123ea2c8708","version":1,"vin":[{"txid":"b48316c1c90f0f107c884391a458e32d4353a6efa2d86f365ea2ae6325225c48","sequence":4294967295,"n":0,"addresses":["DCzmzkMBqEz2tLn47W9YuNAV9cFzuWCydW"],"isAddress":true,"value":"61740000","hex":"47304402205110c23ef48578efeb572e5222e564261b699bfeb47d39644838dc22a7fbcab902206229983ac8734619759383e927f61139c2f4d36af4be9da385eb8787075673a9012102aa3f5da884ab5654137cf660576e590830f6ec177ca84629d5a0264a1e494057"}],"vout":[{"value":"61739000","n":0,"spent":true,"hex":"76a9146aa65418d9de46d678eb71db1d2616f5a96acdc588ac","addresses":["DEs1RJKuASSjfphFJdxX9eidrjWewMZgAi"],"isAddress":true},{"value":"0","n":1,"hex":"6a45524d555453422e41432e5448000000000000297ea398bee3241347368c2d4d758575c7fe002b23ecc5a066a8f952dbc9079ff75b3b2ae6650325c287a0ffb8677a1137ce36","addresses":["OP_RETURN 524d555453422e41432e5448000000000000297ea398bee3241347368c2d4d758575c7fe002b23ecc5a066a8f952dbc9079ff75b3b2ae6650325c287a0ffb8677a1137ce36"],"isAddress":false}],"blockHash":"0000000000000000437bee40996add8cf12f928f8d610dce4a3836cb499fdc27","blockHeight":10863919,"confirmations":8572,"blockTime":1589942373,"value":"61739000","valueIn":"61740000","fees":"1000","hex":"0100000001485c222563aea25e366fd8a2efa653432de358a49143887c100f0fc9c11683b4000000006a47304402205110c23ef48578efeb572e5222e564261b699bfeb47d39644838dc22a7fbcab902206229983ac8734619759383e927f61139c2f4d36af4be9da385eb8787075673a9012102aa3f5da884ab5654137cf660576e590830f6ec177ca84629d5a0264a1e494057ffffffff02f80fae03000000001976a9146aa65418d9de46d678eb71db1d2616f5a96acdc588ac0000000000000000476a45524d555453422e41432e5448000000000000297ea398bee3241347368c2d4d758575c7fe002b23ecc5a066a8f952dbc9079ff75b3b2ae6650325c287a0ffb8677a1137ce3600000000"},{"txid":"aa6e59af4733d5de78a80f342de5c86cfd29ece94a240a34f9c03ee351907f40","version":1,"vin":[{"txid":"30508fb951fdd4feefab4e0ce0d169657a9922a5a87c8840e8a25222db2c9f16","sequence":4294967295,"n":0,"addresses":["DEs1RJKuASSjfphFJdxX9eidrjWewMZgAi"],"isAddress":true,"value":"61775000","hex":"47304402205a24ed8a11b7d9a3b0125513cd96546a38260f04b844d974082798b17039628102203fb48a3c1c54a436218afe5ea022074c8a6e07f329c5fef7ccf1186feda96aee0141041dd9c41a6c1a3ea6c9fd53eecc0314c79386eb56f380552d46644d106bdbc4dfd389027e1498313480441bbf5130461af785656deaea87348dd7ac523eaeff48"}],"vout":[{"value":"61774000","n":0,"spent":true,"hex":"76a914562e330d8879eeaf17c72c8ad7f3acb4ebb6262c88ac","addresses":["DCzmzkMBqEz2tLn47W9YuNAV9cFzuWCydW"],"isAddress":true},{"value":"0","n":1,"hex":"6a45524d555453422e41432e544800000000000029aba398bee3241347368c2d4d758575c7fe0001299f8ab6e5ea61c29b366468451b067604214eb037811a7d67c4d785a9d956","addresses":["OP_RETURN 524d555453422e41432e544800000000000029aba398bee3241347368c2d4d758575c7fe0001299f8ab6e5ea61c29b366468451b067604214eb037811a7d67c4d785a9d956"],"isAddress":false}],"blockHash":"00000000000000005f8107124e967386137af8c6ae9cb7603711bccfbedd9fa9","blockHeight":10863261,"confirmations":9230,"blockTime":1589932487,"value":"61774000","valueIn":"61775000","fees":"1000","hex":"0100000001169f2cdb2252a2e840887ca8a522997a6569d1e00c4eabeffed4fd51b98f5030000000008a47304402205a24ed8a11b7d9a3b0125513cd96546a38260f04b844d974082798b17039628102203fb48a3c1c54a436218afe5ea022074c8a6e07f329c5fef7ccf1186feda96aee0141041dd9c41a6c1a3ea6c9fd53eecc0314c79386eb56f380552d46644d106bdbc4dfd389027e1498313480441bbf5130461af785656deaea87348dd7ac523eaeff48ffffffff02b098ae03000000001976a914562e330d8879eeaf17c72c8ad7f3acb4ebb6262c88ac0000000000000000476a45524d555453422e41432e544800000000000029aba398bee3241347368c2d4d758575c7fe0001299f8ab6e5ea61c29b366468451b067604214eb037811a7d67c4d785a9d95600000000"},{"txid":"30508fb951fdd4feefab4e0ce0d169657a9922a5a87c8840e8a25222db2c9f16","version":1,"vin":[{"txid":"28cc8cf9a2d1012843cb11236b1ad118b3f8467ff76317242cab0c5c9f2821cb","sequence":4294967295,"n":0,"addresses":["DCzmzkMBqEz2tLn47W9YuNAV9cFzuWCydW"],"isAddress":true,"value":"61776000","hex":"4730440220491a71aa59efd0a71754a52e0bbb5791581c30fa5c4f1760b1bc33da45d1358002207476d8ff39997599de89f28ae3188b7f26b19a15a6530079bfcf707eb91a04af012102aa3f5da884ab5654137cf660576e590830f6ec177ca84629d5a0264a1e494057"}],"vout":[{"value":"61775000","n":0,"spent":true,"hex":"76a9146aa65418d9de46d678eb71db1d2616f5a96acdc588ac","addresses":["DEs1RJKuASSjfphFJdxX9eidrjWewMZgAi"],"isAddress":true},{"value":"0","n":1,"hex":"6a45524d555453422e41432e544800000000000029aba398bee3241347368c2d4d758575c7fe0001299f8ab6e5ea61c29b366468451b067604214eb037811a7d67c4d785a9d956","addresses":["OP_RETURN 524d555453422e41432e544800000000000029aba398bee3241347368c2d4d758575c7fe0001299f8ab6e5ea61c29b366468451b067604214eb037811a7d67c4d785a9d956"],"isAddress":false}],"blockHash":"00000000000000005f8107124e967386137af8c6ae9cb7603711bccfbedd9fa9","blockHeight":10863261,"confirmations":9230,"blockTime":1589932487,"value":"61775000","valueIn":"61776000","fees":"1000","hex":"0100000001cb21289f5c0cab2c241763f77f46f8b318d11a6b2311cb432801d1a2f98ccc28000000006a4730440220491a71aa59efd0a71754a52e0bbb5791581c30fa5c4f1760b1bc33da45d1358002207476d8ff39997599de89f28ae3188b7f26b19a15a6530079bfcf707eb91a04af012102aa3f5da884ab5654137cf660576e590830f6ec177ca84629d5a0264a1e494057ffffffff02989cae03000000001976a9146aa65418d9de46d678eb71db1d2616f5a96acdc588ac0000000000000000476a45524d555453422e41432e544800000000000029aba398bee3241347368c2d4d758575c7fe0001299f8ab6e5ea61c29b366468451b067604214eb037811a7d67c4d785a9d95600000000"}]}
