{"page":1,"totalPages":12,"itemsOnPage":10,"address":"dgub8rceyfsEvGDexmvJcBqiKBrmuxWGgYJxHjtbouHTwTfQrCQcMjxyNf6vUPY4dUp23QtReFy6WGedutBk9XUaYNupUqVAZcweqGhfsudUELN","balance":"53244505232","totalReceived":"2702075149752","totalSent":"2648830644520","unconfirmedBalance":"0","unconfirmedTxs":0,"txs":112,"transactions":[{"txid":"fee8381fed7406a48a8ea9e62328a3134064210626e81489ed8906e18c433bdf","version":1,"vin":[{"txid":"c6a51ed2d4bb163c324f58659d98142b3fbe44503289eb6c7749414e63111dfb","n":0,"addresses":["D5dAUAx3Ezg1q4dRgzKTBsxp4VJietWkDh"],"isAddress":true,"value":"1000000000","hex":"47304402200833c3184e768e5b6da836d9824f98b65704a24229a02e572ac760bb304ab9fb022068d102da9400afaeee3a6b42930a966ff107f5c68affde4a0239dab9fa21123d012102cc82e0824da5cc96d5967cfc06d4b82e29c44ce10cb86028d15b5e67ceb1b6ca"}],"vout":[{"value":"134700000","n":0,"hex":"76a9142ba977acdb30bc18d350df32f38a777313ae86b088ac","addresses":["D97xcKB9EAPmgNExbB5nAXDAQ9s5ZJ91J4"],"isAddress":true},{"value":"707100000","n":1,"hex":"76a914b358390833fd8371733c1d11477bdb2d185e61e988ac","addresses":["DMVPBRTD6bgqr3fk2yTdz97hS4AA2gzj8g"],"isAddress":true}],"blockHash":"b94fd58d99710000ff0991ebf82c85330ed706ea18bcd4265e1f22747b91ddfe","blockHeight":3170421,"confirmations":67953,"blockTime":1585794154,"value":"841800000","valueIn":"1000000000","fees":"158200000","hex":"0100000001fb1d11634e4149776ceb89325044be3f2b14989d65584f323c16bbd4d21ea5c6000000006a47304402200833c3184e768e5b6da836d9824f98b65704a24229a02e572ac760bb304ab9fb022068d102da9400afaeee3a6b42930a966ff107f5c68affde4a0239dab9fa21123d012102cc82e0824da5cc96d5967cfc06d4b82e29c44ce10cb86028d15b5e67ceb1b6ca0000000002e05b0708000000001976a9142ba977acdb30bc18d350df32f38a777313ae86b088ac607d252a000000001976a914b358390833fd8371733c1d11477bdb2d185e61e988ac00000000"},{"txid":"8d5fc1e686ff042b4811cb6b2df406b98b2484e973cd663b442c296f2d2f78b9","version":1,"vin":[{"txid":"f60da53d80e50e4aef26e58ca89cbbe90b554baefcf67c54b0a2648420907498","vout":1,"sequence":4294967288,"n":0,"addresses":["DF5TedCytjJRQdvTbMPJuMwbMWoveWZYp3"],"isAddress":true,"value":"533600000","hex":"483045022100f357d4cb4fbef56bc76de9894e330ce485085c3cbe58dc9680db2a35dcf99dbf02204d7ef785782d75025c117c5e70ae009104b7cdd7cd1554d5cf4cb884958c06be01210391c22d3c06172377ff770f0832a4decf91ee38b975eb65451c38faa6bef861b5"}],"vout":[{"value":"100000000","n":0,"hex":"76a914054eed59ece5b6aa1ef15f3713765e708cf3d5f688ac","addresses":["D5dAUAx3Ezg1q4dRgzKTBsxp4VJietWkDh"],"isAddress":true},{"value":"275400000","n":1,"hex":"76a9149ff8db746d4f6b11acab2bda9288dde3b8428d8e88ac","addresses":["DKix6fTygojRpBFbADfkYKDX9nZ2Y7Huqq"],"isAddress":true}],"blockHash":"ece2c433edfaf7143ba79f381ea40ac8b7e38ce6c4ff0771ae1e3dda9246824a","blockHeight":3099770,"confirmations":138604,"blockTime":1581351126,"value":"375400000","valueIn":"533600000","fees":"158200000","hex":"0100000001987490208464a2b0547cf6fcae4b550be9bb9ca88ce526ef4a0ee5803da50df6010000006b483045022100f357d4cb4fbef56bc76de9894e330ce485085c3cbe58dc9680db2a35dcf99dbf02204d7ef785782d75025c117c5e70ae009104b7cdd7cd1554d5cf4cb884958c06be01210391c22d3c06172377ff770f0832a4decf91ee38b975eb65451c38faa6bef861b5f8ffffff0200e1f505000000001976a914054eed59ece5b6aa1ef15f3713765e708cf3d5f688ac40456a10000000001976a9149ff8db746d4f6b11acab2bda9288dde3b8428d8e88ac00000000"},{"txid":"f60da53d80e50e4aef26e58ca89cbbe90b554baefcf67c54b0a2648420907498","version":1,"vin":[{"txid":"c6a51ed2d4bb163c324f58659d98142b3fbe44503289eb6c7749414e63111dfb","vout":1,"sequence":4294967291,"n":0,"addresses":["D5dAUAx3Ezg1q4dRgzKTBsxp4VJietWkDh"],"isAddress":true,"value":"841800000","hex":"483045022100f80b337309fcefc7886364f9a87ff9afcadf876542a5a36b543547f7e9d43ef10220397d6aaa649814b68dc98a1ed1027de34c8aa06cbe480e34bbe5a7ba5f282402012102cc82e0824da5cc96d5967cfc06d4b82e29c44ce10cb86028d15b5e67ceb1b6ca"}],"vout":[{"value":"150000000","n":0,"hex":"76a914e82178c73b5744342916f6a7a944af4fa37aebff88ac","addresses":["DSJVQRY3wyVPrXbEDMSeoFufWNSsMeKEuj"],"isAddress":true},{"value":"533600000","n":1,"spent":true,"hex":"76a9146d01372d8c138cddcc142ade8a7ebc84948b87df88ac","addresses":["DF5TedCytjJRQdvTbMPJuMwbMWoveWZYp3"],"isAddress":true}],"blockHash":"d4a57feed1683117d412944fc6581eace1bc3a8be5ebab93cf2dd99f5918374d","blockHeight":3088989,"confirmations":149385,"blockTime":1580673745,"value":"683600000","valueIn":"841800000","fees":"158200000","hex":"0100000001fb1d11634e4149776ceb89325044be3f2b14989d65584f323c16bbd4d21ea5c6010000006b483045022100f80b337309fcefc7886364f9a87ff9afcadf876542a5a36b543547f7e9d43ef10220397d6aaa649814b68dc98a1ed1027de34c8aa06cbe480e34bbe5a7ba5f282402012102cc82e0824da5cc96d5967cfc06d4b82e29c44ce10cb86028d15b5e67ceb1b6cafbffffff0280d1f008000000001976a914e82178c73b5744342916f6a7a944af4fa37aebff88ac0017ce1f000000001976a9146d01372d8c138cddcc142ade8a7ebc84948b87df88ac00000000"},{"txid":"17e7d6371140eba1d57a2461a8d646534ff0c8044aff83b90c49f9d74aad0a8e","version":1,"vin":[{"txid":"eaead3019d3a76858d7c106cdf3324595b8c1f06ae3ecf668327c997bb584f33","vout":1,"n":0,"addresses":["D5dAUAx3Ezg1q4dRgzKTBsxp4VJietWkDh"],"isAddress":true,"value":"483600000","hex":"4730440220336f743b7030ac993705d48a4e64d1bb5a7c2fbddeabdc4fdb33f7f41c7addc502202c723805658115ae148b9211b25987813c848949a3cd835b942de0b248168e7c012102cc82e0824da5cc96d5967cfc06d4b82e29c44ce10cb86028d15b5e67ceb1b6ca"}],"vout":[{"value":"134700000","n":0,"spent":true,"hex":"76a9147e2cd472834c324ead9cc333c50c55117e07525a88ac","addresses":["DGeFPGDgmxcuVFS4WGKQ4cqEgJSAnz6tpt"],"isAddress":true},{"value":"190700000","n":1,"hex":"76a914054eed59ece5b6aa1ef15f3713765e708cf3d5f688ac","addresses":["D5dAUAx3Ezg1q4dRgzKTBsxp4VJietWkDh"],"isAddress":true}],"blockHash":"03a3c4216bf64a38dac9ca5c34722f79ec67e0b3de9ba8a58108fced2b782374","blockHeight":3082655,"confirmations":155719,"blockTime":1580277168,"value":"325400000","valueIn":"483600000","fees":"158200000","hex":"0100000001334f58bb97c9278366cf3eae061f8c5b592433df6c107c8d85763a9d01d3eaea010000006a4730440220336f743b7030ac993705d48a4e64d1bb5a7c2fbddeabdc4fdb33f7f41c7addc502202c723805658115ae148b9211b25987813c848949a3cd835b942de0b248168e7c012102cc82e0824da5cc96d5967cfc06d4b82e29c44ce10cb86028d15b5e67ceb1b6ca0000000002e05b0708000000001976a9147e2cd472834c324ead9cc333c50c55117e07525a88ace0d95d0b000000001976a914054eed59ece5b6aa1ef15f3713765e708cf3d5f688ac00000000"},{"txid":"c6a51ed2d4bb163c324f58659d98142b3fbe44503289eb6c7749414e63111dfb","version":1,"vin":[{"txid":"44941f1d6b3bf0361f00a00d8e503ce8d0289b0990c5b4a6d13de00fa4eec1cd","n":0,"addresses":["D5dAUAx3Ezg1q4dRgzKTBsxp4VJietWkDh"],"isAddress":true,"value":"2000000000","hex":"473044022027ca75c9763fa154134343a46d8ea35c28d1231d2a0e6857564773866f5a91fe02206ec5af0e55730bfbbf53eb0eb3fccfcace7b051af973a176d8d8d096675772b2012102cc82e0824da5cc96d5967cfc06d4b82e29c44ce10cb86028d15b5e67ceb1b6ca"}],"vout":[{"value":"1000000000","n":0,"spent":true,"hex":"76a914054eed59ece5b6aa1ef15f3713765e708cf3d5f688ac","addresses":["D5dAUAx3Ezg1q4dRgzKTBsxp4VJietWkDh"],"isAddress":true},{"value":"841800000","n":1,"spent":true,"hex":"76a914054eed59ece5b6aa1ef15f3713765e708cf3d5f688ac","addresses":["D5dAUAx3Ezg1q4dRgzKTBsxp4VJietWkDh"],"isAddress":true}],"blockHash":"4701d7cf8b274af55ddddfbe76527f9b616fc69325c08b79ed35da5183be37c3","blockHeight":3081510,"confirmations":156864,"blockTime":1580204896,"value":"1841800000","valueIn":"2000000000","fees":"158200000","hex":"0100000001cdc1eea40fe03dd1a6b4c590099b28d0e83c508e0da0001f36f03b6b1d1f9444000000006a473044022027ca75c9763fa154134343a46d8ea35c28d1231d2a0e6857564773866f5a91fe02206ec5af0e55730bfbbf53eb0eb3fccfcace7b051af973a176d8d8d096675772b2012102cc82e0824da5cc96d5967cfc06d4b82e29c44ce10cb86028d15b5e67ceb1b6ca000000000200ca9a3b000000001976a914054eed59ece5b6aa1ef15f3713765e708cf3d5f688ac40d92c32000000001976a914054eed59ece5b6aa1ef15f3713765e708cf3d5f688ac00000000"},{"txid":"eaead3019d3a76858d7c106cdf3324595b8c1f06ae3ecf668327c997bb584f33","version":1,"vin":[{"txid":"a369bf2cee39e406b04d3782385f76956241b5ac1774db13f166c8e8a0172d36","vout":1,"n":0,"addresses":["DAth3nj1fUStB8UHxxuE4uFfjg8Aze4S8v"],"isAddress":true,"value":"741800000","hex":"47304402202377dc80bcc0d43a2996ec3057056730489cc3b138f504c6be5229d5441246c202201c7bdfed8a8388336b754b7a21ec631e8f5bbfcfa3ebb68cfb5d5cea60971ec30121029f274c032269ab70b7a1bed45068f6e97f0b865ae652a98054fdd25e04af267a"}],"vout":[{"value":"100000000","n":0,"hex":"76a914054eed59ece5b6aa1ef15f3713765e708cf3d5f688ac","addresses":["D5dAUAx3Ezg1q4dRgzKTBsxp4VJietWkDh"],"isAddress":true},{"value":"483600000","n":1,"spent":true,"hex":"76a914054eed59ece5b6aa1ef15f3713765e708cf3d5f688ac","addresses":["D5dAUAx3Ezg1q4dRgzKTBsxp4VJietWkDh"],"isAddress":true}],"blockHash":"fab26df4f935751512760217249335c9a4218bd84766152bd1d1b47f7cdfe33e","blockHeight":3079034,"confirmations":159340,"blockTime":1580049813,"value":"583600000","valueIn":"741800000","fees":"158200000","hex":"0100000001362d17a0e8c866f113db7417acb5416295765f3882374db006e439ee2cbf69a3010000006a47304402202377dc80bcc0d43a2996ec3057056730489cc3b138f504c6be5229d5441246c202201c7bdfed8a8388336b754b7a21ec631e8f5bbfcfa3ebb68cfb5d5cea60971ec30121029f274c032269ab70b7a1bed45068f6e97f0b865ae652a98054fdd25e04af267a000000000200e1f505000000001976a914054eed59ece5b6aa1ef15f3713765e708cf3d5f688ac8026d31c000000001976a914054eed59ece5b6aa1ef15f3713765e708cf3d5f688ac00000000"},{"txid":"44941f1d6b3bf0361f00a00d8e503ce8d0289b0990c5b4a6d13de00fa4eec1cd","version":1,"vin":[{"txid":"2b59988ab83317341e9ee48a0ba80abf4399254089037dc7660d000de53565e7","vout":1,"n":0,"addresses":["D5dAUAx3Ezg1q4dRgzKTBsxp4VJietWkDh"],"isAddress":true,"value":"51162295942","hex":"4830450221009bd7a6e5d664c57b7c994fe2bba3fc14db41e3b961b52f6da46ea517f0a765bf022028a695add7d1f0e948a492ba196f6266cc7cafc9628a9ac4518cd7fceb1e1f54012102cc82e0824da5cc96d5967cfc06d4b82e29c44ce10cb86028d15b5e67ceb1b6ca"}],"vout":[{"value":"2000000000","n":0,"spent":true,"hex":"76a914054eed59ece5b6aa1ef15f3713765e708cf3d5f688ac","addresses":["D5dAUAx3Ezg1q4dRgzKTBsxp4VJietWkDh"],"isAddress":true},{"value":"49004095942","n":1,"hex":"76a914054eed59ece5b6aa1ef15f3713765e708cf3d5f688ac","addresses":["D5dAUAx3Ezg1q4dRgzKTBsxp4VJietWkDh"],"isAddress":true}],"blockHash":"a6ebe4f81737b59699c7a3a59f21b93280c7d2a88c9e84dd90b4326226074f4f","blockHeight":3074554,"confirmations":163820,"blockTime":1579769000,"value":"51004095942","valueIn":"51162295942","fees":"158200000","hex":"0100000001e76535e50d000d66c77d038940259943bf0aa80b8ae49e1e341733b88a98592b010000006b4830450221009bd7a6e5d664c57b7c994fe2bba3fc14db41e3b961b52f6da46ea517f0a765bf022028a695add7d1f0e948a492ba196f6266cc7cafc9628a9ac4518cd7fceb1e1f54012102cc82e0824da5cc96d5967cfc06d4b82e29c44ce10cb86028d15b5e67ceb1b6ca000000000200943577000000001976a914054eed59ece5b6aa1ef15f3713765e708cf3d5f688acc629df680b0000001976a914054eed59ece5b6aa1ef15f3713765e708cf3d5f688ac00000000"},{"txid":"a369bf2cee39e406b04d3782385f76956241b5ac1774db13f166c8e8a0172d36","version":1,"vin":[{"txid":"2b59988ab83317341e9ee48a0ba80abf4399254089037dc7660d000de53565e7","sequence":4294967291,"n":0,"addresses":["D5dAUAx3Ezg1q4dRgzKTBsxp4VJietWkDh"],"isAddress":true,"value":"1000000000","hex":"4730440220348d03905d720f7bf4adf247195dcb30f4e581a88ca611ad2c336665acb10e73022034926b1fadbe03078c3210502f76cc34340b9e5a906ba1deb9ee9fc3c2a5b20d012102cc82e0824da5cc96d5967cfc06d4b82e29c44ce10cb86028d15b5e67ceb1b6ca"}],"vout":[{"value":"100000000","n":0,"hex":"76a9149fc4e4b3c5a1331b93b26bcb290c7fa2633e304688ac","addresses":["DKhsr9gcxfZ1EPGz7YK4BwWAPDeATwT94o"],"isAddress":true},{"value":"741800000","n":1,"spent":true,"hex":"76a9143f175272c8685646337257fdd4ff9837b3b37d0d88ac","addresses":["DAth3nj1fUStB8UHxxuE4uFfjg8Aze4S8v"],"isAddress":true}],"blockHash":"d677e3585338c456ba1c84e5ac360dba7b972840ece88b59b7977cab32fe697d","blockHeight":3073761,"confirmations":164613,"blockTime":1579719400,"value":"841800000","valueIn":"1000000000","fees":"158200000","hex":"0100000001e76535e50d000d66c77d038940259943bf0aa80b8ae49e1e341733b88a98592b000000006a4730440220348d03905d720f7bf4adf247195dcb30f4e581a88ca611ad2c336665acb10e73022034926b1fadbe03078c3210502f76cc34340b9e5a906ba1deb9ee9fc3c2a5b20d012102cc82e0824da5cc96d5967cfc06d4b82e29c44ce10cb86028d15b5e67ceb1b6cafbffffff0200e1f505000000001976a9149fc4e4b3c5a1331b93b26bcb290c7fa2633e304688ac40f8362c000000001976a9143f175272c8685646337257fdd4ff9837b3b37d0d88ac00000000"},{"txid":"2b59988ab83317341e9ee48a0ba80abf4399254089037dc7660d000de53565e7","version":1,"vin":[{"txid":"a5ea8e1bfcad3f860d8e2876486213d9448f14d0b4fae2d5f4c6f7ad9fd187bf","vout":1,"n":0,"addresses":["D5dAUAx3Ezg1q4dRgzKTBsxp4VJietWkDh"],"isAddress":true,"value":"52320495942","hex":"4830450221008e5dd501d7a6b0c9babca2f5d8b11ada06fb2918303c5f281b1fe8e64cde7b4802206f86df1d40eb42108ade7cad36226f9e1ba75cb282cab75ed12fcb387f4970b2012102cc82e0824da5cc96d5967cfc06d4b82e29c44ce10cb86028d15b5e67ceb1b6ca"}],"vout":[{"value":"1000000000","n":0,"spent":true,"hex":"76a914054eed59ece5b6aa1ef15f3713765e708cf3d5f688ac","addresses":["D5dAUAx3Ezg1q4dRgzKTBsxp4VJietWkDh"],"isAddress":true},{"value":"51162295942","n":1,"spent":true,"hex":"76a914054eed59ece5b6aa1ef15f3713765e708cf3d5f688ac","addresses":["D5dAUAx3Ezg1q4dRgzKTBsxp4VJietWkDh"],"isAddress":true}],"blockHash":"0c13cea0560ccf100ccfa2b484aaf6639f4a75fe9029708728abbf42423981bf","blockHeight":3070556,"confirmations":167818,"blockTime":1579517965,"value":"52162295942","valueIn":"52320495942","fees":"158200000","hex":"0100000001bf87d19fadf7c6f4d5e2fab4d0148f44d913624876288e0d863fadfc1b8eeaa5010000006b4830450221008e5dd501d7a6b0c9babca2f5d8b11ada06fb2918303c5f281b1fe8e64cde7b4802206f86df1d40eb42108ade7cad36226f9e1ba75cb282cab75ed12fcb387f4970b2012102cc82e0824da5cc96d5967cfc06d4b82e29c44ce10cb86028d15b5e67ceb1b6ca000000000200ca9a3b000000001976a914054eed59ece5b6aa1ef15f3713765e708cf3d5f688ac86ae82e90b0000001976a914054eed59ece5b6aa1ef15f3713765e708cf3d5f688ac00000000"},{"txid":"a5ea8e1bfcad3f860d8e2876486213d9448f14d0b4fae2d5f4c6f7ad9fd187bf","version":1,"vin":[{"txid":"0a43e6297dc2c63527bc0138e199cfe41b6b41c4877ba60a425bd425a7eafec9","vout":1,"n":0,"addresses":["DLKFsc4PWe6KSGbeXZPv9kgCrQQBycf6nc"],"isAddress":true,"value":"53478695942","hex":"483045022100db69f1b5966a47c20de9fcf9891ff6bda8f9ccd28336acd51276a4134290bd9002200c33d0c4bb76c8c0596a68fb715a8e7cc47ac98a65266f9ef40ea2de36ca3a9b012102debf9eb33094bbbf385e118614f4e8d67c946067677dd85de913415800148c5f"}],"vout":[{"value":"1000000000","n":0,"hex":"76a914054eed59ece5b6aa1ef15f3713765e708cf3d5f688ac","addresses":["D5dAUAx3Ezg1q4dRgzKTBsxp4VJietWkDh"],"isAddress":true},{"value":"52320495942","n":1,"spent":true,"hex":"76a914054eed59ece5b6aa1ef15f3713765e708cf3d5f688ac","addresses":["D5dAUAx3Ezg1q4dRgzKTBsxp4VJietWkDh"],"isAddress":true}],"blockHash":"336481816fe09f284657ebe3c98fca8fab4c3edd7e15ddbb5f8c19bd00326f9c","blockHeight":3070538,"confirmations":167836,"blockTime":1579516786,"value":"53320495942","valueIn":"53478695942","fees":"158200000","hex":"0100000001c9feeaa725d45b420aa67b87c4416b1be4cf99e13801bc2735c6c27d29e6430a010000006b483045022100db69f1b5966a47c20de9fcf9891ff6bda8f9ccd28336acd51276a4134290bd9002200c33d0c4bb76c8c0596a68fb715a8e7cc47ac98a65266f9ef40ea2de36ca3a9b012102debf9eb33094bbbf385e118614f4e8d67c946067677dd85de913415800148c5f000000000200ca9a3b000000001976a914054eed59ece5b6aa1ef15f3713765e708cf3d5f688ac46698b2e0c0000001976a914054eed59ece5b6aa1ef15f3713765e708cf3d5f688ac00000000"}],"usedTokens":111,"tokens":[{"type":"XPUBAddress","name":"D5dAUAx3Ezg1q4dRgzKTBsxp4VJietWkDh","path":"m/44'/3'/0'/0/0","transfers":12,"decimals":8,"balance":"50394795942","totalReceived":"160202987826","totalSent":"109808191884"},{"type":"XPUBAddress","name":"DAmfSJjQsNhZhG9ofHPVmBoycaVCsGyedt","path":"m/44'/3'/0'/0/6","transfers":3,"decimals":8,"balance":"55000000","totalReceived":"305000000","totalSent":"250000000"},{"type":"XPUBAddress","name":"DAzJEmCZXWWji8fjhKwA2WXZjbLNpbAbNa","path":"m/44'/3'/0'/0/7","transfers":1,"decimals":8,"balance":"77500000","totalReceived":"77500000","totalSent":"0"},{"type":"XPUBAddress","name":"DTUsUEgauBsHowJe2nuQMwVZ2irqhENJ6Y","path":"m/44'/3'/0'/0/8","transfers":1,"decimals":8,"balance":"66500000","totalReceived":"66500000","totalSent":"0"},{"type":"XPUBAddress","name":"DEcqrwwRs6gYH4YSvHhmiaPpd3DyQYa2uR","path":"m/44'/3'/0'/0/9","transfers":1,"decimals":8,"balance":"8454000","totalReceived":"8454000","totalSent":"0"},{"type":"XPUBAddress","name":"DGVDyBSb7NMzYna2V8u8exUecgUz2m4xXQ","path":"m/44'/3'/0'/0/10","transfers":1,"decimals":8,"balance":"3350000","totalReceived":"3350000","totalSent":"0"},{"type":"XPUBAddress","name":"DPdHGVnuP2k2CyY2zp4goS9EqQGD6hUzBR","path":"m/44'/3'/0'/0/11","transfers":1,"decimals":8,"balance":"5577000","totalReceived":"5577000","totalSent":"0"},{"type":"XPUBAddress","name":"DCKFrLUWqydYnX1Fs8iSzDqkskzATUoxpT","path":"m/44'/3'/0'/0/12","transfers":1,"decimals":8,"balance":"6688550","totalReceived":"6688550","totalSent":"0"},{"type":"XPUBAddress","name":"DBmCuiHwpBrGwFVRoKbpatCFFGQt5pxJ3T","path":"m/44'/3'/0'/0/14","transfers":1,"decimals":8,"balance":"90000000","totalReceived":"90000000","totalSent":"0"},{"type":"XPUBAddress","name":"DGy5ZmuRmF7qdhPnrNX6avTDYjABnS5xDk","path":"m/44'/3'/0'/0/17","transfers":1,"decimals":8,"balance":"5000","totalReceived":"5000","totalSent":"0"},{"type":"XPUBAddress","name":"DEnxVnyWxHCi64BwHDWHRuCnkTajMWzNQ6","path":"m/44'/3'/0'/0/19","transfers":1,"decimals":8,"balance":"100000000","totalReceived":"100000000","totalSent":"0"},{"type":"XPUBAddress","name":"DCtJGsdVMrr1MkXjHNq7JEw8g3wkV2Vucv","path":"m/44'/3'/0'/0/21","transfers":3,"decimals":8,"balance":"1000000","totalReceived":"2501000000","totalSent":"2500000000"},{"type":"XPUBAddress","name":"DMXSG11oMpiEXGVPFef22Gm3t6n5M3iC44","path":"m/44'/3'/0'/0/24","transfers":1,"decimals":8,"balance":"100000","totalReceived":"100000","totalSent":"0"},{"type":"XPUBAddress","name":"D9aUm1ghFCGAdf3A2F9yrfy7n8KcPUdQMP","path":"m/44'/3'/0'/0/25","transfers":1,"decimals":8,"balance":"100000000","totalReceived":"100000000","totalSent":"0"},{"type":"XPUBAddress","name":"DHBX9Bi3zPqypTuiTWyhwJofaYr57RkoCp","path":"m/44'/3'/0'/0/26","transfers":1,"decimals":8,"balance":"368650","totalReceived":"368650","totalSent":"0"},{"type":"XPUBAddress","name":"DSVfFWXDHk3X55egkvXALHy83XYz3xBDro","path":"m/44'/3'/0'/0/27","transfers":1,"decimals":8,"balance":"100300000","totalReceived":"100300000","totalSent":"0"},{"type":"XPUBAddress","name":"D9cgiTxGYh6aMveGG5Bu4HqHuujH7H1mYt","path":"m/44'/3'/0'/0/29","transfers":3,"decimals":8,"balance":"212600000","totalReceived":"54554702722","totalSent":"54342102722"},{"type":"XPUBAddress","name":"DUAqwidnicCws1SRyENmMJo2KekJmB72ZH","path":"m/44'/3'/0'/0/30","transfers":1,"decimals":8,"balance":"100000000","totalReceived":"100000000","totalSent":"0"},{"type":"XPUBAddress","name":"DTFB8Mf5zLx6fuEwheBUZmNUmyubQZkn8F","path":"m/44'/3'/0'/0/31","transfers":1,"decimals":8,"balance":"100000000","totalReceived":"100000000","totalSent":"0"},{"type":"XPUBAddress","name":"DKhsr9gcxfZ1EPGz7YK4BwWAPDeATwT94o","path":"m/44'/3'/0'/0/32","transfers":1,"decimals":8,"balance":"100000000","totalReceived":"100000000","totalSent":"0"},{"type":"XPUBAddress","name":"DSJVQRY3wyVPrXbEDMSeoFufWNSsMeKEuj","path":"m/44'/3'/0'/0/33","transfers":1,"decimals":8,"balance":"150000000","totalReceived":"150000000","totalSent":"0"},{"type":"XPUBAddress","name":"D6GBtZ7eWgeb9mWnewXzxJZFTBdp9wxkWP","path":"m/44'/3'/0'/1/14","transfers":1,"decimals":8,"balance":"53594096","totalReceived":"53594096","totalSent":"0"},{"type":"XPUBAddress","name":"DEWNmicZTDghQDGgBysziWnkQX7SJTTLB8","path":"m/44'/3'/0'/1/16","transfers":3,"decimals":8,"balance":"44999774","totalReceived":"590469146","totalSent":"545469372"},{"type":"XPUBAddress","name":"D9NnFbEq5xCqBa8HUx7nEdfcdazNqWMsJT","path":"m/44'/3'/0'/1/18","transfers":1,"decimals":8,"balance":"39281934","totalReceived":"39281934","totalSent":"0"},{"type":"XPUBAddress","name":"DHxauYh42gVDAuFzx5NjNDcNu5BqniTTwK","path":"m/44'/3'/0'/1/21","transfers":1,"decimals":8,"balance":"7807718","totalReceived":"7807718","totalSent":"0"},{"type":"XPUBAddress","name":"DEnByJTQuE5qW9LecZeUeqB8TShWRDpWhE","path":"m/44'/3'/0'/1/23","transfers":1,"decimals":8,"balance":"19811382","totalReceived":"19811382","totalSent":"0"},{"type":"XPUBAddress","name":"DDjudCpuaPaoi2FyiAVFu2vaxsAkJu5fxi","path":"m/44'/3'/0'/1/24","transfers":1,"decimals":8,"balance":"100175758","totalReceived":"100175758","totalSent":"0"},{"type":"XPUBAddress","name":"DDyapoohdiTuM5R8jjnpsnHsfW1NcSMrSL","path":"m/44'/3'/0'/1/27","transfers":1,"decimals":8,"balance":"75155276","totalReceived":"75155276","totalSent":"0"},{"type":"XPUBAddress","name":"DQwQAPehMc8B9cXTyHR852T73jKTpzttck","path":"m/44'/3'/0'/1/31","transfers":1,"decimals":8,"balance":"57559726","totalReceived":"57559726","totalSent":"0"},{"type":"XPUBAddress","name":"D98VNKCWrfxNnFRyTL5GnG81QrDhHa5oJb","path":"m/44'/3'/0'/1/37","transfers":3,"decimals":8,"balance":"100000000","totalReceived":"76212237584","totalSent":"76112237584"},{"type":"XPUBAddress","name":"DH8voVMkSxoyyLnd9TFvBEcbTRwk7DNqH1","path":"m/44'/3'/0'/1/49","transfers":1,"decimals":8,"balance":"580426","totalReceived":"580426","totalSent":"0"},{"type":"XPUBAddress","name":"DLEDSw71Emp4yJtp7q2HLXBapjVs7eSY42","path":"m/44'/3'/0'/1/58","transfers":1,"decimals":8,"balance":"90800000","totalReceived":"90800000","totalSent":"0"},{"type":"XPUBAddress","name":"DKix6fTygojRpBFbADfkYKDX9nZ2Y7Huqq","path":"m/44'/3'/0'/1/75","transfers":1,"decimals":8,"balance":"275400000","totalReceived":"275400000","totalSent":"0"},{"type":"XPUBAddress","name":"DMVPBRTD6bgqr3fk2yTdz97hS4AA2gzj8g","path":"m/44'/3'/0'/1/76","transfers":1,"decimals":8,"balance":"707100000","totalReceived":"707100000","totalSent":"0"}]}
