{"page":1,"totalPages":10,"itemsOnPage":10,"address":"zpub6rWUMiiVPxjWVHffT8x3AfcbyDu8SZJAiuKUTBmhxT7Bvqk1WitxndDStG1qHN6XzRM7JgsaRaVccRFW3AprWk4Fpaev1N6QSp1aNnP5JPf","balance":"412844353","totalReceived":"289739972697","totalSent":"289327128344","unconfirmedBalance":"0","unconfirmedTxs":0,"txs":98,"transactions":[{"txid":"686c651223b937b1223560a60631ad79ad17351c88bba67cad8ea0c95fccbb83","version":1,"vin":[{"txid":"1e3362ef26063cae601362721fcde1c0e856b7d81abc9e541ba38a0b15330689","sequence":2147483644,"n":0,"addresses":["grs1qa8pvadg835vy798nr3ktrvlkx07mggu4hqvv04"],"isAddress":true,"value":"100000000"},{"txid":"1e3362ef26063cae601362721fcde1c0e856b7d81abc9e541ba38a0b15330689","vout":1,"sequence":2147483645,"n":1,"addresses":["grs1qa8pvadg835vy798nr3ktrvlkx07mggu4hqvv04"],"isAddress":true,"value":"212864353"},{"txid":"dd7780ee2529f7030153737c8ee2a16ef32817cbd63b6aba8553c4ccbeac368d","sequence":2147483646,"n":2,"addresses":["grs1qa8pvadg835vy798nr3ktrvlkx07mggu4hqvv04"],"isAddress":true,"value":"100000000"}],"vout":[{"value":"10000000","n":0,"hex":"0014e9c2ceb5078d184f14f31c6cb1b3f633fdb42395","addresses":["grs1qa8pvadg835vy798nr3ktrvlkx07mggu4hqvv04"],"isAddress":true},{"value":"402844353","n":1,"hex":"0014e9c2ceb5078d184f14f31c6cb1b3f633fdb42395","addresses":["grs1qa8pvadg835vy798nr3ktrvlkx07mggu4hqvv04"],"isAddress":true}],"blockHash":"00000000000003a48c30ddfaa9c875b902e8372c448413ee65dba418601a5b7e","blockHeight":2998112,"confirmations":98914,"blockTime":1583831414,"value":"412844353","valueIn":"412864353","fees":"20000","hex":"01000000000103890633150b8aa31b549ebc1ad8b756e8c0e1cd1f72621360ae3c0626ef62331e0000000000fcffff7f890633150b8aa31b549ebc1ad8b756e8c0e1cd1f72621360ae3c0626ef62331e0100000000fdffff7f8d36acbeccc45385ba6a3bd6cb1728f36ea1e28e7c73530103f72925ee8077dd0000000000feffff7f028096980000000000160014e9c2ceb5078d184f14f31c6cb1b3f633fdb42395c1ea021800000000160014e9c2ceb5078d184f14f31c6cb1b3f633fdb423950247304402201b4acd75cb1186fba1405bd604a2e24a960d94a39e14316f4e6ef5289808e4c90220569d652a91ecc149d543d7aab0653a646ce60d8e3bed053d421907432bd7c9bd012102ab2d3112dfb83d7e08949ec32128e24a4be5c588640eee5028cdba56aae7b285024730440220426733a0a12dd1c34142d9814e74987fdbb41438189fb0bbed74ab2cd420a9b4022046dc588c6690b1ecba351b8a981ed3db63df9de95df49d5a8333b087b349b6c3012102ab2d3112dfb83d7e08949ec32128e24a4be5c588640eee5028cdba56aae7b285024730440220291f4932101719b70630233d53503854f456a0a944453a6105f4e2b95fde526b0220617d4dd0b4dd12e8917d15f80dadf617ec584fe650a31ca8f07f4d6869256549012102ab2d3112dfb83d7e08949ec32128e24a4be5c588640eee5028cdba56aae7b28500000000"},{"txid":"1e3362ef26063cae601362721fcde1c0e856b7d81abc9e541ba38a0b15330689","version":1,"vin":[{"txid":"dd7780ee2529f7030153737c8ee2a16ef32817cbd63b6aba8553c4ccbeac368d","vout":1,"n":0,"addresses":["grs1qa8pvadg835vy798nr3ktrvlkx07mggu4hqvv04"],"isAddress":true,"value":"312884353"}],"vout":[{"value":"100000000","n":0,"spent":true,"hex":"0014e9c2ceb5078d184f14f31c6cb1b3f633fdb42395","addresses":["grs1qa8pvadg835vy798nr3ktrvlkx07mggu4hqvv04"],"isAddress":true},{"value":"212864353","n":1,"spent":true,"hex":"0014e9c2ceb5078d184f14f31c6cb1b3f633fdb42395","addresses":["grs1qa8pvadg835vy798nr3ktrvlkx07mggu4hqvv04"],"isAddress":true}],"blockHash":"000000000000034560a3a07b6498c9b937da914a4f683d1575197a02c4b69a83","blockHeight":2989928,"confirmations":107098,"blockTime":1583315379,"value":"312864353","valueIn":"312884353","fees":"20000","hex":"010000000001018d36acbeccc45385ba6a3bd6cb1728f36ea1e28e7c73530103f72925ee8077dd0100000000000000000200e1f50500000000160014e9c2ceb5078d184f14f31c6cb1b3f633fdb42395610db00c00000000160014e9c2ceb5078d184f14f31c6cb1b3f633fdb4239502483045022100e0e7e5484f9d06120f0e3a63471d353d90b65ba63b0fbf640c714608414ffa5d02204556b0c2554bc33ebfb338d806fa1589df1e25afe251c5a7869cfad6e6ef0a61012102ab2d3112dfb83d7e08949ec32128e24a4be5c588640eee5028cdba56aae7b28500000000"},{"txid":"dd7780ee2529f7030153737c8ee2a16ef32817cbd63b6aba8553c4ccbeac368d","version":1,"vin":[{"txid":"d9f0569c6eac51a47d2405a09d17c8811a3ef8df212e88d3b6e75f27768b8d83","sequence":2147483645,"n":0,"addresses":["grs1qa8pvadg835vy798nr3ktrvlkx07mggu4hqvv04"],"isAddress":true,"value":"100000000"},{"txid":"797b24cb13964ee062c31d171a84f54431e7eb329b89669a8db36a01fa1ada32","sequence":2147483646,"n":1,"addresses":["grs1qa8pvadg835vy798nr3ktrvlkx07mggu4hqvv04"],"isAddress":true,"value":"312904345"}],"vout":[{"value":"100000000","n":0,"spent":true,"hex":"0014e9c2ceb5078d184f14f31c6cb1b3f633fdb42395","addresses":["grs1qa8pvadg835vy798nr3ktrvlkx07mggu4hqvv04"],"isAddress":true},{"value":"312884353","n":1,"spent":true,"hex":"0014e9c2ceb5078d184f14f31c6cb1b3f633fdb42395","addresses":["grs1qa8pvadg835vy798nr3ktrvlkx07mggu4hqvv04"],"isAddress":true}],"blockHash":"00000000000009f6f6a14d76c13faf60debfd01d068cabf22435b1d24236ecab","blockHeight":2989926,"confirmations":107100,"blockTime":1583314946,"value":"412884353","valueIn":"412904345","fees":"19992","hex":"01000000000102838d8b76275fe7b6d3882e21dff83e1a81c8179da005247da451ac6e9c56f0d90000000000fdffff7f32da1afa016ab38d9a66899b32ebe73144f5841a171dc362e04e9613cb247b790000000000feffff7f0200e1f50500000000160014e9c2ceb5078d184f14f31c6cb1b3f633fdb42395813ca61200000000160014e9c2ceb5078d184f14f31c6cb1b3f633fdb42395024830450221008a65a121c2569ccf2d0c030ac2a30ff4580586b146fe85ce81c7137fd4b2c7a70220613166d4734ebbbc4011a433571088395c6ce3002779021988e58113880029b2012102ab2d3112dfb83d7e08949ec32128e24a4be5c588640eee5028cdba56aae7b28502483045022100f5ca4d53375a62b0945a31ccb6ac736581d088e78a7f9a2fcef823950ac5cc1302204ae591f46de9ac64412a319c91fcd04b42378fd8be7bef21359a61ed3802a2df012102ab2d3112dfb83d7e08949ec32128e24a4be5c588640eee5028cdba56aae7b28500000000"},{"txid":"797b24cb13964ee062c31d171a84f54431e7eb329b89669a8db36a01fa1ada32","version":1,"vin":[{"txid":"25fad1c20e0618ebce0459c69abf6e9c892c07e38a0825568f74ab9cc1ffc629","vout":1,"n":0,"addresses":["grs1qa8pvadg835vy798nr3ktrvlkx07mggu4hqvv04"],"isAddress":true,"value":"10000"},{"txid":"95b6af107a45472754a76939acfc5ce4e324dcd3485630b9aa9fc9b9fcfb7ca5","n":1,"addresses":["grs1qa8pvadg835vy798nr3ktrvlkx07mggu4hqvv04"],"isAddress":true,"value":"10000"},{"txid":"6d7b5636e34cf5c43e545aeb6b2cd0ea7dbe855167d2f531b891d9e73bbbb161","vout":1,"n":2,"addresses":["grs1qa8pvadg835vy798nr3ktrvlkx07mggu4hqvv04"],"isAddress":true,"value":"10000"},{"txid":"c9dc7ce72e9db78c86f9223e28b4b1b822a8f30fb71378e28cc2f49bdb8873de","vout":1,"n":3,"addresses":["grs1qa8pvadg835vy798nr3ktrvlkx07mggu4hqvv04"],"isAddress":true,"value":"10000"},{"txid":"be861703ed533e39310b5e84bf45de3c6d0a009e4afc63d18168bf00f98edde2","vout":1,"n":4,"addresses":["grs1qa8pvadg835vy798nr3ktrvlkx07mggu4hqvv04"],"isAddress":true,"value":"60000"},{"txid":"dc4c38bec0e3ded98269cdf9651ed82936d4282bde51bbcc441a718a0f9b44d2","vout":1,"n":5,"addresses":["grs1qa8pvadg835vy798nr3ktrvlkx07mggu4hqvv04"],"isAddress":true,"value":"60000"},{"txid":"2afd7b893fade931618b5a20a5879970af9ece772f463227e09d555505f778e4","vout":1,"n":6,"addresses":["grs1qa8pvadg835vy798nr3ktrvlkx07mggu4hqvv04"],"isAddress":true,"value":"60000"},{"txid":"fc02e239d2fe65e10e0ac78c8b966140c61c47e66a6e8db67c2a2c26441284d4","vout":1,"n":7,"addresses":["grs1q9lgx0rfcxwra3q76uudtc0z5gsrx74p9eqeezt"],"isAddress":true,"value":"80000"},{"txid":"2afd7b893fade931618b5a20a5879970af9ece772f463227e09d555505f778e4","n":8,"addresses":["grs1qa8pvadg835vy798nr3ktrvlkx07mggu4hqvv04"],"isAddress":true,"value":"100000"},{"txid":"be861703ed533e39310b5e84bf45de3c6d0a009e4afc63d18168bf00f98edde2","n":9,"addresses":["grs1qa8pvadg835vy798nr3ktrvlkx07mggu4hqvv04"],"isAddress":true,"value":"100000"},{"txid":"8d5198d4dcaa1806cd717adc6117f23fe6a2c54aef6e27e93d99620bf4dc851e","vout":1,"n":10,"addresses":["grs1qa8pvadg835vy798nr3ktrvlkx07mggu4hqvv04"],"isAddress":true,"value":"140000"},{"txid":"d3fcee7c551b130583ac4d3122b105cc87026435949372c78d8b61fa9c3ff77a","vout":1,"n":11,"addresses":["grs1qysqxuj7vx04drafu6rx03vp0wgk9rg5pcqsduq"],"isAddress":true,"value":"160000"},{"txid":"d3fcee7c551b130583ac4d3122b105cc87026435949372c78d8b61fa9c3ff77a","n":12,"addresses":["grs1qn6wqssh5d5tc7zhwhj6erp6p28h879480e7tnj"],"isAddress":true,"value":"300000"},{"txid":"1a836aa25b8939c36df133f50104cbc6e00f91f0a6b02fd2951ad1a7260615f8","n":13,"addresses":["grs1q33p5fx3r3zlq7ckqhkh0vr9gx5xz3tltkewrs6"],"isAddress":true,"value":"300000"},{"txid":"a02cb677515fa2431b44139883d3d31ef71a0097489743f4397617698f9e0c72","n":14,"addresses":["grs1qa8pvadg835vy798nr3ktrvlkx07mggu4hqvv04"],"isAddress":true,"value":"300000"},{"txid":"6eec066fcf8a8029faee4f74ecc5264332ac3605e15de79b4a53660bd901203c","vout":1,"n":15,"addresses":["grs1qa8pvadg835vy798nr3ktrvlkx07mggu4hqvv04"],"isAddress":true,"value":"380000"},{"txid":"3e5e9e1de659729be31cd63deafecd29bf2b7766fad0f0ae907b7a5b260401f2","vout":1,"n":16,"addresses":["grs1qaqkc5ll6x0w4dx3g60n7w7gtd26np3lx0wwsey"],"isAddress":true,"value":"380000"},{"txid":"8df8d4f4375264cc5578e46f34c0d0cb1de19c2958220b7b4fd7a34afe6f627e","vout":1,"n":17,"addresses":["grs1qysqxuj7vx04drafu6rx03vp0wgk9rg5pcqsduq"],"isAddress":true,"value":"480000"},{"txid":"46d956d92c85161547038e6d9ecd4205505bc23809bea9979e0d380d78267c32","vout":1,"n":18,"addresses":["grs1qnflfe7dvfp4vysv4m8z0k9chqkteqe2w5ta8vh"],"isAddress":true,"value":"480000"},{"txid":"3e5e9e1de659729be31cd63deafecd29bf2b7766fad0f0ae907b7a5b260401f2","n":19,"addresses":["grs1q0zch5h5uxtfx94x6nh7levd78mq8gj67pa7wta"],"isAddress":true,"value":"600000"},{"txid":"4b994083a3f3ccc73783065c0a23bf9890790f295890edbd2ac8166c52dc77d7","vout":1,"n":20,"addresses":["grs1qa5gxtj9ls89rfjr6ccjydqm7xhq2x5zqvm6dm8"],"isAddress":true,"value":"840000"},{"txid":"b4ea5e7a4006b18410c38302382853e2fcaedb07a58cd53c3cc0ecb0a5f01c2e","vout":1,"n":21,"addresses":["grs1qa5gxtj9ls89rfjr6ccjydqm7xhq2x5zqvm6dm8"],"isAddress":true,"value":"980000"},{"txid":"1b083e1587a090590237b72a68837bb5fce67f50b87ce6933bdfcd24dff0f784","vout":1,"n":22,"addresses":["grs1q5xq4vqyf9jg6mrcjugghkhq0m7ksvl73v6eeq6"],"isAddress":true,"value":"980000"},{"txid":"b4ea5e7a4006b18410c38302382853e2fcaedb07a58cd53c3cc0ecb0a5f01c2e","n":23,"addresses":["grs1qw6spp4sev3c24mhydkllhpt8yt0gvd7tna7pce"],"isAddress":true,"value":"1000000"},{"txid":"b883f18c47a0e7fa25a461b1b8f3ac43d5c4b10be82c3c851931d01047a3a35c","n":24,"addresses":["grs1q66aqr09y4efltet3xu3dl9uxd2cwen9gvmnfdl"],"isAddress":true,"value":"1000000"},{"txid":"8d5198d4dcaa1806cd717adc6117f23fe6a2c54aef6e27e93d99620bf4dc851e","n":25,"addresses":["grs1qa8pvadg835vy798nr3ktrvlkx07mggu4hqvv04"],"isAddress":true,"value":"1000000"},{"txid":"0f9a5819a6cfd389c7870bcdff147e3db787b2682b3c36f51260090458f4c02c","n":26,"addresses":["grs1q3uaxdr5xpk9p3h7dg29gecn6lpy80zn394pkd7"],"isAddress":true,"value":"1000000"},{"txid":"655e88b80ef0c7818014a3711b7cfcf66fd572d886251db55f529756e62fa157","vout":1,"n":27,"addresses":["grs1qulmmx7q6r5gp0w34zz5zv84zmp3al2hmg5ansl"],"isAddress":true,"value":"1960000"},{"txid":"655e88b80ef0c7818014a3711b7cfcf66fd572d886251db55f529756e62fa157","n":28,"addresses":["grs1qgjazwnlc5hnss57u7tg3zzxlvgsxra0chljv40"],"isAddress":true,"value":"2000000"},{"txid":"1b083e1587a090590237b72a68837bb5fce67f50b87ce6933bdfcd24dff0f784","n":29,"addresses":["grs1qs2xyel4tgejyfxylv5xdaxaafnf2qmhsnpar8l"],"isAddress":true,"value":"3000000"},{"txid":"3c662c0051f454df3c998067cbe5028f45a0789a47c331dab6b92bde908de04f","vout":1,"n":30,"addresses":["grs1q7gldkf5p8083nz3dmsktdm3sfdej5n3cwmcaw6"],"isAddress":true,"value":"9860000"},{"txid":"f3078100a2485b62294b257953c89dff6032f4e7b2b81e2e02a304248e5eefec","n":31,"addresses":["grs1qtunv3tapt3ak5str09hfee4zfpwn8lc5ccam3v"],"isAddress":true,"value":"10000000"},{"txid":"3c662c0051f454df3c998067cbe5028f45a0789a47c331dab6b92bde908de04f","n":32,"addresses":["grs1q9hlg5xwfl5tmytung3qrwxfwvd60h897cgzscv"],"isAddress":true,"value":"10000000"},{"txid":"71417cb19534d074f449c12a7fd3c15f6cbe6df063d8035e89859067ddb5e126","n":33,"addresses":["grs1qqc9srdr2l22e3dt99ex738a9apy32swzc5y4r3"],"isAddress":true,"value":"10000000"},{"txid":"9c2b150712803cd419317c417cb8ccf0cc50d22b65c2667f4e677f77fb64b8a9","n":34,"addresses":["grs1qeysq7696ymswzd3nvgq5kngktktkf08ettu2t8"],"isAddress":true,"value":"10000000"},{"txid":"7bda34b60a14f1eb886c1a4ae771754fc7c4e75fae306a72d471c3eedfb1bbc4","n":35,"addresses":["grs1qj4qacxpay5v6p4rpa8juec6fjpjjlg740emrg3"],"isAddress":true,"value":"10000000"},{"txid":"7b3161f9892fb1b7aa08e0a039ebca3c8cd34129f3b7d9d04992d3b73e67e4e6","vout":1,"n":36,"addresses":["grs1qgjzg0rz25atwg4l968xswklhpqj3ngl4kuyl0v"],"isAddress":true,"value":"19980000"},{"txid":"b79cbc6d51b89cdf1756b8c26a2f51a93a5b86c4c35800dbbb7f3f87e7c9940e","n":37,"addresses":["grs1qmmvgl0em0wtvqf9l3fm4fef7ps6k0ckgwd8twz"],"isAddress":true,"value":"20000000"},{"txid":"b79cbc6d51b89cdf1756b8c26a2f51a93a5b86c4c35800dbbb7f3f87e7c9940e","vout":1,"n":38,"addresses":["grs1qsufm8h68fthghkwcu54kshf5jfzunjttek8djl"],"isAddress":true,"value":"29980000"},{"txid":"7b3161f9892fb1b7aa08e0a039ebca3c8cd34129f3b7d9d04992d3b73e67e4e6","n":39,"addresses":["grs1q28w2mmdepq549ylzfx8k6cpauuu6nzp2gw0kv9"],"isAddress":true,"value":"30000000"},{"txid":"4800c0d049ca18e7baac7c3e3b01e1a8109e4e013b3179edc1bb4d8c91dee58e","vout":1,"n":40,"addresses":["grs1qmvsay76u2re6vet9aul6etqzsmnv09rzq63g3d"],"isAddress":true,"value":"35324345"},{"txid":"56a1af8000df7c13a8a5ec0c47c5a9a578392197510cf244a8a1aeeaf399e04b","n":41,"addresses":["grs1qa8pvadg835vy798nr3ktrvlkx07mggu4hqvv04"],"isAddress":true,"value":"50000000"},{"txid":"0d8b50f75abb2ce4d45a96b58d2f785df7839fb0857ae4802f7e7f7af41b8201","n":42,"addresses":["grs1qa8pvadg835vy798nr3ktrvlkx07mggu4hqvv04"],"isAddress":true,"value":"50000000"}],"vout":[{"value":"312904345","n":0,"spent":true,"hex":"0014e9c2ceb5078d184f14f31c6cb1b3f633fdb42395","addresses":["grs1qa8pvadg835vy798nr3ktrvlkx07mggu4hqvv04"],"isAddress":true}],"blockHash":"000000000000000fc88ac750552c327173b6532a50e71bc4c96a6c6b2b431eb0","blockHeight":2964150,"confirmations":132876,"blockTime":1581688771,"value":"312904345","valueIn":"312924345","fees":"20000","hex":"0100000000012b29c6ffc19cab748f5625088ae3072c899c6ebf9ac65904ceeb18060ec2d1fa25010000000000000000a57cfbfcb9c99faab9305648d3dc24e3e45cfcac3969a7542747457a10afb69500000000000000000061b1bb3be7d991b831f5d2675185be7dead02c6beb5a543ec4f54ce336567b6d010000000000000000de7388db9bf4c28ce27813b70ff3a822b8b1b4283e22f9868cb79d2ee77cdcc9010000000000000000e2dd8ef900bf6881d163fc4a9e000a6d3cde45bf845e0b31393e53ed031786be010000000000000000d2449b0f8a711a44ccbb51de2b28d43629d81e65f9cd6982d9dee3c0be384cdc010000000000000000e478f70555559de02732462f77ce9eaf709987a5205a8b6131e9ad3f897bfd2a010000000000000000d4841244262c2a7cb68d6e6ae6471cc64061968b8cc70a0ee165fed239e202fc010000000000000000e478f70555559de02732462f77ce9eaf709987a5205a8b6131e9ad3f897bfd2a000000000000000000e2dd8ef900bf6881d163fc4a9e000a6d3cde45bf845e0b31393e53ed031786be0000000000000000001e85dcf40b62993de9276eef4ac5a2e63ff21761dc7a71cd0618aadcd498518d0100000000000000007af73f9cfa618b8dc772939435640287cc05b122314dac8305131b557ceefcd30100000000000000007af73f9cfa618b8dc772939435640287cc05b122314dac8305131b557ceefcd3000000000000000000f8150626a7d11a95d22fb0a6f0910fe0c6cb0401f533f16dc339895ba26a831a000000000000000000720c9e8f69177639f443974897001af71ed3d3839813441b43a25f5177b62ca00000000000000000003c2001d90b66534a9be75de10536ac324326c5ec744feefa29808acf6f06ec6e010000000000000000f20104265b7a7b90aef0d0fa66772bbf29cdfeea3dd61ce39b7259e61d9e5e3e0100000000000000007e626ffe4aa3d74f7b0b2258299ce11dcbd0c0346fe47855cc645237f4d4f88d010000000000000000327c26780d380d9e97a9be0938c25b500542cd9e6d8e03471516852cd956d946010000000000000000f20104265b7a7b90aef0d0fa66772bbf29cdfeea3dd61ce39b7259e61d9e5e3e000000000000000000d777dc526c16c82abded9058290f799098bf230a5c068337c7ccf3a38340994b0100000000000000002e1cf0a5b0ecc03c3cd58ca507dbaefce25328380283c31084b106407a5eeab401000000000000000084f7f0df24cddf3b93e67cb8507fe6fcb57b83682ab737025990a087153e081b0100000000000000002e1cf0a5b0ecc03c3cd58ca507dbaefce25328380283c31084b106407a5eeab40000000000000000005ca3a34710d03119853c2ce80bb1c4d543acf3b8b161a425fae7a0478cf183b80000000000000000001e85dcf40b62993de9276eef4ac5a2e63ff21761dc7a71cd0618aadcd498518d0000000000000000002cc0f45804096012f5363c2b68b287b73d7e14ffcd0b87c789d3cfa619589a0f00000000000000000057a12fe65697525fb51d2586d872d56ff6fc7c1b71a3148081c7f00eb8885e6501000000000000000057a12fe65697525fb51d2586d872d56ff6fc7c1b71a3148081c7f00eb8885e6500000000000000000084f7f0df24cddf3b93e67cb8507fe6fcb57b83682ab737025990a087153e081b0000000000000000004fe08d90de2bb9b6da31c3479a78a0458f02e5cb6780993cdf54f451002c663c010000000000000000ecef5e8e2404a3022e1eb8b2e7f43260ff9dc85379254b29625b48a2008107f30000000000000000004fe08d90de2bb9b6da31c3479a78a0458f02e5cb6780993cdf54f451002c663c00000000000000000026e1b5dd679085895e03d863f06dbe6c5fc1d37f2ac149f474d03495b17c4171000000000000000000a9b864fb777f674e7f66c2652bd250ccf0ccb87c417c3119d43c801207152b9c000000000000000000c4bbb1dfeec371d4726a30ae5fe7c4c74f7571e74a1a6c88ebf1140ab634da7b000000000000000000e6e4673eb7d39249d0d9b7f32941d38c3ccaeb39a0e008aab7b12f89f961317b0100000000000000000e94c9e7873f7fbbdb0058c3c4865b3aa9512f6ac2b85617df9cb8516dbc9cb70000000000000000000e94c9e7873f7fbbdb0058c3c4865b3aa9512f6ac2b85617df9cb8516dbc9cb7010000000000000000e6e4673eb7d39249d0d9b7f32941d38c3ccaeb39a0e008aab7b12f89f961317b0000000000000000008ee5de918c4dbbc1ed79313b014e9e10a8e1013b3e7cacbae718ca49d0c000480100000000000000004be099f3eaaea1a844f20c5197213978a5a9c5470ceca5a8137cdf0080afa15600000000000000000001821bf47a7f7e2f80e47a85b09f83f75d782f8db5965ad4e42cbb5af7508b0d00000000000000000001998aa61200000000160014e9c2ceb5078d184f14f31c6cb1b3f633fdb4239502483045022100dda68285f5c98ac3f1736ff190a2e931192e38119ea4620ff0c340eee3a225380220118714a3c2fd206a5ef30e6508d2a0c1394abbcd66a00ab11a764e5b2b9456a1012102ab2d3112dfb83d7e08949ec32128e24a4be5c588640eee5028cdba56aae7b2850247304402200aa1d6e9353c2e3375bb8e12821c5974b1698a18d07fccb905fb32cbcf36401c022062c65f61b2413cd6a8e2517ce9f854409b937447be27ebfcf0b20770352acd76012102ab2d3112dfb83d7e08949ec32128e24a4be5c588640eee5028cdba56aae7b2850247304402202335efbc7588bb997a7fe685d345a14d54e5474c97512f51e75272cd7ff542db022003d098bbaf1f29432e030025f326116b74801f162cbe0db2720bd4e15b6a5867012102ab2d3112dfb83d7e08949ec32128e24a4be5c588640eee5028cdba56aae7b28502483045022100e3b26a46738dc8992208c17adda2384424f8c303ee82f5fe2035fa7b4cc224ac02205a713efa63f972a9018b3766d03344a01b5818547917eebb67030bfd11a5b41e012102ab2d3112dfb83d7e08949ec32128e24a4be5c588640eee5028cdba56aae7b2850247304402205ecce3bfe33360ceff821d16ffdb98393ebfa0b70c21d8d7eb9d3586434ea05f0220507b34ef4ddbb61c9d4c25bea254b3bac8b7421434dc25ab051f59cc5fbef014012102ab2d3112dfb83d7e08949ec32128e24a4be5c588640eee5028cdba56aae7b2850247304402207e9ed9125afa12d60bb40202fb640c5ea42093a402bff3eece690eabcb67d992022054f0cdc1632ae450c2fe3ce684bac9c6b35550275f30cd741aa2ab8b7f74b12a012102ab2d3112dfb83d7e08949ec32128e24a4be5c588640eee5028cdba56aae7b2850247304402205013558c3a4645648289d2d583af3c0a16cfbd119473ba797b24da4dfc4fdd36022078469ba29159cfc01eea2e64d531726aee9f7c2d1655f3ec3ee87c9dbf10572a012102ab2d3112dfb83d7e08949ec32128e24a4be5c588640eee5028cdba56aae7b28502483045022100c979d0c578e73a54396921c4873cb6b9621bcdb1724cba891bdfa4b7983dbff70220490b4bb09552de441f34258598337202943209e5c3eb9af719e3e12359e6a8c2012103edbd754a1d9e666428585215dcc08c6c5b53fbfc7ec43c9ed2347816e1859f7402483045022100e291508a1006a8587e6be61b87aebdde15eacb50be63744a844be0b57c59358b022040b03991009ae49e3a7c98dcf84e8be3a414ca7c8409d1faa4a1997cfc0bcb33012102ab2d3112dfb83d7e08949ec32128e24a4be5c588640eee5028cdba56aae7b28502483045022100b250cf13aa399054afa288dd117a7bef97dd09b18f98d1cd248968e1a902d8d402207ccb8d5a4925ddc187e074f196ccd6e7a1ea9609496ac5405a73ea870892f5eb012102ab2d3112dfb83d7e08949ec32128e24a4be5c588640eee5028cdba56aae7b28502473044022075f9cf4f883488c5d5ffcbd6d74f7f8596fd4814ed1fed839954b4bd4b9c05b702204b4bb5aae4bc5da1e2b236de733931691e0fb447a1a1f94737586980981f9f16012102ab2d3112dfb83d7e08949ec32128e24a4be5c588640eee5028cdba56aae7b28502473044022001dcebb22afea18d449bbd3234d62a6fcf7e43e4de33b1a220b0e29940c567b70220568ae3f748d34b3e005406e068ad3e1be3a882d6adb897fa524e0559d1f6ffcc012102d50eb39ae3640520b11a145af5351d094f1d45165f80a88c21fde0acbca8c2b802483045022100862c018754abfbb449daa3b0c110af58180d7584d64f300665965ed9797595fe02202aee69f243ddd79f266b631faa515d8e585f5f0944f625e06378f3d4864ba5ae012102691c3911914784cc628a9248454cee36757f94f073a7d46205c623f1202e4cad02483045022100a15f8d3ce18d804fa06c61d474a4b7e52bfc39892453f7f74520875ccebe4a6a02202b82212215f387618407af1288b2092b63233b131e0d73729cd67ec01c2fe580012102c70aa060c3c3194145309d71208931107a943c426bb2460729e059d957a67ca00247304402203cd32aacdb7a6d9d9e4360ac5545a861ae00d6062d90a49eb3e5f599e695596d0220564ef105ce68d87465d8a84f7af28029b902f88b6a9a86d3c9976fb06d511dfc012102ab2d3112dfb83d7e08949ec32128e24a4be5c588640eee5028cdba56aae7b28502483045022100c0ade5d0763e0ea114d5c3099dff0dc976a602cc11938e97cdbcf9eca36968c40220745c82706ab10fd96be689607b21cab3057631bd4dbd9ad6edfb2a5fc8e72abc012102ab2d3112dfb83d7e08949ec32128e24a4be5c588640eee5028cdba56aae7b28502483045022100d80bbcd4b4ba5345a60c6f6b03499f51316e98cffd81c268f29bfb6bbc95c11802200cd135a3d96d29e9a1718907ab4565d20672f081cc1d10db05dcfd467c4a5e1301210399869f1bb9ca5b578bd9867e9a3ad4307f45f86bf25e086f73e9785167d18c4a0247304402205cca5d4234b7f2501cff3e35931b2823afada7331ec042166e60d887a024603c02206d6c8886d82234a79b06feca0cf26c08c2de6863461575505516cd1d38066d85012102d50eb39ae3640520b11a145af5351d094f1d45165f80a88c21fde0acbca8c2b802483045022100cb5d9e03a736844a75ab55e8211f5838d937d7ea1aa58094fc5d306f9dc14d980220242d1c153724d3350434a97b5cba84cc3531e2e1b2ac775a5ba0c4a22566220001210200bba2d78064e88196be9e44d01e3d633cae02a8a97bbd294ad5b4743466fa6402473044022057fd34054630770dfafcc1107d139795cefbc6becebb18d8f4ccd64cfcf8eb51022057d9235605db264d0f2c482ff9a9933a5295710238cd47cfe53bf09748961c0701210313b7f74f6ccff0e60fec38a6ddcfc85516f6347fe37a84355839cc5b6bd7e5ef02483045022100b78ff12d1f317dea3727bdfe1d5a2a6b2de33cc54ce52d7d42db71a06a6c502902200f9ccd01627e64102090254ba95a0fd93abc4b9a2a72e5673a00958708695178012102067face2b5fd21d6a0c71a2f52592cffc4607b3bda6da141576fadfa8e2fe8ed024730440220388dbad76966e966c4b0a6a9027fb7e28bae393ba5e20e6c352043abef5ff47c022002e0a9de09e3492b3084fbfb2396d9c4ffd12b20b4019512dfe5a5e813582561012102067face2b5fd21d6a0c71a2f52592cffc4607b3bda6da141576fadfa8e2fe8ed02483045022100ca8d7921e5515103abad52d2405f0c5bb59f558a13e5a8db81fe4b10a75da883022021e549a9efe783fbfeabfa1f7572bcc25573cc13046e05cccc85682aa565c1fd0121038b2213fedf1a31fb64893c17bcf95e3a44527ed19b2889afa55afefb85ebf1d302473044022013d1e23a2d2497b9560c2523263c73039a234411826bf50c86100e7e3c8fdd34022072c6fe7ec2d44677994f67339d46d6f6599ca618664c7386590faf16b4cec48a012102811ba8512dd3376f5365d46fd3129496813225c2f7cff20648c1ea1ca0e7467b02483045022100c9d4eba9da02605bfc9ca54033d4d2d18df5060f366faf6582bcbb3575ca60f8022079ff03cb214838d9455b1d23d0eb5d6f980e3d16757fe7973c15ac8405eac5aa01210277a931902ec986935cc7c50acbd9767392c047951f9f492193d23fbd5c1477aa024730440220290d63712eb341898d4d8f28f9a480ed6424f09965c545c7300f964d319176060220729b56e7fae20d56a032362cf020395907693f32d52e356dbd755811f95d0c09012102ab2d3112dfb83d7e08949ec32128e24a4be5c588640eee5028cdba56aae7b28502473044022010dcdbe82f785ccdd5b896aa91226aa8e071d0cd5b30dab8dfae9294296b394c02200ec34b1e4f8c992e70ab951caa8965193a8fa1602054ce6af682bd9b77d49ba7012102ec51df51936fc88305953727467960ef6f20c7b1e94484f60e0042e6e083974102463043022068f4223f9427cf521901f02715dd13ad228780073f7f0e2859fc4a148bcd5172021f0bcf979a56b14990d2db33928e67e7fad6073934ad8d7b710a456b9a5802ef01210275a6842bf4f000cc2b65034379a2cd240d241d9889027830e14d5d04b89fc7a90248304502210094baa0d9f3d91906deb394ec1c0f1e90ce4abb900eb1aebc4147e6a93daa577c02203793da9cc37682e7e3e17a3fcb8db864c55117cbda1cf9e8f7666ddcc724fe200121021c88fdbed94569b9673316a7ecf1b294e852d4778fdc0a540756cb11ce7d0e7102473044022005acf933345d5d2f80d95cc51a7bc852566127b6345b910aec679c3f89a7854802206b83101cc2d58c5a6e44c4bd99c750100b82ed0b2d7eb83640f215fa8bc7ea48012102d342287ffcd5b1d6e5ad75f526f253a914729c4cbc1db7f9837c55345479ebbd02483045022100a92afd6ff17e1bf4f034e6708e5b3a9fecfb921ddcac143f972c7f6c9ea90983022056373802c75b39898a04a70dd19d15b41f9a63fb6b199d0adf22ba6aa6d05cf6012103ef14c253b8c2d8e70f52e12066a87891dc36f388a7969711995871d0296c198f02483045022100ee66c3c4511f8e792c2291b59b686d1461b6d70e9ba82452db882c5cab4c4aa302201134ca0be18ab192fbf560b81037ce3db6c14b355eb54297c258a343fd1670620121036879b519b860ce9a0163705cb455ad9ca0f8916aaee9199c15dfaa195fd1e5ff02473044022070c2dba854e7a4805231131b99a5019edf7a9257c190481f85da2cb64c5ad23a02202ac776845c473e4d531bc72dbef7d1bb56b7e91c47782d875b402d42ac48a745012103b19992fe4f69e4178ce4235c1f97f7744cc7f134e9c31fb4b13cc05e4a717cc0024730440220546dc2404fc2f7d293876daa89bc57a0e5a8ac70c6477e1657a9689f694d844d02202798957ce5e07042e70fe07c9e961ab37f6c609d4eea44829c90d3f4641bf4b9012103e64a3083a453563dc008f59057fd3d8ecba0b8cca3ee063c0e9969a0aa5c673502473044022003879cbd7269be371c29cf3a8700c61a4c4e5aa9a3e201707787a731b2953d4702200f2365c53ce69a9887bd253d727cd3f1c4ee03fd2aa2abe3773f7b71645c1519012103c824f725960ebfaffbead29603ff839946d56ab49f8752b98340a94e558f3c0a02483045022100ca17414822a367194f09110591bb1db4c665a2d9dc47ced5f6274725c4c1e37e02201edcb9f84e293343a1386a928a135275bf7e08b30863a8d68d000b71c6b65681012103ffeadeb731370d6499f9a76d05351934a2e7ed1617d14dd84802c53177caeb3b02483045022100af87f2203f91194d6a49214062289c3d740671c87f0bf868cf0339b62d3da4810220137f6f743a9fde2353174b63dcab37544ffa3a2204002497cd3803d11d38341a012102440e20dc21e094ae046df896c4f56fed4fe0ca2e28e1497bb8e0f4d40049644c0247304402202aa214769893ae100d4e3f209d2ae4cfceb303fa033531d91764b23eb3d53a7602205888afaa73a7a9c7f42ab7f3ebd1feb5ab06d9679ed52e858441632a9c8cb8570121039d5aaa3e073c087f2fe02543dc8bea715999374b6ca4d33e0594169b4d162b080247304402206e2444c90bb2bab858b59613c6078373b1aec997a624d09e86a4a0545108bfba02204fbb292824da95fa0f456d936016d30ebc622f5cf6286faa9f5193247c4b70300121031e2eecd58bb0db3f57bfe5ff67b6178da2a9d823c8796be737bd0b6fa92ba5ad024730440220400a612984efc092a31efc5b50b8d80353b7412a32298fd4e053fb488ad1e07102206ffb46bce7b25745b3713f85105668409a51c6081c037804256825a2888ff7580121023d966cc3d039eab86c6e336c6fc1e9a52cf580c9960b7547a47989b0b8a5dd83024730440220157a51269fdf2ffa2a309440f11f796367c8459353bf52d4e2fd2628313007790220252732976412d249252de8b5a835218598ecfdb7c8fc5591465855163dc359d9012102168643c5e8d097fd3bf12053d2c5f04ad5eede983ff6dd1eb4ef4b81122eb396024730440220211f11b60f6ad795f09fef7d83bbe731c0b57628c879e1ba657a782a8538844b02200cf54877fdd5c5c4b69fd7ed8c2277d81af7f302ab89ea7573f0f1fce080159c012102ab2d3112dfb83d7e08949ec32128e24a4be5c588640eee5028cdba56aae7b285024830450221008c1bea7747fc0600327df340bedffb8824497f74b0c2c556c33511f6c186bf0402200f6c2d70daa9f1a9c7d15a7697d5de838eae1a2b4537a6a4c8376e0e2e19dcdc012102ab2d3112dfb83d7e08949ec32128e24a4be5c588640eee5028cdba56aae7b28500000000"},{"txid":"d9f0569c6eac51a47d2405a09d17c8811a3ef8df212e88d3b6e75f27768b8d83","version":1,"vin":[{"txid":"0aac62c7f63dea9398e7f5459432b2228c2896d4e68a11a02e66b91f5336e403","vout":1,"n":0,"addresses":["grs1qzj8ha64pvccsu0yvel8uqvgdndcg8zx0rm30dt"],"isAddress":true,"value":"388937964"}],"vout":[{"value":"100000000","n":0,"spent":true,"hex":"0014e9c2ceb5078d184f14f31c6cb1b3f633fdb42395","addresses":["grs1qa8pvadg835vy798nr3ktrvlkx07mggu4hqvv04"],"isAddress":true},{"value":"288917964","n":1,"hex":"0014d19952adf465581f3262bded696cd869cf9619d6","addresses":["grs1q6xv49t05v4vp7vnzhhkkjmxcd88evxwkjeukhc"],"isAddress":true}],"blockHash":"000000000000000fc88ac750552c327173b6532a50e71bc4c96a6c6b2b431eb0","blockHeight":2964150,"confirmations":132876,"blockTime":1581688771,"value":"388917964","valueIn":"388937964","fees":"20000","hex":"0100000000010103e436531fb9662ea0118ae6d496288c22b2329445f5e79893ea3df6c762ac0a0100000000000000000200e1f50500000000160014e9c2ceb5078d184f14f31c6cb1b3f633fdb42395cc89381100000000160014d19952adf465581f3262bded696cd869cf9619d602483045022100b94d6b8dacffa6bd2eb7d34ecdd3f330b4b9df8b8ea8e5c6fcc1d9f9777fb377022049cc1534a177f296b03f0fcc6821501433add29990dfe795ca28f41e2e22008d0121037d4305c4c893c806fe789e46eb9e16926ac7c43fc99c8c3602ae04185dad512b00000000"},{"txid":"4800c0d049ca18e7baac7c3e3b01e1a8109e4e013b3179edc1bb4d8c91dee58e","version":1,"vin":[{"txid":"568acc4f54ce8eb03e09ccc16dbeee2b882f6ed620d565708133f71e0e163b60","vout":1,"n":0,"addresses":["grs1qa8pvadg835vy798nr3ktrvlkx07mggu4hqvv04"],"isAddress":true,"value":"145474926"},{"txid":"027f784db0849c599b411e8690f257bc3feb23272ffe709c7d486626c4872955","vout":1,"n":1,"addresses":["grs1qa8pvadg835vy798nr3ktrvlkx07mggu4hqvv04"],"isAddress":true,"value":"439889419"},{"txid":"56a1af8000df7c13a8a5ec0c47c5a9a578392197510cf244a8a1aeeaf399e04b","vout":1,"n":2,"addresses":["grs1qa8pvadg835vy798nr3ktrvlkx07mggu4hqvv04"],"isAddress":true,"value":"449980000"}],"vout":[{"value":"1000000000","n":0,"spent":true,"hex":"76a914bc3b34231b16f2af9d41c100ab833510c1d81b0988ac","addresses":["FnKzQWuu8zcL3u6hEuNZDsjBpgfDMhMhE1"],"isAddress":true},{"value":"35324345","n":1,"spent":true,"hex":"0014db21d27b5c50f3a66565ef3facac0286e6c79462","addresses":["grs1qmvsay76u2re6vet9aul6etqzsmnv09rzq63g3d"],"isAddress":true}],"blockHash":"0000000000000b2d30be42fd05d3f2a6807e6e53d203efb51496aa0fa8a80445","blockHeight":2964145,"confirmations":132881,"blockTime":1581688548,"value":"1035324345","valueIn":"1035344345","fees":"20000","hex":"01000000000103603b160e1ef733817065d520d66e2f882beebe6dc1cc093eb08ece544fcc8a56010000000000000000552987c42666487d9c70fe2f2723eb3fbc57f290861e419b599c84b04d787f020100000000000000004be099f3eaaea1a844f20c5197213978a5a9c5470ceca5a8137cdf0080afa1560100000000000000000200ca9a3b000000001976a914bc3b34231b16f2af9d41c100ab833510c1d81b0988acb9011b0200000000160014db21d27b5c50f3a66565ef3facac0286e6c7946202473044022062dadbf1c2b87701d4914ad3890bbd57004abd418b981d38c2403a49501ebdc402207ddf47f3be5ba2c6c7d82c79470c734acbb93941cbf1248008b7c9f242858689012102ab2d3112dfb83d7e08949ec32128e24a4be5c588640eee5028cdba56aae7b28502483045022100d43d73fc0d4fffeb4bcf71cea47e67f83f081ca5807cc3a0389e30611f7a450b0220371bdc9978fa570e2a27b6d2e88787d6a2b6ed2214af012499eb24a63f3da4c9012102ab2d3112dfb83d7e08949ec32128e24a4be5c588640eee5028cdba56aae7b2850247304402200df81ade9e3ed8343c4ef75a3ec32455436fb9e0a511ff1e63447753f320db9a022064155850471cf0a5d50d684dd82144094ef11dbba0988bc34809237a8d6eb9f7012102ab2d3112dfb83d7e08949ec32128e24a4be5c588640eee5028cdba56aae7b28500000000"},{"txid":"d71c47c7958f9867c0949bb3f8b66947b4fc117451e370dfa37ef5f94e95cc16","version":1,"vin":[{"txid":"27f1d526c40a097672571f9ce9eeb2b43c5f08ba5196cf452f023bd4ddde0c55","vout":1,"n":0,"addresses":["grs1qa8pvadg835vy798nr3ktrvlkx07mggu4hqvv04"],"isAddress":true,"value":"4439929419"}],"vout":[{"value":"2000000000","n":0,"spent":true,"hex":"76a914bc3b34231b16f2af9d41c100ab833510c1d81b0988ac","addresses":["FnKzQWuu8zcL3u6hEuNZDsjBpgfDMhMhE1"],"isAddress":true},{"value":"2439909419","n":1,"spent":true,"hex":"0014e9c2ceb5078d184f14f31c6cb1b3f633fdb42395","addresses":["grs1qa8pvadg835vy798nr3ktrvlkx07mggu4hqvv04"],"isAddress":true}],"blockHash":"000000000000069196de5fb7d848deb7e9a9ee8586a889e262e8e5444d0883ac","blockHeight":2960855,"confirmations":136171,"blockTime":1581480399,"value":"4439909419","valueIn":"4439929419","fees":"20000","hex":"01000000000101550cdeddd43b022f45cf9651ba085f3cb4b2eee99c1f577276090ac426d5f1270100000000000000000200943577000000001976a914bc3b34231b16f2af9d41c100ab833510c1d81b0988ac2b106e9100000000160014e9c2ceb5078d184f14f31c6cb1b3f633fdb423950247304402206c50a3677f4fad4d721b869117581b4e1cf9534182efba30c17c7b1a6a9af52b022059d3a78a653d0479983287d679ce09f29aeef97cfe7e4b3a4f80cb4f9e2a4614012102ab2d3112dfb83d7e08949ec32128e24a4be5c588640eee5028cdba56aae7b28500000000"},{"txid":"027f784db0849c599b411e8690f257bc3feb23272ffe709c7d486626c4872955","version":1,"vin":[{"txid":"d71c47c7958f9867c0949bb3f8b66947b4fc117451e370dfa37ef5f94e95cc16","vout":1,"n":0,"addresses":["grs1qa8pvadg835vy798nr3ktrvlkx07mggu4hqvv04"],"isAddress":true,"value":"2439909419"}],"vout":[{"value":"2000000000","n":0,"spent":true,"hex":"76a914bc3b34231b16f2af9d41c100ab833510c1d81b0988ac","addresses":["FnKzQWuu8zcL3u6hEuNZDsjBpgfDMhMhE1"],"isAddress":true},{"value":"439889419","n":1,"spent":true,"hex":"0014e9c2ceb5078d184f14f31c6cb1b3f633fdb42395","addresses":["grs1qa8pvadg835vy798nr3ktrvlkx07mggu4hqvv04"],"isAddress":true}],"blockHash":"000000000000069196de5fb7d848deb7e9a9ee8586a889e262e8e5444d0883ac","blockHeight":2960855,"confirmations":136171,"blockTime":1581480399,"value":"2439889419","valueIn":"2439909419","fees":"20000","hex":"0100000000010116cc954ef9f57ea3df70e3517411fcb44769b6f8b39b94c067988f95c7471cd70100000000000000000200943577000000001976a914bc3b34231b16f2af9d41c100ab833510c1d81b0988ac0b2e381a00000000160014e9c2ceb5078d184f14f31c6cb1b3f633fdb42395024830450221009dd13372c1929d9d50d89297dd1ffb0887031186b68d353e6b5a1de60e4d1f29022033fa7956567456ebf1f32b4a2fb80e138b9052718d3250d54a95b79d196edafc012102ab2d3112dfb83d7e08949ec32128e24a4be5c588640eee5028cdba56aae7b28500000000"},{"txid":"568acc4f54ce8eb03e09ccc16dbeee2b882f6ed620d565708133f71e0e163b60","version":1,"vin":[{"txid":"cfc8d72bc809328f6008b20e2aaa8409ad81c2f313ceb02b04c66af7ea76205b","vout":1,"n":0,"addresses":["grs1qa8pvadg835vy798nr3ktrvlkx07mggu4hqvv04"],"isAddress":true,"value":"1145494926"}],"vout":[{"value":"1000000000","n":0,"spent":true,"hex":"76a914bc3b34231b16f2af9d41c100ab833510c1d81b0988ac","addresses":["FnKzQWuu8zcL3u6hEuNZDsjBpgfDMhMhE1"],"isAddress":true},{"value":"145474926","n":1,"spent":true,"hex":"0014e9c2ceb5078d184f14f31c6cb1b3f633fdb42395","addresses":["grs1qa8pvadg835vy798nr3ktrvlkx07mggu4hqvv04"],"isAddress":true}],"blockHash":"000000000000069196de5fb7d848deb7e9a9ee8586a889e262e8e5444d0883ac","blockHeight":2960855,"confirmations":136171,"blockTime":1581480399,"value":"1145474926","valueIn":"1145494926","fees":"20000","hex":"010000000001015b2076eaf76ac6042bb0ce13f3c281ad0984aa2a0eb208608f3209c82bd7c8cf0100000000000000000200ca9a3b000000001976a914bc3b34231b16f2af9d41c100ab833510c1d81b0988ac6ec5ab0800000000160014e9c2ceb5078d184f14f31c6cb1b3f633fdb42395024730440220213d174a1ab818d62200684247f26a66714134079efa421125203ae5687138bf02206f0639a2f441edbfd69384cefa4c9fa196a4a401880a5cfc48cf6ba3589e8a86012102ab2d3112dfb83d7e08949ec32128e24a4be5c588640eee5028cdba56aae7b28500000000"},{"txid":"2afd7b893fade931618b5a20a5879970af9ece772f463227e09d555505f778e4","version":1,"vin":[{"txid":"1a836aa25b8939c36df133f50104cbc6e00f91f0a6b02fd2951ad1a7260615f8","vout":1,"n":0,"addresses":["grs1qny6hgcxsw2lcm8g5prsuamytkehhv0m7gtktws"],"isAddress":true,"value":"180000"}],"vout":[{"value":"100000","n":0,"spent":true,"hex":"0014e9c2ceb5078d184f14f31c6cb1b3f633fdb42395","addresses":["grs1qa8pvadg835vy798nr3ktrvlkx07mggu4hqvv04"],"isAddress":true},{"value":"60000","n":1,"spent":true,"hex":"0014e9c2ceb5078d184f14f31c6cb1b3f633fdb42395","addresses":["grs1qa8pvadg835vy798nr3ktrvlkx07mggu4hqvv04"],"isAddress":true}],"blockHash":"00000000000006e959edec52f260e1c6c58930c96282b94ded283f9dda1973c5","blockHeight":2953512,"confirmations":143514,"blockTime":1581017188,"value":"160000","valueIn":"180000","fees":"20000","hex":"01000000000101f8150626a7d11a95d22fb0a6f0910fe0c6cb0401f533f16dc339895ba26a831a01000000000000000002a086010000000000160014e9c2ceb5078d184f14f31c6cb1b3f633fdb4239560ea000000000000160014e9c2ceb5078d184f14f31c6cb1b3f633fdb4239502483045022100fb5c6e06ec96646aba0ee19bedf98952ed5ae7145711258a3fd451dbfbdbbc5d022053660e9551f8deacd47fbaf5d688cad27f8400fc30bb28365f529c5939d749150121022ac3ed710b6ef6559923fa37dc128cfa6956fe307e55ed6620b8e600c1f3e7a200000000"}],"usedTokens":79,"tokens":[{"type":"XPUBAddress","name":"grs1qa8pvadg835vy798nr3ktrvlkx07mggu4hqvv04","path":"m/84'/17'/0'/0/0","transfers":53,"decimals":8,"balance":"412844353","totalReceived":"34760610350","totalSent":"34347765997"}]}
