{"page":1,"totalPages":13,"itemsOnPage":10,"address":"zpub6rpF5Uxuz4KKWePLorSz2QrHMmk1iiZvGUGgtSHpor8yiGekyRuWf5ZNmf6GUKB4v3ibQDuZp5v8RnjEGq58kR3WPtGPn8Lrg677MQ8YeKu","balance":"1818078","totalReceived":"379622767","totalSent":"377804689","unconfirmedBalance":"0","unconfirmedTxs":0,"txs":130,"transactions":[{"txid":"bfce02fdd69ec01c08486b75fa5e4a93d82a0e6f346c8eade6437affb0f817b1","version":1,"vin":[{"txid":"674092ed2b166f0f21ba6287b1df23abb9612e140e77bd52f2885312c69bf867","vout":1,"n":0,"addresses":["ltc1qpm594ntjq6ayqjngf6t9td2dxtey9d7985eept"],"isAddress":true,"value":"788530"}],"vout":[{"value":"100000","n":0,"hex":"0014ccf05f3bc453f7f66fb48b124bd79690bc309e22","addresses":["ltc1qenc97w7y20mlvma53vfyh4ukjz7rp83zf892wx"],"isAddress":true},{"value":"688078","n":1,"hex":"00140ee85acd7206ba404a684e9655b54d32f242b7c5","addresses":["ltc1qpm594ntjq6ayqjngf6t9td2dxtey9d7985eept"],"isAddress":true}],"blockHash":"ae8df4fb9cbbd07375eef217dd25e8b918a1b2746907c23cf4f2e15cd18fccdd","blockHeight":1804076,"confirmations":40929,"blockTime":1583910871,"value":"788078","valueIn":"788530","fees":"452","hex":"0100000000010167f89bc6125388f252bd770e142e61b9ab23dfb18762ba210f6f162bed92406701000000000000000002a086010000000000160014ccf05f3bc453f7f66fb48b124bd79690bc309e22ce7f0a00000000001600140ee85acd7206ba404a684e9655b54d32f242b7c502483045022100a40df50e2b419a35001f40d508e911f36d01497ebe5225dc93c81f53a30452fb022034c086517326be293019c2cbf215d6b9a53aa0ab4a0c2b890a9f1b05e8052aac012102872f9e841a8150ab716574ff897d915f575ed9abe9b4c9426617f6a1d8b3bbd100000000"},{"txid":"674092ed2b166f0f21ba6287b1df23abb9612e140e77bd52f2885312c69bf867","version":1,"vin":[{"txid":"f8ddc3eca55aa4bffd27b030fc3b35ceb8d503b31a03dafd32df56eec552fe99","vout":1,"sequence":4294967290,"n":0,"addresses":["ltc1qpm594ntjq6ayqjngf6t9td2dxtey9d7985eept"],"isAddress":true,"value":"1788982"}],"vout":[{"value":"1000000","n":0,"hex":"00140ee85acd7206ba404a684e9655b54d32f242b7c5","addresses":["ltc1qpm594ntjq6ayqjngf6t9td2dxtey9d7985eept"],"isAddress":true},{"value":"788530","n":1,"spent":true,"hex":"00140ee85acd7206ba404a684e9655b54d32f242b7c5","addresses":["ltc1qpm594ntjq6ayqjngf6t9td2dxtey9d7985eept"],"isAddress":true}],"blockHash":"dd92763dcb8477d8f012e5ec0598ebf3c135a15780d7491754fff40d3d24dd9b","blockHeight":1803562,"confirmations":41443,"blockTime":1583831802,"value":"1788530","valueIn":"1788982","fees":"452","hex":"0100000000010199fe52c5ee56df32fdda031ab303d5b8ce353bfc30b027fdbfa45aa5ecc3ddf80100000000faffffff0240420f00000000001600140ee85acd7206ba404a684e9655b54d32f242b7c532080c00000000001600140ee85acd7206ba404a684e9655b54d32f242b7c502483045022100bbde918ff538468c440424323bbe8ba78eef14d9dde357c8e6496905d540098c02205700d984884edff918f827289898c16ec9ad30344a637ea85dc55f7f836143bd012102872f9e841a8150ab716574ff897d915f575ed9abe9b4c9426617f6a1d8b3bbd100000000"},{"txid":"f8ddc3eca55aa4bffd27b030fc3b35ceb8d503b31a03dafd32df56eec552fe99","version":1,"vin":[{"txid":"0bc6314b50a192853d09b2ca3ebadea75288bfb66e9b254c8f55ebaa720a7d2f","vout":1,"n":0,"addresses":["ltc1qd0huz2atjj0uyjlcp48ml9tltkzdta7sg8fn89"],"isAddress":true,"value":"1889434"}],"vout":[{"value":"100000","n":0,"spent":true,"hex":"0014e8d0e2bade0aefda201fad8ff5859d743b252a5b","addresses":["ltc1qargw9wk7ptha5gql4k8ltpvawsaj22jmr8cejf"],"isAddress":true},{"value":"1788982","n":1,"spent":true,"hex":"00140ee85acd7206ba404a684e9655b54d32f242b7c5","addresses":["ltc1qpm594ntjq6ayqjngf6t9td2dxtey9d7985eept"],"isAddress":true}],"blockHash":"c9503e0fe18dd16a8a1e836d08d6966e443fbe79eeb0561f2fb18e5993a0cfec","blockHeight":1800498,"confirmations":44507,"blockTime":1583384860,"value":"1888982","valueIn":"1889434","fees":"452","hex":"010000000001012f7d0a72aaeb558f4c259b6eb6bf8852a7deba3ecab2093d8592a1504b31c60b01000000000000000002a086010000000000160014e8d0e2bade0aefda201fad8ff5859d743b252a5b364c1b00000000001600140ee85acd7206ba404a684e9655b54d32f242b7c502483045022100f6adacde68792f7862ec58b066ed4b521444929d90c163b5eb7b0a3d3e16c133022018f649e6a9cece3dc58fdb09f8cffb5cf9ba64f7a453ae6d82043b3fc65fe8ba01210273a11ff2e056c52a0a10c3b93590f60802ab8a74bf9828ea76ae87885fddfc8d00000000"},{"txid":"0bc6314b50a192853d09b2ca3ebadea75288bfb66e9b254c8f55ebaa720a7d2f","version":1,"vin":[{"txid":"fdbf28c741e55f846a0a378e0cf2a7263540f8d24123b658f2beb0bd1b1788f0","sequence":4294967291,"n":0,"addresses":["ltc1q2rs8e2xy7tr7c5e4zugqzwsry5dtt5wcdk4zv9"],"isAddress":true,"value":"1989886"}],"vout":[{"value":"100000","n":0,"hex":"0014307b46c6979c94598ce49d1145bc4d8eeb2704fb","addresses":["ltc1qxpa5d35hnj29nr8yn5g5t0zd3m4jwp8mwchc9c"],"isAddress":true},{"value":"1889434","n":1,"spent":true,"hex":"00146befc12bab949fc24bf80d4fbf957f5d84d5f7d0","addresses":["ltc1qd0huz2atjj0uyjlcp48ml9tltkzdta7sg8fn89"],"isAddress":true}],"blockHash":"d6aedacf9e98591e6fad1116d13d202a9067e0ace5e6c6ade28dba8ae06abe77","blockHeight":1797397,"confirmations":47608,"blockTime":1582916585,"value":"1989434","valueIn":"1989886","fees":"452","hex":"01000000000101f088171bbdb0bef258b62341d2f8403526a7f20c8e370a6a845fe541c728bffd0000000000fbffffff02a086010000000000160014307b46c6979c94598ce49d1145bc4d8eeb2704fb9ad41c00000000001600146befc12bab949fc24bf80d4fbf957f5d84d5f7d002483045022100bd323bdeb84893c4e8779a411f40d12a4ee29daf19f294e106c972f12c7a8df602207364621931435107e0b4abadc3182eb9cce20dbb932965b5a8c29196d40fb5d30121022a9c9134668be7db7109d82a55afdcc7d323eeccd8ab48704c9d16305349c08f00000000"},{"txid":"fdbf28c741e55f846a0a378e0cf2a7263540f8d24123b658f2beb0bd1b1788f0","version":1,"vin":[{"txid":"07eb5638d1a2833a7eaea596b0dc8bacd8a51be6f18f8bb8cabd514255acebff","vout":1,"sequence":4294967294,"n":0,"addresses":["ltc1qpm594ntjq6ayqjngf6t9td2dxtey9d7985eept"],"isAddress":true,"value":"96312"},{"txid":"152c3d81f7272c91bd3d880d7b570619ef4141482cbcd62b5556fb00efc2bd94","sequence":4294967293,"n":1,"addresses":["ltc1q5usqkt2x9tnqljy0tss9jqmlvcmakdp4l4rdt5"],"isAddress":true,"value":"400000"},{"txid":"152c3d81f7272c91bd3d880d7b570619ef4141482cbcd62b5556fb00efc2bd94","vout":1,"sequence":4294967292,"n":2,"addresses":["ltc1q69juwlyyyks4ws8rdklldjvdxk3vk6gy9qkn99"],"isAddress":true,"value":"1650696"}],"vout":[{"value":"1989886","n":0,"spent":true,"hex":"001450e07ca8c4f2c7ec53351710013a03251ab5d1d8","addresses":["ltc1q2rs8e2xy7tr7c5e4zugqzwsry5dtt5wcdk4zv9"],"isAddress":true}],"blockHash":"5977afe7c387c7390498309e29ad71e8daef8c59df5b910cb05a3ae661db0919","blockHeight":1783073,"confirmations":61932,"blockTime":1580799867,"value":"1989886","valueIn":"2147008","fees":"157122","hex":"01000000000103ffebac554251bdcab88b8ff1e61ba5d8ac8bdcb096a5ae7e3a83a2d13856eb070100000000feffffff94bdc2ef00fb56552bd6bc2c484141ef1906577b0d883dbd912c27f7813d2c150000000000fdffffff94bdc2ef00fb56552bd6bc2c484141ef1906577b0d883dbd912c27f7813d2c150100000000fcffffff01fe5c1e000000000016001450e07ca8c4f2c7ec53351710013a03251ab5d1d802473044022015d518ae11502d4c832cde4627372c60fb89293d14f3dd39006445dce3bfe47f02207b97301e3f8b9016a515882072dafba705a4ec5e29f5ae222dbdfd5a6d83c90a012102872f9e841a8150ab716574ff897d915f575ed9abe9b4c9426617f6a1d8b3bbd1024730440220478a6c3144e882f736b7b674d43768636f8d74eec28138d9ea36d05f64634aa402203827a08bb554c930e58178536257eb247a790866a7984fdffe549da7376244f201210262da88bf17e0b0575a3c9efecf7387e6d96fa9039547ac6707219defd321986102473044022053999ec5a5b454c60136144096f55a0de2402addd4a250396884bd00f3763dfe022054812eca7798ed4a4418b166c6a4e3e880cbd93ce41c620b611c35ad1c80735e012103c497991dbbf809288e18c5ab4744d59ab6b0b0bf875d2095267ea373e9837d3400000000"},{"txid":"152c3d81f7272c91bd3d880d7b570619ef4141482cbcd62b5556fb00efc2bd94","version":1,"vin":[{"txid":"9cad90704b2c24e2300c496398ba66ba216bc1df01851ba8c14fc0da8814a8ec","vout":1,"n":0,"addresses":["ltc1qpm594ntjq6ayqjngf6t9td2dxtey9d7985eept"],"isAddress":true,"value":"2051148"}],"vout":[{"value":"400000","n":0,"spent":true,"hex":"0014a7200b2d462ae60fc88f5c2059037f6637db3435","addresses":["ltc1q5usqkt2x9tnqljy0tss9jqmlvcmakdp4l4rdt5"],"isAddress":true},{"value":"1650696","n":1,"spent":true,"hex":"0014d165c77c8425a15740e36dbff6c98d35a2cb6904","addresses":["ltc1q69juwlyyyks4ws8rdklldjvdxk3vk6gy9qkn99"],"isAddress":true}],"blockHash":"686ab90a08327f65c4cb5aa4227f3c0c0eb3120e922f6f6a8ba37fd20d6d2a72","blockHeight":1782650,"confirmations":62355,"blockTime":1580744939,"value":"2050696","valueIn":"2051148","fees":"452","hex":"01000000000101eca81488dac04fc1a81b8501dfc16b21ba66ba9863490c30e2242c4b7090ad9c01000000000000000002801a060000000000160014a7200b2d462ae60fc88f5c2059037f6637db34350830190000000000160014d165c77c8425a15740e36dbff6c98d35a2cb690402483045022100e633d87b26da1f508018fdf1c54f9b8bb0813aeb326c17a2622e29dec94f48ce0220123208bd0d13e1c2f16c4d3a450b783ea89211fcb054db2211ed6403335a48f3012102872f9e841a8150ab716574ff897d915f575ed9abe9b4c9426617f6a1d8b3bbd100000000"},{"txid":"d1dddff6518f20a251738d2e8e60a32a24a51f7714f115073724f1c926235c35","version":1,"vin":[{"txid":"ec3dabd2b86f78238fd8c1f113170815d8d8c71828e2b902b24123081cc18400","n":0,"addresses":["ltc1qargw9wk7ptha5gql4k8ltpvawsaj22jmr8cejf"],"isAddress":true,"value":"1000000"}],"vout":[{"value":"10000","n":0,"hex":"001450e07ca8c4f2c7ec53351710013a03251ab5d1d8","addresses":["ltc1q2rs8e2xy7tr7c5e4zugqzwsry5dtt5wcdk4zv9"],"isAddress":true},{"value":"989548","n":1,"spent":true,"hex":"0014a80b968f4309bff939d19a1c07155673087e45f4","addresses":["ltc1q4q9edr6rpxlljww3ngwqw92kwvy8u305z0uc0z"],"isAddress":true}],"blockHash":"3fa995b85d0a5a16ba7ea2201f18fff1093698abf589b509a6d03679fbca174a","blockHeight":1782621,"confirmations":62384,"blockTime":1580740200,"value":"999548","valueIn":"1000000","fees":"452","hex":"010000000001010084c11c082341b202b9e22818c7d8d815081713f1c1d88f23786fb8d2ab3dec00000000000000000002102700000000000016001450e07ca8c4f2c7ec53351710013a03251ab5d1d86c190f0000000000160014a80b968f4309bff939d19a1c07155673087e45f40247304402201551a2b9e94a2a257eed8056fe057f0c09a5199f2f1848793ef45e76a56e45ed022052205cbf0408b962a7b02343fade9ea383923c091ba8def4727f15ddcba8c73b012103ad9ca0f2fff21e45b0ebc715ed2b2d49d64e2c1ae0cd04b6caf5730471e273ca00000000"},{"txid":"c2730eca5ff4e5136371647623a0b55c020ef9003218aefebbe9347bff90c999","version":1,"vin":[{"txid":"d1dddff6518f20a251738d2e8e60a32a24a51f7714f115073724f1c926235c35","vout":1,"n":0,"addresses":["ltc1q4q9edr6rpxlljww3ngwqw92kwvy8u305z0uc0z"],"isAddress":true,"value":"989548"}],"vout":[{"value":"10000","n":0,"hex":"001450e07ca8c4f2c7ec53351710013a03251ab5d1d8","addresses":["ltc1q2rs8e2xy7tr7c5e4zugqzwsry5dtt5wcdk4zv9"],"isAddress":true},{"value":"979096","n":1,"spent":true,"hex":"0014a80b968f4309bff939d19a1c07155673087e45f4","addresses":["ltc1q4q9edr6rpxlljww3ngwqw92kwvy8u305z0uc0z"],"isAddress":true}],"blockHash":"3fa995b85d0a5a16ba7ea2201f18fff1093698abf589b509a6d03679fbca174a","blockHeight":1782621,"confirmations":62384,"blockTime":1580740200,"value":"989096","valueIn":"989548","fees":"452","hex":"01000000000101355c2326c9f124370715f114771fa5242aa3608e2e8d7351a2208f51f6dfddd101000000000000000002102700000000000016001450e07ca8c4f2c7ec53351710013a03251ab5d1d898f00e0000000000160014a80b968f4309bff939d19a1c07155673087e45f402473044022024c8ef5422a06aeb0caafa28cca510e2515896eb63b2e507ac8e466d3687983d022036529a6cff163a2c14610b1f407e8e7a0516921e454eaf0354b95888789d19d001210360847b9e16828bcad89705de8b752ea2a58ce95983ff0c30a64d48f52dfa57df00000000"},{"txid":"9cad90704b2c24e2300c496398ba66ba216bc1df01851ba8c14fc0da8814a8ec","version":1,"vin":[{"txid":"b784d0389a2450e43ea043567329d0f4e00277ac430bbcedf335d9d85451e088","vout":1,"n":0,"addresses":["ltc1q720spapzfq8j79gal5mg2efcrtv92hvktc8u76"],"isAddress":true,"value":"3051600"}],"vout":[{"value":"1000000","n":0,"hex":"0014463fec54ea2c7210057b2d6d1972a8aaaf39a543","addresses":["ltc1qgcl7c48293epqptm94k3ju4g42hnnf2r5d4ewq"],"isAddress":true},{"value":"2051148","n":1,"spent":true,"hex":"00140ee85acd7206ba404a684e9655b54d32f242b7c5","addresses":["ltc1qpm594ntjq6ayqjngf6t9td2dxtey9d7985eept"],"isAddress":true}],"blockHash":"8eccbbf11afd2c3a54f2a5eae52734b37b67df50cbdea00224ad39896e0bf4f7","blockHeight":1781067,"confirmations":63938,"blockTime":1580515445,"value":"3051148","valueIn":"3051600","fees":"452","hex":"0100000000010188e05154d8d935f3edbc0b43ac7702e0f4d029735643a03ee450249a38d084b70100000000000000000240420f0000000000160014463fec54ea2c7210057b2d6d1972a8aaaf39a5434c4c1f00000000001600140ee85acd7206ba404a684e9655b54d32f242b7c5024830450221009f248a6c27f931afca2480a0d9867f77a7ed9d15a1c81aa3f1398c86cd14b02502205b96bc4b1c4dc2b16835acc656203f837c37d389ec65decfe25691e667cc3dfe012103a845425673d8c68211ab69f7de46c81ed2c42e5afbadfe3a6eab971ce5da56fa00000000"},{"txid":"b1208bcfb49b5fbc3366bf07b0000b884d59ecdbebc25b1a55f91330317603db","version":1,"vin":[{"txid":"a54db30dd54adc3e90a1c5e72b6a5b94992591cbc325adfc28cee55ab5f9dbc0","vout":1,"n":0,"addresses":["ltc1qpm594ntjq6ayqjngf6t9td2dxtey9d7985eept"],"isAddress":true,"value":"3252504"}],"vout":[{"value":"100000","n":0,"spent":true,"hex":"0014b329897dc74dc8d7fa2a68a366593bf266dcda5c","addresses":["ltc1qkv5cjlw8fhyd0732dz3kvkfm7fndekjurha9ua"],"isAddress":true},{"value":"3152052","n":1,"spent":true,"hex":"00140ee85acd7206ba404a684e9655b54d32f242b7c5","addresses":["ltc1qpm594ntjq6ayqjngf6t9td2dxtey9d7985eept"],"isAddress":true}],"blockHash":"28f684c412c4394e2da6255567957a493d35a7c7675d8d21a21fab4f3210d772","blockHeight":1778975,"confirmations":66030,"blockTime":1580198750,"value":"3252052","valueIn":"3252504","fees":"452","hex":"01000000000101c0dbf9b55ae5ce28fcad25c3cb912599945b6a2be7c5a1903edc4ad50db34da501000000000000000002a086010000000000160014b329897dc74dc8d7fa2a68a366593bf266dcda5cb4183000000000001600140ee85acd7206ba404a684e9655b54d32f242b7c502473044022007410f524d5597d7ffde5ceff733bcbc05d842194c1ed650ba3ac0bcde4f561902201dde5782c6c47fac0d05fde0df0b7862649b6c3d391d61881733e4e0bb8bc0d8012102872f9e841a8150ab716574ff897d915f575ed9abe9b4c9426617f6a1d8b3bbd100000000"}],"usedTokens":123,"tokens":[{"type":"XPUBAddress","name":"ltc1qpm594ntjq6ayqjngf6t9td2dxtey9d7985eept","path":"m/84'/2'/0'/0/0","transfers":19,"decimals":8,"balance":"1688078","totalReceived":"25679292","totalSent":"23991214"},{"type":"XPUBAddress","name":"ltc1q2rs8e2xy7tr7c5e4zugqzwsry5dtt5wcdk4zv9","path":"m/84'/2'/0'/0/54","transfers":4,"decimals":8,"balance":"20000","totalReceived":"2009886","totalSent":"1989886"},{"type":"XPUBAddress","name":"ltc1q2j0k8v7aczdajd42g96h7gy4jef63feh77494u","path":"m/84'/2'/0'/0/58","transfers":3,"decimals":8,"balance":"10000","totalReceived":"11000","totalSent":"1000"},{"type":"XPUBAddress","name":"ltc1qxpa5d35hnj29nr8yn5g5t0zd3m4jwp8mwchc9c","path":"m/84'/2'/0'/0/59","transfers":1,"decimals":8,"balance":"100000","totalReceived":"100000","totalSent":"0"}]}
