{
	"page": 1,
	"totalPages": 1,
	"itemsOnPage": 1000,
	"address": "xpub6BrkWQHMnuGcvKowEn2hpvnZ41SiCsu38mgFThKU3nMzPUN9r9C26puf18rfVdHH3nDwSkeMgsjVniNDKUk5arxekekGpNyVLsWihYAfC5B",
	"balance": "299445646",
	"totalReceived": "2599356720",
	"totalSent": "2299911074",
	"unconfirmedBalance": "0",
	"unconfirmedTxs": 0,
	"txs": 8,
	"transactions": [
		{
			"txid": "5d22e5a84b0eb054b623fdc3caf88a60eaa646dc97922f06d325aa8d6f18c564",
			"version": 1,
			"vin": [
				{
					"txid": "baa2ee45ad8b9922a9db3fdcc22f8c3b5257dc81fef609800e7bd138748b6977",
					"sequence": 4294967294,
					"n": 0,
					"addresses": [
						"RHhtrB8eUZuTp8m8HVEyGidEiSkSz5CRdM"
					],
					"isAddress": true,
					"value": "299456974",
					"hex": "47304402204d44f9873e894314746557e4e7ba74e9436d7fa81986d0386684179d8acb77fe02206ff207862b3badbd41cc2ab584ff334410ab2bd089c6c4a1f6ffa59ce2b5d7da012102d34aee6afc67a1b86789beadf0ef2ed7dd5665776b734c0a4dba727bf532bd59"
				}
			],
			"vout": [
				{
					"value": "299445646",
					"n": 0,
					"hex": "76a91469a82a3f4a8441d7eb0805e9c1ca421761eb456588ac",
					"addresses": [
						"RJurUyAqde3GLkDgkTzAuHHMbdMPMqfBsz"
					],
					"isAddress": true
				}
			],
			"blockHash": "00000000000013c420937088dd9b69e5ef38c2c1e544828d222c1e8998d1358a",
			"blockHeight": 843530,
			"confirmations": 386298,
			"blockTime": 1566071064,
			"value": "299445646",
			"valueIn": "299456974",
			"fees": "11328",
			"hex": "010000000177698b7438d17b0e8009f6fe81dc57523b8c2fc2dc3fdba922998bad45eea2ba000000006a47304402204d44f9873e894314746557e4e7ba74e9436d7fa81986d0386684179d8acb77fe02206ff207862b3badbd41cc2ab584ff334410ab2bd089c6c4a1f6ffa59ce2b5d7da012102d34aee6afc67a1b86789beadf0ef2ed7dd5665776b734c0a4dba727bf532bd59feffffff018e2dd911000000001976a91469a82a3f4a8441d7eb0805e9c1ca421761eb456588ac00000000"
		},
		{
			"txid": "baa2ee45ad8b9922a9db3fdcc22f8c3b5257dc81fef609800e7bd138748b6977",
			"version": 1,
			"vin": [
				{
					"txid": "0f517fd0d4e86070fdff40e95f5202a1b343f75d3168842feb2e8fd6f1be0ef9",
					"n": 0,
					"addresses": [
						"RJurUyAqde3GLkDgkTzAuHHMbdMPMqfBsz"
					],
					"isAddress": true,
					"value": "9990400",
					"hex": "483045022100d8e3598c4d8829b39433c43d4a4c3c438754e8fa77284e1de606233b954770f2022034eb8b6ab6ca103f613d14ccc38fc6aea7bc8661dbff87b0c576b4712d202b3a012102ee0d81b0e40adde804683388953c9cef6276703a3d26e65f9f3433dff0b82dba"
				},
				{
					"txid": "b9db035506eaeb0de0dbc98a277c29f41c08317515538c79cdc542d759918004",
					"vout": 1,
					"n": 1,
					"addresses": [
						"RGG4nwkVgFSpy5wdZVKkKFySUCz8N35B5L"
					],
					"isAddress": true,
					"value": "89988700",
					"hex": "473044022075c8f6c3ce3de19c86bbaa845871e25af82ea40bb3793896e657dccbd350209a022033b983ef8733a74ca8e977e08c4ded3a027a800dedbe8aa65a06bca0dc87d09b012103d66703c2448791bcb6828c060de9c568853aa43a753ed227a1f14d70612d3144"
				},
				{
					"txid": "44172def2b5f799963adf28f0a3129e6f7910c8bc5ad09ad0e8155da24748d25",
					"vout": 1,
					"n": 2,
					"addresses": [
						"RHj2wiQ8tDhJZKsNKsf48WzxAj2pVnhEnX"
					],
					"isAddress": true,
					"value": "199965874",
					"hex": "4730440220601d4e0d8bc03cf5064dad0316cf61d996ec507aa92105711a0d480a561d9bbb02200acaf5ff2deed01fca255caeaeb63925097bad740adbfd952ab0df66fbfa8552012102eff42496547e74666a392bf8399072dc289ae1d1e835a1c7068650a76be44709"
				}
			],
			"vout": [
				{
					"value": "299456974",
					"n": 0,
					"spent": true,
					"hex": "76a9145c6d05bdca691ab3acfd59ad1a70e55aea1cece388ac",
					"addresses": [
						"RHhtrB8eUZuTp8m8HVEyGidEiSkSz5CRdM"
					],
					"isAddress": true
				}
			],
			"blockHash": "0000000000006c4af5eab913f98e03bb3ff45c8b580b88cbeba39b0748ec6f8c",
			"blockHeight": 843527,
			"confirmations": 386301,
			"blockTime": 1566070929,
			"value": "299456974",
			"valueIn": "299944974",
			"fees": "488000",
			"hex": "0100000003f90ebef1d68f2eeb2f8468315df743b3a102525fe940fffd7060e8d4d07f510f000000006b483045022100d8e3598c4d8829b39433c43d4a4c3c438754e8fa77284e1de606233b954770f2022034eb8b6ab6ca103f613d14ccc38fc6aea7bc8661dbff87b0c576b4712d202b3a012102ee0d81b0e40adde804683388953c9cef6276703a3d26e65f9f3433dff0b82dba0000000004809159d742c5cd798c53157531081cf4297c278ac9dbe00debea065503dbb9010000006a473044022075c8f6c3ce3de19c86bbaa845871e25af82ea40bb3793896e657dccbd350209a022033b983ef8733a74ca8e977e08c4ded3a027a800dedbe8aa65a06bca0dc87d09b012103d66703c2448791bcb6828c060de9c568853aa43a753ed227a1f14d70612d314400000000258d7424da55810ead09adc58b0c91f7e629310a8ff2ad6399795f2bef2d1744010000006a4730440220601d4e0d8bc03cf5064dad0316cf61d996ec507aa92105711a0d480a561d9bbb02200acaf5ff2deed01fca255caeaeb63925097bad740adbfd952ab0df66fbfa8552012102eff42496547e74666a392bf8399072dc289ae1d1e835a1c7068650a76be447090000000001ce59d911000000001976a9145c6d05bdca691ab3acfd59ad1a70e55aea1cece388ac00000000"
		},
		{
			"txid": "0f517fd0d4e86070fdff40e95f5202a1b343f75d3168842feb2e8fd6f1be0ef9",
			"version": 1,
			"vin": [
				{
					"txid": "b9db035506eaeb0de0dbc98a277c29f41c08317515538c79cdc542d759918004",
					"n": 0,
					"addresses": [
						"RArA49JQFoQZPZRUJqbnE6tp8fVRmAp8v7"
					],
					"isAddress": true,
					"value": "10000000",
					"hex": "4830450221009370c852500b17d02ad9cc2f539a7b56fa237ccd108ec39b2e914fa9fdcde95e02203a730d6431a5e4ada7580644f0fc68ec57fc4e3519d8656e70790239bf12e6b501210214632a2120dc88ae7624ccb3e63534ae3c1d84aefe9f1b72ee23ba9876e3cbc6"
				}
			],
			"vout": [
				{
					"value": "9990400",
					"n": 0,
					"spent": true,
					"hex": "76a91469a82a3f4a8441d7eb0805e9c1ca421761eb456588ac",
					"addresses": [
						"RJurUyAqde3GLkDgkTzAuHHMbdMPMqfBsz"
					],
					"isAddress": true
				}
			],
			"blockHash": "00000000000060b0a773ca5f98d4dfdfab1610d62c85f367aee85768852ba5f6",
			"blockHeight": 741026,
			"confirmations": 488802,
			"blockTime": 1559880464,
			"value": "9990400",
			"valueIn": "10000000",
			"fees": "9600",
			"hex": "010000000104809159d742c5cd798c53157531081cf4297c278ac9dbe00debea065503dbb9000000006b4830450221009370c852500b17d02ad9cc2f539a7b56fa237ccd108ec39b2e914fa9fdcde95e02203a730d6431a5e4ada7580644f0fc68ec57fc4e3519d8656e70790239bf12e6b501210214632a2120dc88ae7624ccb3e63534ae3c1d84aefe9f1b72ee23ba9876e3cbc6000000000100719800000000001976a91469a82a3f4a8441d7eb0805e9c1ca421761eb456588ac00000000"
		},
		{
			"txid": "b9db035506eaeb0de0dbc98a277c29f41c08317515538c79cdc542d759918004",
			"version": 1,
			"vin": [
				{
					"txid": "10fb44c72200ff042b545c29969ca85943f55e33897823580a19b40fc10159f4",
					"sequence": 4294967294,
					"n": 0,
					"addresses": [
						"RG5LjQjL9GWjYoAQSQQVwoLeErG1UZMP3h"
					],
					"isAddress": true,
					"value": "100000000",
					"hex": "473044022013aa396845c905d35d5f8cbd404c51f5246cd529e36ac15a723dbdd1058683dd02201d7f6fd12afc6284cca0d94dcea0606b5c1dc8121c40daed9192e0487baf161a012103041042bb05c5baa1e3783999835a37625403f9cbb89ec91fd643b9ffdfe03f3f"
				}
			],
			"vout": [
				{
					"value": "10000000",
					"n": 0,
					"spent": true,
					"hex": "76a914113429cb4f5bd3d5825e1d521ae7cde85c9d21e188ac",
					"addresses": [
						"RArA49JQFoQZPZRUJqbnE6tp8fVRmAp8v7"
					],
					"isAddress": true
				},
				{
					"value": "89988700",
					"n": 1,
					"spent": true,
					"hex": "76a9144c9261f9db4a82b622a7233feeb8058b738fb77088ac",
					"addresses": [
						"RGG4nwkVgFSpy5wdZVKkKFySUCz8N35B5L"
					],
					"isAddress": true
				}
			],
			"blockHash": "00000000000012c02a6248d62b3f0c0a99ed28db6be7e8b6618148b59562900f",
			"blockHeight": 741022,
			"confirmations": 488806,
			"blockTime": 1559880370,
			"value": "99988700",
			"valueIn": "100000000",
			"fees": "11300",
			"hex": "0100000001f45901c10fb4190a58237889335ef54359a89c96295c542b04ff0022c744fb10000000006a473044022013aa396845c905d35d5f8cbd404c51f5246cd529e36ac15a723dbdd1058683dd02201d7f6fd12afc6284cca0d94dcea0606b5c1dc8121c40daed9192e0487baf161a012103041042bb05c5baa1e3783999835a37625403f9cbb89ec91fd643b9ffdfe03f3ffeffffff0280969800000000001976a914113429cb4f5bd3d5825e1d521ae7cde85c9d21e188ac5c1e5d05000000001976a9144c9261f9db4a82b622a7233feeb8058b738fb77088ac00000000"
		},
		{
			"txid": "44172def2b5f799963adf28f0a3129e6f7910c8bc5ad09ad0e8155da24748d25",
			"version": 1,
			"vin": [
				{
					"txid": "10fb44c72200ff042b545c29969ca85943f55e33897823580a19b40fc10159f4",
					"vout": 1,
					"n": 0,
					"addresses": [
						"R9in1jQ6JzYZSQABXnD5fr4xtEp5FpjnMr"
					],
					"isAddress": true,
					"value": "399977400",
					"hex": "483045022100c104df759924b7e90a4c82f4767bd6667f10f86e9a88027832acab3b926fe764022021e1b3847b7951c3139c18d23d24f17385ac5a43c48ede235981f59c6cd45ccd01210390b9600abc44b0ce8a33f89f9d52d95aa472b3933000489fd53c12fb6dc82239"
				}
			],
			"vout": [
				{
					"value": "200000000",
					"n": 0,
					"spent": true,
					"hex": "76a91493a42b17108b467ca6d63171b3c8d1bd58f0989888ac",
					"addresses": [
						"RNjr5L6TqoyiwBQp7kYFr4Yk5AsC8kkS6p"
					],
					"isAddress": true
				},
				{
					"value": "199965874",
					"n": 1,
					"spent": true,
					"hex": "76a9145ca432386ab4cf862f9b87f32fb334149e1ba40088ac",
					"addresses": [
						"RHj2wiQ8tDhJZKsNKsf48WzxAj2pVnhEnX"
					],
					"isAddress": true
				}
			],
			"blockHash": "0000000000003c4fb53bc5f505be6266d00ec058e15a3a0b6e24cacf5664622d",
			"blockHeight": 739791,
			"confirmations": 490037,
			"blockTime": 1559805482,
			"value": "399965874",
			"valueIn": "399977400",
			"fees": "11526",
			"hex": "0100000001f45901c10fb4190a58237889335ef54359a89c96295c542b04ff0022c744fb10010000006b483045022100c104df759924b7e90a4c82f4767bd6667f10f86e9a88027832acab3b926fe764022021e1b3847b7951c3139c18d23d24f17385ac5a43c48ede235981f59c6cd45ccd01210390b9600abc44b0ce8a33f89f9d52d95aa472b3933000489fd53c12fb6dc82239000000000200c2eb0b000000001976a91493a42b17108b467ca6d63171b3c8d1bd58f0989888acb23ceb0b000000001976a9145ca432386ab4cf862f9b87f32fb334149e1ba40088ac00000000"
		},
		{
			"txid": "10fb44c72200ff042b545c29969ca85943f55e33897823580a19b40fc10159f4",
			"version": 1,
			"vin": [
				{
					"txid": "9490bbc470862a5d8cd7f7c6c83a0cd4516d124a54b169f5d9f4e5ad6b2f05e7",
					"vout": 1,
					"n": 0,
					"addresses": [
						"RQu6oko5Laega15FQSfhYTFAQPdWJt7MAg"
					],
					"isAddress": true,
					"value": "499988700",
					"hex": "47304402205e63f89393bc37cab8c82b3f1bfece7b1e15a21a569bb2862db0b5d9ce5eddc3022075d1ba913743f309e8c4278155aabab48b2edd6f28ba78205b56695cb248330d01210272f8247a32b3a8d50d502a7a484132509480d6ca180305f541042d815f1949c8"
				}
			],
			"vout": [
				{
					"value": "100000000",
					"n": 0,
					"spent": true,
					"hex": "76a9144a8b1cc5b6b4c61a66e29cdc4732d757f8b0b7c188ac",
					"addresses": [
						"RG5LjQjL9GWjYoAQSQQVwoLeErG1UZMP3h"
					],
					"isAddress": true
				},
				{
					"value": "399977400",
					"n": 1,
					"spent": true,
					"hex": "76a91404d6b9f2268317e71889161c9f7430824b753e0e88ac",
					"addresses": [
						"R9in1jQ6JzYZSQABXnD5fr4xtEp5FpjnMr"
					],
					"isAddress": true
				}
			],
			"blockHash": "00000000000056a3b549a9e967d9a19af10e0a0227c2e33b3b087c18a6119049",
			"blockHeight": 739591,
			"confirmations": 490237,
			"blockTime": 1559793642,
			"value": "499977400",
			"valueIn": "499988700",
			"fees": "11300",
			"hex": "0100000001e7052f6bade5f4d9f569b1544a126d51d40c3ac8c6f7d78c5d2a8670c4bb9094010000006a47304402205e63f89393bc37cab8c82b3f1bfece7b1e15a21a569bb2862db0b5d9ce5eddc3022075d1ba913743f309e8c4278155aabab48b2edd6f28ba78205b56695cb248330d01210272f8247a32b3a8d50d502a7a484132509480d6ca180305f541042d815f1949c8000000000200e1f505000000001976a9144a8b1cc5b6b4c61a66e29cdc4732d757f8b0b7c188acb82bd717000000001976a91404d6b9f2268317e71889161c9f7430824b753e0e88ac00000000"
		},
		{
			"txid": "9490bbc470862a5d8cd7f7c6c83a0cd4516d124a54b169f5d9f4e5ad6b2f05e7",
			"version": 1,
			"vin": [
				{
					"txid": "3abc0a2a29dc20cbf828a5de9f7cb64f3343456efe257af9557a4365be279924",
					"vout": 1,
					"n": 0,
					"addresses": [
						"RVG4EpTdouq8ui29pgrAAYfWYtzC5Gzn8h"
					],
					"isAddress": true,
					"value": "1000000000",
					"hex": "473044022045d0fb08baa997552568132bc448854714bc2727a7e03d86eb96161cc83096f20220097e682ee7400b634a0f469a7d9450ce5d382e72aaf2ec0003fd362112f1c08b0121026c437d2701fdb8120793e23898b28eff9d0173413626b48970a2ad620beaf737"
				}
			],
			"vout": [
				{
					"value": "500000000",
					"n": 0,
					"hex": "76a914e2f5abd0a8de78fd4c3ac1e363be073cd87a1a5b88ac",
					"addresses": [
						"RVyF6QC7XYqEP4ZThVowJGeZg5Q5p683nV"
					],
					"isAddress": true
				},
				{
					"value": "499988700",
					"n": 1,
					"spent": true,
					"hex": "76a914ab5475f4b0dc2ebf15f4ba2c0371ed1a8f05285488ac",
					"addresses": [
						"RQu6oko5Laega15FQSfhYTFAQPdWJt7MAg"
					],
					"isAddress": true
				}
			],
			"blockHash": "0000000000002943f769a119d1095ccd49738e9036a17e0bea19ab052f8a00b2",
			"blockHeight": 737804,
			"confirmations": 492024,
			"blockTime": 1559685656,
			"value": "999988700",
			"valueIn": "1000000000",
			"fees": "11300",
			"hex": "0100000001249927be65437a55f97a25fe6e4543334fb67c9fdea528f8cb20dc292a0abc3a010000006a473044022045d0fb08baa997552568132bc448854714bc2727a7e03d86eb96161cc83096f20220097e682ee7400b634a0f469a7d9450ce5d382e72aaf2ec0003fd362112f1c08b0121026c437d2701fdb8120793e23898b28eff9d0173413626b48970a2ad620beaf73700000000020065cd1d000000001976a914e2f5abd0a8de78fd4c3ac1e363be073cd87a1a5b88acdc38cd1d000000001976a914ab5475f4b0dc2ebf15f4ba2c0371ed1a8f05285488ac00000000"
		},
		{
			"txid": "3abc0a2a29dc20cbf828a5de9f7cb64f3343456efe257af9557a4365be279924",
			"version": 2,
			"lockTime": 737700,
			"vin": [
				{
					"txid": "5f0f926ff2ee476c68b4446050605417c138477492efc58ce98988691b209906",
					"vout": 1,
					"sequence": 4294967294,
					"n": 0,
					"addresses": [
						"RVyF6QC7XYqEP4ZThVowJGeZg5Q5p683nV"
					],
					"isAddress": true,
					"value": "75499982022",
					"hex": "483045022100a051cb8c2115b357d3bcbc2c067f841950024b6d029f5db596ea3d7978decf5d0220311088ae96aee032bd569c43582f31567dd419dd4f52ee5681c6b109e4184cb0012103176b9b14d363adf505b5e88f3682e966bab243c7ddc142d627ba4da5b7b43f40"
				}
			],
			"vout": [
				{
					"value": "74499965072",
					"n": 0,
					"spent": true,
					"hex": "76a914360823f5332cc0e0e963b0cefc81177fe1d1c9e288ac",
					"addresses": [
						"RECtKV2R2Fm23UK252pxaHD1tPrzpSdiLN"
					],
					"isAddress": true
				},
				{
					"value": "1000000000",
					"n": 1,
					"spent": true,
					"hex": "76a914db2b8e380a550bc0fc4f0274b2421e1483f5305388ac",
					"addresses": [
						"RVG4EpTdouq8ui29pgrAAYfWYtzC5Gzn8h"
					],
					"isAddress": true
				}
			],
			"blockHash": "00000000000010983316addc1b38cbb32d7e31e85861b8cfdee7fd9e222f4c29",
			"blockHeight": 737702,
			"confirmations": 492126,
			"blockTime": 1559679617,
			"value": "75499965072",
			"valueIn": "75499982022",
			"fees": "16950",
			"hex": "02000000010699201b698889e98cc5ef92744738c1175460506044b4686c47eef26f920f5f010000006b483045022100a051cb8c2115b357d3bcbc2c067f841950024b6d029f5db596ea3d7978decf5d0220311088ae96aee032bd569c43582f31567dd419dd4f52ee5681c6b109e4184cb0012103176b9b14d363adf505b5e88f3682e966bab243c7ddc142d627ba4da5b7b43f40feffffff0290408b58110000001976a914360823f5332cc0e0e963b0cefc81177fe1d1c9e288ac00ca9a3b000000001976a914db2b8e380a550bc0fc4f0274b2421e1483f5305388aca4410b00"
		}
	],
	"usedTokens": 7,
	"tokens": [
		{
			"type": "XPUBAddress",
			"name": "RJurUyAqde3GLkDgkTzAuHHMbdMPMqfBsz",
			"path": "m/44'/175'/0'/0/2",
			"transfers": 3,
			"decimals": 8,
			"balance": "299445646",
			"totalReceived": "309436046",
			"totalSent": "9990400"
		}
	]
}
