{"page":1,"totalPages":160338,"itemsOnPage":10,"address":"VdMPvn7vUTSzbYjiMDs1jku9wAh1Ri2Y1A","balance":"151181530522","totalReceived":"18401865678328","totalSent":"18250684147806","unconfirmedBalance":"0","unconfirmedTxs":0,"txs":1603379,"transactions":[{"txid":"fb71dae00a0ef3044c8085077e0def3147e0fc24e3a7d5e9fe67867e54a1a1d5","version":1,"vin":[{"sequence":4294967295,"n":0,"coinbase":"03afa774045ec68b8f"}],"vout":[{"value":"976562","n":0,"hex":"76a91424cc424c1e5e977175d2b20012554d39024bd68f88ac","addresses":["VdMPvn7vUTSzbYjiMDs1jku9wAh1Ri2Y1A"]}],"blockHash":"2a9e6773dd0ace56fb7807423e4bf1615a96e246fba6f07ca3de06ca5fbb0c68","blockHeight":7645103,"confirmations":1,"blockTime":1590070159,"value":"976562","valueIn":"0","fees":"0","hex":"01000000010000000000000000000000000000000000000000000000000000000000000000ffffffff0903afa774045ec68b8fffffffff01b2e60e00000000001976a91424cc424c1e5e977175d2b20012554d39024bd68f88ac00000000"},{"txid":"95bdfa9064b2e3089897c22fd21cf8eeb05e07d1a21c70b88e3ccce02c6b35e9","version":1,"vin":[{"sequence":4294967295,"n":0,"coinbase":"03ada774045ec68b72"}],"vout":[{"value":"976562","n":0,"hex":"76a91424cc424c1e5e977175d2b20012554d39024bd68f88ac","addresses":["VdMPvn7vUTSzbYjiMDs1jku9wAh1Ri2Y1A"]}],"blockHash":"18c911c768a87370dcd1f4dd618893047fbe48a05f969cdc1b239754a4cc0ca3","blockHeight":7645101,"confirmations":3,"blockTime":1590070130,"value":"976562","valueIn":"0","fees":"0","hex":"01000000010000000000000000000000000000000000000000000000000000000000000000ffffffff0903ada774045ec68b72ffffffff01b2e60e00000000001976a91424cc424c1e5e977175d2b20012554d39024bd68f88ac00000000"},{"txid":"9941602545e489e1370df8025a9ed100571f5056d5b36b5e0b90ede817bdb3c6","version":1,"vin":[{"sequence":4294967295,"n":0,"coinbase":"03a6a774045ec68a7e"}],"vout":[{"value":"976562","n":0,"hex":"76a91424cc424c1e5e977175d2b20012554d39024bd68f88ac","addresses":["VdMPvn7vUTSzbYjiMDs1jku9wAh1Ri2Y1A"]},{"value":"0","n":1,"hex":"6a24aa21a9ede2f61c3f71d1defd3fa999dfa36953755c690689799962b48bebd836974e8cf9","addresses":["OP_RETURN aa21a9ede2f61c3f71d1defd3fa999dfa36953755c690689799962b48bebd836974e8cf9"]}],"blockHash":"c7b4ae0bcda9c6d70b1879eb761458a34a5411f6464f92e0fd6e09e45907db55","blockHeight":7645094,"confirmations":10,"blockTime":1590069886,"value":"976562","valueIn":"0","fees":"0","hex":"010000000001010000000000000000000000000000000000000000000000000000000000000000ffffffff0903a6a774045ec68a7effffffff02b2e60e00000000001976a91424cc424c1e5e977175d2b20012554d39024bd68f88ac0000000000000000266a24aa21a9ede2f61c3f71d1defd3fa999dfa36953755c690689799962b48bebd836974e8cf90120000000000000000000000000000000000000000000000000000000000000000000000000"},{"txid":"d0f20c3cdb80d0467318a4168f24f57ba9eb5b5c398a889bd836a779d253a370","version":1,"vin":[{"sequence":4294967295,"n":0,"coinbase":"039fa774045ec68938"}],"vout":[{"value":"976562","n":0,"hex":"76a91424cc424c1e5e977175d2b20012554d39024bd68f88ac","addresses":["VdMPvn7vUTSzbYjiMDs1jku9wAh1Ri2Y1A"]}],"blockHash":"bb55efe10eb7e6a54f96a4cba73be191f58add358de83a68760ecdfe0e727ce5","blockHeight":7645087,"confirmations":17,"blockTime":1590069560,"value":"976562","valueIn":"0","fees":"0","hex":"01000000010000000000000000000000000000000000000000000000000000000000000000ffffffff09039fa774045ec68938ffffffff01b2e60e00000000001976a91424cc424c1e5e977175d2b20012554d39024bd68f88ac00000000"},{"txid":"7ff3b66c68baf22efa6767abede6e07cc42dbe7854ad9550230239b6bd5f9baa","version":1,"vin":[{"sequence":4294967295,"n":0,"coinbase":"039ea774045ec68915"}],"vout":[{"value":"976562","n":0,"hex":"76a91424cc424c1e5e977175d2b20012554d39024bd68f88ac","addresses":["VdMPvn7vUTSzbYjiMDs1jku9wAh1Ri2Y1A"]}],"blockHash":"723a275a090400a275bba97d26ee5053b79e0cab4b9d4cae3d07d84a9148cb16","blockHeight":7645086,"confirmations":18,"blockTime":1590069525,"value":"976562","valueIn":"0","fees":"0","hex":"01000000010000000000000000000000000000000000000000000000000000000000000000ffffffff09039ea774045ec68915ffffffff01b2e60e00000000001976a91424cc424c1e5e977175d2b20012554d39024bd68f88ac00000000"},{"txid":"d77862a099db4d33207ff7b98a534f618a00d73855186e9b7039edc490c0d4c4","version":1,"vin":[{"sequence":4294967295,"n":0,"coinbase":"039da774045ec68900"}],"vout":[{"value":"976562","n":0,"hex":"76a91424cc424c1e5e977175d2b20012554d39024bd68f88ac","addresses":["VdMPvn7vUTSzbYjiMDs1jku9wAh1Ri2Y1A"]},{"value":"0","n":1,"hex":"6a24aa21a9ede2f61c3f71d1defd3fa999dfa36953755c690689799962b48bebd836974e8cf9","addresses":["OP_RETURN aa21a9ede2f61c3f71d1defd3fa999dfa36953755c690689799962b48bebd836974e8cf9"]}],"blockHash":"1cf47ce738f299f7f99dfb09f1a6a97095340f38957a4726777ebb213c4d2521","blockHeight":7645085,"confirmations":19,"blockTime":1590069504,"value":"976562","valueIn":"0","fees":"0","hex":"010000000001010000000000000000000000000000000000000000000000000000000000000000ffffffff09039da774045ec68900ffffffff02b2e60e00000000001976a91424cc424c1e5e977175d2b20012554d39024bd68f88ac0000000000000000266a24aa21a9ede2f61c3f71d1defd3fa999dfa36953755c690689799962b48bebd836974e8cf90120000000000000000000000000000000000000000000000000000000000000000000000000"},{"txid":"f7dbeeea3ab0c44642c7647e0a6da4723d27cc6b01f18df03efee8377461cd52","version":1,"vin":[{"sequence":4294967295,"n":0,"coinbase":"0398a774045ec6888f"}],"vout":[{"value":"976562","n":0,"hex":"76a91424cc424c1e5e977175d2b20012554d39024bd68f88ac","addresses":["VdMPvn7vUTSzbYjiMDs1jku9wAh1Ri2Y1A"]}],"blockHash":"6c1df3751861f94df019ad0f5c2cfe78de848a1140c99c99d9b51755873395e0","blockHeight":7645080,"confirmations":24,"blockTime":1590069391,"value":"976562","valueIn":"0","fees":"0","hex":"01000000010000000000000000000000000000000000000000000000000000000000000000ffffffff090398a774045ec6888fffffffff01b2e60e00000000001976a91424cc424c1e5e977175d2b20012554d39024bd68f88ac00000000"},{"txid":"d00072dd6416f65a55b7178aa951b486fad6f71423d4fa0b8872cd3795282b63","version":1,"vin":[{"sequence":4294967295,"n":0,"coinbase":"0394a774045ec68821"}],"vout":[{"value":"976562","n":0,"hex":"76a91424cc424c1e5e977175d2b20012554d39024bd68f88ac","addresses":["VdMPvn7vUTSzbYjiMDs1jku9wAh1Ri2Y1A"]},{"value":"0","n":1,"hex":"6a24aa21a9ede2f61c3f71d1defd3fa999dfa36953755c690689799962b48bebd836974e8cf9","addresses":["OP_RETURN aa21a9ede2f61c3f71d1defd3fa999dfa36953755c690689799962b48bebd836974e8cf9"]}],"blockHash":"8324bb579b7e429723a10711ddc5338354ce1640632c1097bebac952bf0e39b0","blockHeight":7645076,"confirmations":28,"blockTime":1590069281,"value":"976562","valueIn":"0","fees":"0","hex":"010000000001010000000000000000000000000000000000000000000000000000000000000000ffffffff090394a774045ec68821ffffffff02b2e60e00000000001976a91424cc424c1e5e977175d2b20012554d39024bd68f88ac0000000000000000266a24aa21a9ede2f61c3f71d1defd3fa999dfa36953755c690689799962b48bebd836974e8cf90120000000000000000000000000000000000000000000000000000000000000000000000000"},{"txid":"bd408661283a213ec48b5e46314b687161914795b841bb2d1c3ccc0fc0e91360","version":1,"vin":[{"sequence":4294967295,"n":0,"coinbase":"0391a774045ec68802"}],"vout":[{"value":"976562","n":0,"hex":"76a91424cc424c1e5e977175d2b20012554d39024bd68f88ac","addresses":["VdMPvn7vUTSzbYjiMDs1jku9wAh1Ri2Y1A"]}],"blockHash":"9146e301cda547092e2d563db4e0437caa327fffcbbe4b16fe23b7704fe85b7f","blockHeight":7645073,"confirmations":31,"blockTime":1590069250,"value":"976562","valueIn":"0","fees":"0","hex":"01000000010000000000000000000000000000000000000000000000000000000000000000ffffffff090391a774045ec68802ffffffff01b2e60e00000000001976a91424cc424c1e5e977175d2b20012554d39024bd68f88ac00000000"},{"txid":"8aefbd2b6c32a6d70cb905d1c6303e5940fe26b242d40da8c34173252b41648c","version":1,"vin":[{"sequence":4294967295,"n":0,"coinbase":"038ea774045ec687cf"}],"vout":[{"value":"976562","n":0,"hex":"76a91424cc424c1e5e977175d2b20012554d39024bd68f88ac","addresses":["VdMPvn7vUTSzbYjiMDs1jku9wAh1Ri2Y1A"]}],"blockHash":"4627ee53a7487b762627dc42efe57c9f2e700d445c53740958bae483014070bb","blockHeight":7645070,"confirmations":34,"blockTime":1590069199,"value":"976562","valueIn":"0","fees":"0","hex":"01000000010000000000000000000000000000000000000000000000000000000000000000ffffffff09038ea774045ec687cfffffffff01b2e60e00000000001976a91424cc424c1e5e977175d2b20012554d39024bd68f88ac00000000"}]}
